02406201803142024062018CEADM1001363583        10440482000154GETNET S.A.         000000157GSSANT. V.8.0 400 BYTES                                                                                                                                                                                                                                                                                                
11363583        SEPOS853669406230620182506201803300435300130020216000000002000000000000000041976000000041410000000000000000000000566000000000000000000041410000000000000PF01011363583        00000000000000000000000000000000000000000000000000000000000000000000000000000000000000000000986 +                                                                                                                  
21363583        85366940600000000907723062018231411422061******3714   0000000196600000000000000000000000000101000000019660250620180000143653POSC1363583        05311109986N+                                                                                                                                                                                                                                    
21363583        85366940600000000907123062018225025473200******3201   0000000223160000000000000000000000000101000000022316250620180000345250POSC1363583        05311109986N+                                                                                                                                                                                                                                    
11363583        SVPOS853668404230620182307201803300435300130020216000000001000000000000000003175000000003113000000000000000000000062000000000000000000003113000000000000PF01011363583        00000000000000000000000000000000000000000000000000000000000000000000000000000000000000000000986 +                                                                                                                  
21363583        85366840400000000992923062018230711459383******6764   0000000031750000000000000000000000000101000000003175230720180000055159POSC1363583        05327598986N+                                                                                                                                                                                                                                    
11363583        SVPOS853668400230620182307201803300435300130020216000000001000000000000000019760000000019375000000000000000000000385000000000000000000019375000000000000PF01011363583        00000000000000000000000000000000000000000000000000000000000000000000000000000000000000000000986 +                                                                                                                  
21363583        85366840000000000907923062018232732412177******1110   0000000197600000000000000000000000000101000000019760230720180000082048POSC1363583        05311109986N+                                                                                                                                                                                                                                    
11363583        SRPOS853667482230620182506201803300435300130020216000000001000000000000000009175000000009051000000000000000000000124000000000000000000009051000000000000PF01011363583        00000000000000000000000000000000000000000000000000000000000000000000000000000000000000000000986 +                                                                                                                  
21363583        85366748200000000992723062018230639520132******9598   0000000091750000000000000000000000000101000000009175250620180000070069POSC1363583        05327598986N+                                                                                                                                                                                                                                    
11363583        SRPOS853667473230620182506201803300435300130020216000000003000000000000000053840000000053113000000000000000000000727000000000000000000053113000000000000PF01011363583        00000000000000000000000000000000000000000000000000000000000000000000000000000000000000000000986 +                                                                                                                  
21363583        85366747300000000906923062018224934515590******7613   0000000223160000000000000000000000000101000000022316250620180000501465POSC1363583        05311109986N+                                                                                                                                                                                                                                    
21363583        85366747300000000908123062018232811549167******1413   0000000203500000000000000000000000000101000000020350250620180000769705POSC1363583        05311109986N+                                                                                                                                                                                                                                    
21363583        85366747300000000907323062018225105536233******9660   0000000111740000000000000000000000000101000000011174250620180000613122POSC1363583        05311109986N+                                                                                                                                                                                                                                    
11363583        EDPOS853526927230620182506201803300435300130020216000000001000000000000000020050000000019739000000000000000000000311000000000000000000019739000000000000PF01011363583        00000000000000000000000000000000000000000000000000000000000000000000000000000000000000000000986 +                                                                                                                  
21363583        85352692700000000906723062018224232506726******7106   0000000200500000000000000000000000000101000000020050250620180000344950POSC1363583        05311109986N+                                                                                                                                                                                                                                    
11363583        ACPOS853517253230620182307201803300435300130020216000000001000000000000000021790000000021132000000000000000000000658000000000000000000021132000000000000PF01011363583        00000000000000000000000000000000000000000000000000000000000000000000000000000000000000000000986 +                                                                                                                  
21363583        85351725300000000988723062018211540376471*****9926    0000000217900000000000000000000000000101000000021790230720180000660516POSC1363583        05327598986N+                                                                                                                                                                                                                                    
11363583        SEPOS853516558230620182506201803300435300130020216000000001000000000000000030230000000029822000000000000000000000408000000000000000000029822000000000000PF01011363583        00000000000000000000000000000000000000000000000000000000000000000000000000000000000000000000986 +                                                                                                                  
21363583        85351655800000000991323062018222103439267******6995   0000000302300000000000000000000000000101000000030230250620180000624763POSC1363583        05327598986N+                                                                                                                                                                                                                                    
11363583        SVPOS853504271230620182307201803300435300130020216000000005000000000000000081655000000080063000000000000000000001592000000000000000000080063000000000000PF01011363583        00000000000000000000000000000000000000000000000000000000000000000000000000000000000000000000986 +                                                                                                                  
21363583        85350427100000000991523062018222310446690******3141   0000000305300000000000000000000000000101000000030530230720180000061279POSC1363583        05327598986N+                                                                                                                                                                                                                                    
21363583        85350427100000000990323062018215840470598******0572   0000000201500000000000000000000000000101000000020150230720180000067616POSC1363583        05327598986N+                                                                                                                                                                                                                                    
21363583        85350427100000000989123062018212222415274******7143   0000000087700000000000000000000000000101000000008770230720180000031800POSC1363583        05327598986N+                                                                                                                                                                                                                                    
21363583        85350427100000000988323062018204942403225******4759   0000000109750000000000000000000000000101000000010975230720180000438003POSC1363583        05327598986N+                                                                                                                                                                                                                                    
21363583        85350427100000000989323062018212329470598******5483   0000000112300000000000000000000000000101000000011230230720180000003745POSC1363583        05327598986N+                                                                                                                                                                                                                                    
11363583        SRPOS853493785230620182506201803300435300130020216000000005000000000000000090120000000088904000000000000000000001216000000000000000000088904000000000000PF01011363583        00000000000000000000000000000000000000000000000000000000000000000000000000000000000000000000986 +                                                                                                                  
21363583        85349378500000000988923062018212047515590******7229   0000000194700000000000000000000000000101000000019470250620180000210671POSC1363583        05327598986N+                                                                                                                                                                                                                                    
21363583        85349378500000000990523062018220054529323******7007   0000000097800000000000000000000000000101000000009780250620180000736022POSC1363583        05327598986N+                                                                                                                                                                                                                                    
21363583        85349378500000000992323062018224240589916******7291   0000000210500000000000000000000000000101000000021050250620180000751992POSC1363583        05327598986N+                                                                                                                                                                                                                                    
21363583        85349378500000000991123062018221750544731******3877   0000000187700000000000000000000000000101000000018770250620180000181575POSC1363583        05327598986N+                                                                                                                                                                                                                                    
21363583        85349378500000000992523062018224308589916******3242   0000000210500000000000000000000000000101000000021050250620180000754926POSC1363583        05327598986N+                                                                                                                                                                                                                                    
11363583        SRPOS853493758230620182506201803300435300130020216000000003000000000000000046445000000045818000000000000000000000627000000000000000000045818000000000000PF01011363583        00000000000000000000000000000000000000000000000000000000000000000000000000000000000000000000986 +                                                                                                                  
21363583        85349375800000000906523062018224055525802******8734   0000000248450000000000000000000000000101000000024845250620180000723163POSC1363583        05311109986N+                                                                                                                                                                                                                                    
21363583        85349375800000000905923062018223747589916******5322   0000000108000000000000000000000000000101000000010800250620180000751511POSC1363583        05311109986N+                                                                                                                                                                                                                                    
21363583        85349375800000000906123062018223819526863******2872   0000000108000000000000000000000000000101000000010800250620180000752848POSC1363583        05311109986N+                                                                                                                                                                                                                                    
11363583        SMPOS853479567230620182307201803300435300130020216000000006000000000000000123850000000121436000000000000000000002414000000000000000000121436000000000000PF01011363583        00000000000000000000000000000000000000000000000000000000000000000000000000000000000000000000986 +                                                                                                                  
21363583        85347956700000000991723062018222405549167******3000   0000000465700000000000000000000000000101000000046570230720180000012442POSC1363583        05327598986N+                                                                                                                                                                                                                                    
21363583        85347956700000000989923062018213908544839******0214   0000000106200000000000000000000000000101000000010620230720180000029518POSC1363583        05327598986N+                                                                                                                                                                                                                                    
21363583        85347956700000000991923062018222957515590******4837   0000000294400000000000000000000000000101000000029440230720180000302070POSC1363583        05327598986N+                                                                                                                                                                                                                                    
21363583        85347956700000000989723062018213708516292******3974   0000000070400000000000000000000000000101000000007040230720180000V1U577POSC1363583        05327598986N+                                                                                                                                                                                                                                    
21363583        85347956700000000992123062018224020522840******5318   0000000195600000000000000000000000000101000000019560230720180000403963POSC1363583        05327598986N+                                                                                                                                                                                                                                    
21363583        85347956700000000990123062018213931515590******9253   0000000106200000000000000000000000000101000000010620230720180000394976POSC1363583        05327598986N+                                                                                                                                                                                                                                    
11363583        SMPOS853479542230620182307201803300435300130020216000000002000000000000000050130000000049152000000000000000000000978000000000000000000049152000000000000PF01011363583        00000000000000000000000000000000000000000000000000000000000000000000000000000000000000000000986 +                                                                                                                  
21363583        85347954200000000906323062018223901553636******7286   0000000261000000000000000000000000000101000000026100230720180000034374POSC1363583        05311109986N+                                                                                                                                                                                                                                    
21363583        85347954200000000905723062018222312516220******7107   0000000240300000000000000000000000000101000000024030230720180000RAHEVWPOSC1363583        05311109986N+                                                                                                                                                                                                                                    
11363583        EDPOS853277692230620182506201803300435300130020216000000001000000000000000010975000000010805000000000000000000000170000000000000000000010805000000000000PF01011363583        00000000000000000000000000000000000000000000000000000000000000000000000000000000000000000000986 +                                                                                                                  
21363583        85327769200000000988123062018204912650494******3106   0000000109750000000000000000000000000101000000010975250620180000344017POSC1363583        05327598986N+                                                                                                                                                                                                                                    
11363583        EDPOS853277667230620182506201803300435300130020216000000001000000000000000022130000000021787000000000000000000000343000000000000000000021787000000000000PF01011363583        00000000000000000000000000000000000000000000000000000000000000000000000000000000000000000000986 +                                                                                                                  
21363583        85327766700000000905523062018201314506727******3105   0000000221300000000000000000000000000101000000022130250620180000343567POSC1363583        05311109986N+                                                                                                                                                                                                                                    
11363583        SEPOS853211332230620182506201803300435300130020216000000002000000000000000018770000000018517000000000000000000000253000000000000000000018517000000000000PF01011363583        00000000000000000000000000000000000000000000000000000000000000000000000000000000000000000000986 +                                                                                                                  
21363583        85321133200000000984923062018173056441524******7553   0000000089900000000000000000000000000101000000008990250620180000312956POSC1363583        05327598986N+                                                                                                                                                                                                                                    
21363583        85321133200000000985523062018194243476608******1209   0000000097800000000000000000000000000101000000009780250620180000343802POSC1363583        05327598986N+                                                                                                                                                                                                                                    
11363583        SEPOS853211317230620182506201803300435300130020216000000001000000000000000010000000000009865000000000000000000000135000000000000000000009865000000000000PF01011363583        00000000000000000000000000000000000000000000000000000000000000000000000000000000000000000000986 +                                                                                                                  
21363583        85321131700000000904323062018162522438027******6307   0000000100000000000000000000000000000101000000010000250620180000341218POSC1363583        05311109986N+                                                                                                                                                                                                                                    
11363583        SVPOS853138900230620182307201803300435300130020216000000005000000000000000108710000000106590000000000000000000002120000000000000000000106590000000000000PF01011363583        00000000000000000000000000000000000000000000000000000000000000000000000000000000000000000000986 +                                                                                                                  
21363583        85313890000000000987123062018204250410863******2990   0000000097800000000000000000000000000101000000009780230720180000430976POSC1363583        05327598986N+                                                                                                                                                                                                                                    
21363583        85313890000000000984123062018161910406655******1288   0000000431500000000000000000000000000101000000043150230720180000693986POSC1363583        05327598986N+                                                                                                                                                                                                                                    
21363583        85313890000000000984723062018164635406655******2896   0000000112600000000000000000000000000101000000011260230720180000665288POSC1363583        05327598986N+                                                                                                                                                                                                                                    
21363583        85313890000000000986323062018202326412177******2133   0000000203800000000000000000000000000101000000020380230720180000095946POSC1363583        05327598986N+                                                                                                                                                                                                                                    
21363583        85313890000000000986723062018203401472280******2212   0000000241400000000000000000000000000101000000024140230720180000228010POSC1363583        05327598986N+                                                                                                                                                                                                                                    
11363583        SVPOS853138881230620182307201803300435300130020216000000003000000000000000053450000000052407000000000000000000001043000000000000000000052407000000000000PF01011363583        00000000000000000000000000000000000000000000000000000000000000000000000000000000000000000000986 +                                                                                                                  
21363583        85313888100000000903723062018155412406655******3486   0000000313200000000000000000000000000101000000031320230720180000643372POSC1363583        05311109986N+                                                                                                                                                                                                                                    
21363583        85313888100000000904923062018193618400225******3234   0000000113600000000000000000000000000101000000011360230720180000156549POSC1363583        05311109986N+                                                                                                                                                                                                                                    
21363583        85313888100000000905123062018193709482425******8102   0000000107700000000000000000000000000101000000010770230720180000307458POSC1363583        05311109986N+                                                                                                                                                                                                                                    
11363583        SRPOS853066350230620182506201803300435300130020216000000007000000000000000106990000000105546000000000000000000001444000000000000000000105546000000000000PF01011363583        00000000000000000000000000000000000000000000000000000000000000000000000000000000000000000000986 +                                                                                                                  
21363583        85306635000000000987323062018204319542974******0056   0000000097800000000000000000000000000101000000009780250620180000695335POSC1363583        05327598986N+                                                                                                                                                                                                                                    
21363583        85306635000000000987723062018204818544540******2648   0000000109750000000000000000000000000101000000010975250620180000698021POSC1363583        05327598986N+                                                                                                                                                                                                                                    
21363583        85306635000000000985723062018194319515590******8181   0000000100750000000000000000000000000101000000010075250620180000434259POSC1363583        05327598986N+                                                                                                                                                                                                                                    
21363583        85306635000000000985923062018194355515590******9760   0000000100750000000000000000000000000101000000010075250620180000441070POSC1363583        05327598986N+                                                                                                                                                                                                                                    
21363583        85306635000000000986123062018202105529323******8999   0000000107400000000000000000000000000101000000010740250620180000679270POSC1363583        05327598986N+                                                                                                                                                                                                                                    
21363583        85306635000000000987923062018204847542820******0761   0000000109750000000000000000000000000101000000010975250620180000490375POSC1363583        05327598986N+                                                                                                                                                                                                                                    
21363583        85306635000000000987523062018204503515590******1646   0000000443700000000000000000000000000101000000044370250620180000452652POSC1363583        05327598986N+                                                                                                                                                                                                                                    
11363583        SRPOS853066339230620182506201803300435300130020216000000001000000000000000024900000000024564000000000000000000000336000000000000000000024564000000000000PF01011363583        00000000000000000000000000000000000000000000000000000000000000000000000000000000000000000000986 +                                                                                                                  
21363583        85306633900000000905323062018193741589916******1082   0000000249000000000000000000000000000101000000024900250620180000650501POSC1363583        05311109986N+                                                                                                                                                                                                                                    
11363583        SMPOS852954324230620182307201803300435300130020216000000003000000000000000060490000000059311000000000000000000001179000000000000000000059311000000000000PF01011363583        00000000000000000000000000000000000000000000000000000000000000000000000000000000000000000000986 +                                                                                                                  
21363583        85295432400000000985323062018191311541555******9694   0000000195600000000000000000000000000101000000019560230720180000056983POSC1363583        05327598986N+                                                                                                                                                                                                                                    
21363583        85295432400000000985123062018184928524703******1110   0000000205500000000000000000000000000101000000020550230720180000091541POSC1363583        05327598986N+                                                                                                                                                                                                                                    
21363583        85295432400000000986523062018202354553636******0901   0000000203800000000000000000000000000101000000020380230720180000057842POSC1363583        05327598986N+                                                                                                                                                                                                                                    
11363583        EDPOS852779219230620182506201803300435300130020216000000001000000000000000026740000000026326000000000000000000000414000000000000000000026326000000000000PF01011363583        00000000000000000000000000000000000000000000000000000000000000000000000000000000000000000000986 +                                                                                                                  
21363583        85277921900000000983723062018154651506775******7485   0000000267400000000000000000000000000101000000026740250620180000978331POSC1363583        05327598986N+                                                                                                                                                                                                                                    
11363583        ACPOS852695217230620182307201803300435300130020216000000001000000000000000035660000000034583000000000000000000001077000000000000000000034583000000000000PF01011363583        00000000000000000000000000000000000000000000000000000000000000000000000000000000000000000000986 +                                                                                                                  
21363583        85269521700000000902123062018150942376487*****1013    0000000356600000000000000000000000000101000000035660230720180000600394POSC1363583        05311109986N+                                                                                                                                                                                                                                    
11363583        SEPOS852680989230620182506201803300435300130020216000000004000000000000000066490000000065592000000000000000000000898000000000000000000065592000000000000PF01011363583        00000000000000000000000000000000000000000000000000000000000000000000000000000000000000000000986 +                                                                                                                  
21363583        85268098900000000902323062018151154483042******7306   0000000191600000000000000000000000000101000000019160250620180000340819POSC1363583        05311109986N+                                                                                                                                                                                                                                    
21363583        85268098900000000901923062018150903498431******0199   0000000178000000000000000000000000000101000000017800250620180000154564POSC1363583        05311109986N+                                                                                                                                                                                                                                    
21363583        85268098900000000903123062018152653459020******8355   0000000191600000000000000000000000000101000000019160250620180000085055POSC1363583        05311109986N+                                                                                                                                                                                                                                    
21363583        85268098900000000903323062018154530409600******0092   0000000103700000000000000000000000000101000000010370250620180000341371POSC1363583        05311109986N+                                                                                                                                                                                                                                    
11363583        SVPOS852541653230620182307201803300435300130020216000000005000000000000000085170000000083509000000000000000000001661000000000000000000083509000000000000PF01011363583        00000000000000000000000000000000000000000000000000000000000000000000000000000000000000000000986 +                                                                                                                  
21363583        85254165300000000900523062018140344498453******6096   0000000214300000000000000000000000000101000000021430230720180000084948POSC1363583        05311109986N+                                                                                                                                                                                                                                    
21363583        85254165300000000900123062018133706439027******2803   0000000210400000000000000000000000000101000000021040230720180000672486POSC1363583        05311109986N+                                                                                                                                                                                                                                    
21363583        85254165300000000902723062018152242470598******0752   0000000203500000000000000000000000000101000000020350230720180000003412POSC1363583        05311109986N+                                                                                                                                                                                                                                    
21363583        85254165300000000900723062018140722498406******3692   0000000085500000000000000000000000000101000000008550230720180000095915POSC1363583        05311109986N+                                                                                                                                                                                                                                    
21363583        85254165300000000901123062018141331490172******0899   0000000138000000000000000000000000000101000000013800230720180000058854POSC1363583        05311109986N+                                                                                                                                                                                                                                    
11363583        SRPOS852427257230620182506201803300435300130020216000000002000000000000000049175000000048511000000000000000000000664000000000000000000048511000000000000PF01011363583        00000000000000000000000000000000000000000000000000000000000000000000000000000000000000000000986 +                                                                                                                  
21363583        85242725700000000901723062018145356589916******7363   0000000239400000000000000000000000000101000000023940250620180000411972POSC1363583        05311109986N+                                                                                                                                                                                                                                    
21363583        85242725700000000901523062018144226637529******8115   0000000252350000000000000000000000000101000000025235250620180000506529POSC1363583        05311109986N+                                                                                                                                                                                                                                    
11363583        SMPOS852292110230620182307201803300435300130020216000000005000000000000000101980000000099992000000000000000000001988000000000000000000099992000000000000PF01011363583        00000000000000000000000000000000000000000000000000000000000000000000000000000000000000000000986 +                                                                                                                  
21363583        85229211000000000902923062018152553541555******2413   0000000210400000000000000000000000000101000000021040230720180000029969POSC1363583        05311109986N+                                                                                                                                                                                                                                    
21363583        85229211000000000902523062018152047549167******5507   0000000366050000000000000000000000000101000000036605230720180000003536POSC1363583        05311109986N+                                                                                                                                                                                                                                    
21363583        85229211000000000903523062018154608544731******7232   0000000103700000000000000000000000000101000000010370230720180000462863POSC1363583        05311109986N+                                                                                                                                                                                                                                    
21363583        85229211000000000899923062018132522549167******8511   0000000201500000000000000000000000000101000000020150230720180000059438POSC1363583        05311109986N+                                                                                                                                                                                                                                    
21363583        85229211000000000900923062018141216554906******6141   0000000138150000000000000000000000000101000000013815230720180000031273POSC1363583        05311109986N+                                                                                                                                                                                                                                    
11363583        EDPOS852110340230620182506201803300435300130020216000000001000000000000000012132000000011944000000000000000000000188000000000000000000011944000000000000PF01011363583        00000000000000000000000000000000000000000000000000000000000000000000000000000000000000000000986 +                                                                                                                  
21363583        85211034000000000898723062018001019627780******0478   0000000121320000000000000000000000000101000000012132250620180000621869POSC1363583        05311109986N+                                                                                                                                                                                                                                    
11363583        SEPOS852066862230620182506201803300435300130020216000000001000000000000000012132000000011968000000000000000000000164000000000000000000011968000000000000PF01011363583        00000000000000000000000000000000000000000000000000000000000000000000000000000000000000000000986 +                                                                                                                  
21363583        85206686200000000898923062018001051483042******3104   0000000121320000000000000000000000000101000000012132250620180000332291POSC1363583        05311109986N+                                                                                                                                                                                                                                    
11363583        SVPOS851994175230620182307201803300435300130020216000000001000000000000000007000000000006863000000000000000000000137000000000000000000006863000000000000PF01011363583        00000000000000000000000000000000000000000000000000000000000000000000000000000000000000000000986 +                                                                                                                  
21363583        85199417500000000982523062018000337460035******3715   0000000070000000000000000000000000000101000000007000230720180000062015POSC1363583        05327598986N+                                                                                                                                                                                                                                    
11363583        SRPOS851863978230620182506201803300435300130020216000000001000000000000000008000000000007892000000000000000000000108000000000000000000007892000000000000PF01011363583        00000000000000000000000000000000000000000000000000000000000000000000000000000000000000000000986 +                                                                                                                  
21363583        85186397800000000982923062018000445544731******7116   0000000080000000000000000000000000000101000000008000250620180000053372POSC1363583        05327598986N+                                                                                                                                                                                                                                    
11363583        SRPOS851863938230620182506201803300435300130020216000000002000000000000000024264000000023936000000000000000000000328000000000000000000023936000000000000PF01011363583        00000000000000000000000000000000000000000000000000000000000000000000000000000000000000000000986 +                                                                                                                  
21363583        85186393800000000899123062018001118589916******3918   0000000121320000000000000000000000000101000000012132250620180000680249POSC1363583        05311109986N+                                                                                                                                                                                                                                    
21363583        85186393800000000899323062018001157589916******9844   0000000121320000000000000000000000000101000000012132250620180000681007POSC1363583        05311109986N+                                                                                                                                                                                                                                    
11363583        SMPOS851645913230620182307201803300435300130020216000000001000000000000000028350000000027797000000000000000000000553000000000000000000027797000000000000PF01011363583        00000000000000000000000000000000000000000000000000000000000000000000000000000000000000000000986 +                                                                                                                  
21363583        85164591300000000898323062018000326514945******7595   0000000283500000000000000000000000000101000000028350230720180000052911POSC1363583        05311109986N+                                                                                                                                                                                                                                    
11363583        SMPOS851645894230620182307201803300435300130020216000000001000000000000000019660000000019277000000000000000000000383000000000000000000019277000000000000PF01011363583        00000000000000000000000000000000000000000000000000000000000000000000000000000000000000000000986 +                                                                                                                  
21363583        85164589400000000898122062018235902514868******5452   0000000196600000000000000000000000000101000000019660230720180000021456POSC1363583        05311109986N+                                                                                                                                                                                                                                    
9000000119                                                                                                                                                                                                                                                                                                                                                                                                      
