02206201803344422062018CEADM1001363583        10440482000154GETNET S.A.         000000155GSSANT. V.8.0 400 BYTES                                                                                                                                                                                                                                                                                                
11363583        ECPOS849396487210620182307201803300435300130020216000000001000000000000000009694000000009517000000000000000000000177000000000000000000009517000000000000PF01011363583        00000000000000000000000000000000000000000000000000000000000000000000000000000000000000000000986 +                                                                                                                  
21363583        84939648700000000892721062018232455655000******2775   0000000096940000000000000000000000000101000000009694230720180000651817POSC1363583        05311109986N+                                                                                                                                                                                                                                    
11363583        SVPOS849395475210620182307201803300435300130020216000000001000000000000000009694000000009505000000000000000000000189000000000000000000009505000000000000PF01011363583        00000000000000000000000000000000000000000000000000000000000000000000000000000000000000000000986 +                                                                                                                  
21363583        84939547500000000892321062018232354406669******7490   0000000096940000000000000000000000000101000000009694230720180000641168POSC1363583        05311109986N+                                                                                                                                                                                                                                    
11363583        SVPOS849248846210620182307201803300435300130020216000000005000000000000000062460000000061242000000000000000000001218000000000000000000061242000000000000PF01011363583        00000000000000000000000000000000000000000000000000000000000000000000000000000000000000000000986 +                                                                                                                  
21363583        84924884600000000974121062018224200498401******4329   0000000090340000000000000000000000000101000000009034230720180000048472POSC1363583        05327598986N+                                                                                                                                                                                                                                    
21363583        84924884600000000971321062018213659446690******4126   0000000249540000000000000000000000000101000000024954230720180000008894POSC1363583        05327598986N+                                                                                                                                                                                                                                    
21363583        84924884600000000973121062018222820406168******9189   0000000084720000000000000000000000000101000000008472230720180000066302POSC1363583        05327598986N+                                                                                                                                                                                                                                    
21363583        84924884600000000971721062018220231432032******6110   0000000100000000000000000000000000000101000000010000230720180000096066POSC1363583        05327598986N+                                                                                                                                                                                                                                    
21363583        84924884600000000971921062018220301459313******2016   0000000100000000000000000000000000000101000000010000230720180000065022POSC1363583        05327598986N+                                                                                                                                                                                                                                    
11363583        SMPOS849227752210620182307201803300435300130020216000000005000000000000000126519000000124053000000000000000000002466000000000000000000124053000000000000PF01011363583        00000000000000000000000000000000000000000000000000000000000000000000000000000000000000000000986 +                                                                                                                  
21363583        84922775200000000970921062018205027528860******7076   0000000273050000000000000000000000000101000000027305230720180000045326POSC1363583        05327598986N+                                                                                                                                                                                                                                    
21363583        84922775200000000972521062018221227550209******7443   0000000195600000000000000000000000000101000000019560230720180000KUUHCNPOSC1363583        05327598986N+                                                                                                                                                                                                                                    
21363583        84922775200000000971121062018211958520405******2273   0000000240550000000000000000000000000101000000024055230720180000056015POSC1363583        05327598986N+                                                                                                                                                                                                                                    
21363583        84922775200000000973521062018223950530049******7141   0000000090340000000000000000000000000101000000009034230720180000015808POSC1363583        05327598986N+                                                                                                                                                                                                                                    
21363583        84922775200000000971521062018214836522840******4527   0000000465650000000000000000000000000101000000046565230720180000495570POSC1363583        05327598986N+                                                                                                                                                                                                                                    
11363583        SMPOS849227725210620182307201803300435300130020216000000002000000000000000035415000000034724000000000000000000000691000000000000000000034724000000000000PF01011363583        00000000000000000000000000000000000000000000000000000000000000000000000000000000000000000000986 +                                                                                                                  
21363583        84922772500000000891921062018224700553636******2543   0000000098800000000000000000000000000101000000009880230720180000025325POSC1363583        05311109986N+                                                                                                                                                                                                                                    
21363583        84922772500000000890521062018215355553636******9590   0000000255350000000000000000000000000101000000025535230720180000049967POSC1363583        05311109986N+                                                                                                                                                                                                                                    
11363583        SMPOS848577283210620182307201803300435300130020216000000001000000000000000003590000000003520000000000000000000000070000000000000000000003520000000000000PF01011363583        00000000000000000000000000000000000000000000000000000000000000000000000000000000000000000000986 +                                                                                                                  
21363583        84857728300000000970521062018184629548649******7679   0000000035900000000000000000000000000101000000003590230720180000464901POSC1363583        05327598986N+                                                                                                                                                                                                                                    
11363583        SMPOS848577267210620182307201803300435300130020216000000001000000000000000019560000000019179000000000000000000000381000000000000000000019179000000000000PF01011363583        00000000000000000000000000000000000000000000000000000000000000000000000000000000000000000000986 +                                                                                                                  
21363583        84857726700000000890321062018201748550209******2687   0000000195600000000000000000000000000101000000019560230720180000V66PRBPOSC1363583        05311109986N+                                                                                                                                                                                                                                    
11363583        ECPOS848414791210620182307201803300435300130020216000000001000000000000000019560000000019202000000000000000000000358000000000000000000019202000000000000PF01011363583        00000000000000000000000000000000000000000000000000000000000000000000000000000000000000000000986 +                                                                                                                  
21363583        84841479100000000889721062018134911655000******4444   0000000195600000000000000000000000000101000000019560230720180000693540POSC1363583        05311109986N+                                                                                                                                                                                                                                    
11363583        SVPOS848245680210620182307201803300435300130020216000000001000000000000000036165000000035460000000000000000000000705000000000000000000035460000000000000PF01011363583        00000000000000000000000000000000000000000000000000000000000000000000000000000000000000000000986 +                                                                                                                  
21363583        84824568000000000889121062018131054471511******5381   0000000361650000000000000000000000000101000000036165230720180000087648POSC1363583        05311109986E+                                                                                                                                                                                                                                    
11363583        SEPOS849395991210620182206201803300435300130020216000000002000000000000000019560000000019296000000000000000000000264000000000000000000019296000000000000PG01011363583        00000000000000000000000000000000000000000000000000000000000000000000000000000000000000000000986 +                                                                                                                  
21363583        84939599100000000974521062018230304439267******6740   0000000097800000000000000000000000000101000000009780220620180000585408POSC1363583        05327598986N+                                                                                                                                                                                                                                    
21363583        84939599100000000974321062018230209419137******2315   0000000097800000000000000000000000000101000000009780220620180000023677POSC1363583        05327598986N+                                                                                                                                                                                                                                    
11363583        SEPOS849395987210620182206201803300435300130020216000000002000000000000000019388000000019126000000000000000000000262000000000000000000019126000000000000PG01011363583        00000000000000000000000000000000000000000000000000000000000000000000000000000000000000000000986 +                                                                                                                  
21363583        84939598700000000892521062018232423423808******0632   0000000096940000000000000000000000000101000000009694220620180000244558POSC1363583        05311109986N+                                                                                                                                                                                                                                    
21363583        84939598700000000892921062018232530490172******3621   0000000096940000000000000000000000000101000000009694220620180000128039POSC1363583        05311109986N+                                                                                                                                                                                                                                    
11363583        SRPOS849394718210620182206201803300435300130020216000000001000000000000000017980000000017737000000000000000000000243000000000000000000017737000000000000PG01011363583        00000000000000000000000000000000000000000000000000000000000000000000000000000000000000000000986 +                                                                                                                  
21363583        84939471800000000892121062018230248529323******2250   0000000179800000000000000000000000000101000000017980220620180000692375POSC1363583        05311109986N+                                                                                                                                                                                                                                    
11363583        SEPOS849256013210620182206201803300435300130020216000000002000000000000000042048000000041480000000000000000000000568000000000000000000041480000000000000PG01011363583        00000000000000000000000000000000000000000000000000000000000000000000000000000000000000000000986 +                                                                                                                  
21363583        84925601300000000972121062018220323476333******2114   0000000239800000000000000000000000000101000000023980220620180000197030POSC1363583        05327598986N+                                                                                                                                                                                                                                    
21363583        84925601300000000973721062018224026409600******4301   0000000180680000000000000000000000000101000000018068220620180000316305POSC1363583        05327598986N+                                                                                                                                                                                                                                    
11363583        SRPOS849238420210620182206201803300435300130020216000000005000000000000000078921000000077856000000000000000000001065000000000000000000077856000000000000PG01011363583        00000000000000000000000000000000000000000000000000000000000000000000000000000000000000000000986 +                                                                                                                  
21363583        84923842000000000973921062018224126540105******1143   0000000090340000000000000000000000000101000000009034220620180000415052POSC1363583        05327598986N+                                                                                                                                                                                                                                    
21363583        84923842000000000972321062018220811549167******7500   0000000197500000000000000000000000000101000000019750220620180000677115POSC1363583        05327598986N+                                                                                                                                                                                                                                    
21363583        84923842000000000972921062018222754589916******0313   0000000084720000000000000000000000000101000000008472220620180000682971POSC1363583        05327598986N+                                                                                                                                                                                                                                    
21363583        84923842000000000972721062018222724544731******0475   0000000084720000000000000000000000000101000000008472220620180000274474POSC1363583        05327598986N+                                                                                                                                                                                                                                    
21363583        84923842000000000973321062018223445552693******3716   0000000331930000000000000000000000000101000000033193220620180000351169POSC1363583        05327598986N+                                                                                                                                                                                                                                    
11363583        SRPOS849238390210620182206201803300435300130020216000000005000000000000000070714000000069760000000000000000000000954000000000000000000069760000000000000PG01011363583        00000000000000000000000000000000000000000000000000000000000000000000000000000000000000000000986 +                                                                                                                  
21363583        84923839000000000891321062018221706514945******8412   0000000207500000000000000000000000000101000000020750220620180000677917POSC1363583        05311109986N+                                                                                                                                                                                                                                    
21363583        84923839000000000891121062018220356589916******1041   0000000083030000000000000000000000000101000000008303220620180000674826POSC1363583        05311109986N+                                                                                                                                                                                                                                    
21363583        84923839000000000890921062018220314589916******7608   0000000066060000000000000000000000000101000000006606220620180000674694POSC1363583        05311109986N+                                                                                                                                                                                                                                    
21363583        84923839000000000891721062018224628589916******3743   0000000098800000000000000000000000000101000000009880220620180000685705POSC1363583        05311109986N+                                                                                                                                                                                                                                    
21363583        84923839000000000891521062018221920502121******4557   0000000251750000000000000000000000000101000000025175220620180000194653POSC1363583        05311109986N+                                                                                                                                                                                                                                    
11363583        EDPOS849058187210620182206201803300435300130020216000000001000000000000000022030000000021689000000000000000000000341000000000000000000021689000000000000PG01011363583        00000000000000000000000000000000000000000000000000000000000000000000000000000000000000000000986 +                                                                                                                  
21363583        84905818700000000970721062018191209506731******6100   0000000220300000000000000000000000000101000000022030220620180000314606POSC1363583        05327598986N+                                                                                                                                                                                                                                    
11363583        SRPOS848703058210620182206201803300435300130020216000000001000000000000000019660000000019395000000000000000000000265000000000000000000019395000000000000PG01011363583        00000000000000000000000000000000000000000000000000000000000000000000000000000000000000000000986 +                                                                                                                  
21363583        84870305800000000969921062018161534515590******2270   0000000196600000000000000000000000000101000000019660220620180000161254POSC1363583        05327598986N+                                                                                                                                                                                                                                    
11363583        SRPOS848077316210620182206201803300435300130020216000000002000000000000000049100000000048437000000000000000000000663000000000000000000048437000000000000PG01011363583        00000000000000000000000000000000000000000000000000000000000000000000000000000000000000000000986 +                                                                                                                  
21363583        84807731600000000889921062018143829589916******4877   0000000195600000000000000000000000000101000000019560220620180000328353POSC1363583        05311109986N+                                                                                                                                                                                                                                    
21363583        84807731600000000889521062018132411589916******4420   0000000295400000000000000000000000000101000000029540220620180000259875POSC1363583        05311109986N+                                                                                                                                                                                                                                    
11363583        ECPOS795141659230520182206201803300435300130020216000000001000000000000000023785000000023350000000000000000000000435000000000000000000023350000000000000PG01011363583        00000000000000000000000000000000000000000000000000000000000000000000000000000000000000000000986 +                                                                                                                  
21363583        79514165900000000774123052018230258509048******5241   0000000237850000000000000000000000000101000000023785220620180000563130POSC1363583        05327598986N+                                                                                                                                                                                                                                    
11363583        SVPOS795141238230520182206201803300435300130020216000000003000000000000000039330000000038563000000000000000000000767000000000000000000038563000000000000PG01011363583        00000000000000000000000000000000000000000000000000000000000000000000000000000000000000000000986 +                                                                                                                  
21363583        79514123800000000773923052018230133441524******6357   0000000100000000000000000000000000000101000000010000220620180000020767POSC1363583        05327598986N+                                                                                                                                                                                                                                    
21363583        79514123800000000773723052018225844493100******5357   0000000199800000000000000000000000000101000000019980220620180000690434POSC1363583        05327598986N+                                                                                                                                                                                                                                    
21363583        79514123800000000774923052018231106422061******4940   0000000093500000000000000000000000000101000000009350220620180000112063POSC1363583        05327598986N+                                                                                                                                                                                                                                    
11363583        SMPOS795140248230520182206201803300435300130020216000000002000000000000000033860000000033200000000000000000000000660000000000000000000033200000000000000PG01011363583        00000000000000000000000000000000000000000000000000000000000000000000000000000000000000000000986 +                                                                                                                  
21363583        79514024800000000774323052018230333520132******1788   0000000237850000000000000000000000000101000000023785220620180000035460POSC1363583        05327598986N+                                                                                                                                                                                                                                    
21363583        79514024800000000775323052018235454549167******9940   0000000100750000000000000000000000000101000000010075220620180000077248POSC1363583        05327598986N+                                                                                                                                                                                                                                    
11363583        SMPOS795140244230520182206201803300435300130020216000000002000000000000000034800000000034122000000000000000000000678000000000000000000034122000000000000PG01011363583        00000000000000000000000000000000000000000000000000000000000000000000000000000000000000000000986 +                                                                                                                  
21363583        79514024400000000737123052018230259515590******8842   0000000174000000000000000000000000000101000000017400220620180000032865POSC1363583        05311109986N+                                                                                                                                                                                                                                    
21363583        79514024400000000736923052018230140536143******9056   0000000174000000000000000000000000000101000000017400220620180000034852POSC1363583        05311109986N+                                                                                                                                                                                                                                    
11363583        SVPOS795022014230520182206201803300435300130020216000000002000000000000000040010000000039230000000000000000000000780000000000000000000039230000000000000PG01011363583        00000000000000000000000000000000000000000000000000000000000000000000000000000000000000000000986 +                                                                                                                  
21363583        79502201400000000769923052018210051453211******7763   0000000194600000000000000000000000000101000000019460220620180000611136POSC1363583        05327598986N+                                                                                                                                                                                                                                    
21363583        79502201400000000771123052018221339406655******3402   0000000205500000000000000000000000000101000000020550220620180000640002POSC1363583        05327598986N+                                                                                                                                                                                                                                    
11363583        SMPOS795003663230520182206201803300435300130020216000000007000000000000000115685000000113429000000000000000000002256000000000000000000113429000000000000PG01011363583        00000000000000000000000000000000000000000000000000000000000000000000000000000000000000000000986 +                                                                                                                  
21363583        79500366300000000773323052018224735544731******7080   0000000075800000000000000000000000000101000000007580220620180000475162POSC1363583        05327598986N+                                                                                                                                                                                                                                    
21363583        79500366300000000770123052018210801549167******6373   0000000215350000000000000000000000000101000000021535220620180000059765POSC1363583        05327598986N+                                                                                                                                                                                                                                    
21363583        79500366300000000770723052018213545523421******6858   0000000180000000000000000000000000000101000000018000220620180000G0R7TAPOSC1363583        05327598986N+                                                                                                                                                                                                                                    
21363583        79500366300000000771723052018222000549167******7045   0000000152600000000000000000000000000101000000015260220620180000086951POSC1363583        05327598986N+                                                                                                                                                                                                                                    
21363583        79500366300000000770523052018213209515590******1174   0000000104200000000000000000000000000101000000010420220620180000323064POSC1363583        05327598986N+                                                                                                                                                                                                                                    
21363583        79500366300000000771323052018221700553636******2216   0000000210500000000000000000000000000101000000021050220620180000088563POSC1363583        05327598986N+                                                                                                                                                                                                                                    
21363583        79500366300000000771923052018222101544731******2134   0000000218400000000000000000000000000101000000021840220620180000212265POSC1363583        05327598986N+                                                                                                                                                                                                                                    
11363583        SVPOS794628466230520182206201803300435300130020216000000001000000000000000006560000000006432000000000000000000000128000000000000000000006432000000000000PG01011363583        00000000000000000000000000000000000000000000000000000000000000000000000000000000000000000000986 +                                                                                                                  
21363583        79462846600000000769123052018204122498407******1128   0000000065600000000000000000000000000101000000006560220620180000024751POSC1363583        05327598986N+                                                                                                                                                                                                                                    
11363583        SVPOS794628442230520182206201803300435300130020216000000001000000000000000015060000000014766000000000000000000000294000000000000000000014766000000000000PG01011363583        00000000000000000000000000000000000000000000000000000000000000000000000000000000000000000000986 +                                                                                                                  
21363583        79462844200000000734923052018202654415275******1116   0000000150600000000000000000000000000101000000015060220620180000088030POSC1363583        05311109986N+                                                                                                                                                                                                                                    
11363583        SMPOS794361527230520182206201803300435300130020216000000002000000000000000048995000000048039000000000000000000000956000000000000000000048039000000000000PG01011363583        00000000000000000000000000000000000000000000000000000000000000000000000000000000000000000000986 +                                                                                                                  
21363583        79436152700000000769523052018204627512215******1557   0000000150600000000000000000000000000101000000015060220620180000008900POSC1363583        05327598986N+                                                                                                                                                                                                                                    
21363583        79436152700000000769323052018204533553636******1457   0000000339350000000000000000000000000101000000033935220620180000011312POSC1363583        05327598986N+                                                                                                                                                                                                                                    
11363583        SMPOS794361500230520182206201803300435300130020216000000001000000000000000016000000000015688000000000000000000000312000000000000000000015688000000000000PG01011363583        00000000000000000000000000000000000000000000000000000000000000000000000000000000000000000000986 +                                                                                                                  
21363583        79436150000000000734323052018160635523421******3241   0000000160000000000000000000000000000101000000016000220620180000I3XRRUPOSC1363583        05311109986N+                                                                                                                                                                                                                                    
11363583        SVPOS793965397230520182206201803300435300130020216000000001000000000000000010620000000010413000000000000000000000207000000000000000000010413000000000000PG01011363583        00000000000000000000000000000000000000000000000000000000000000000000000000000000000000000000986 +                                                                                                                  
21363583        79396539700000000733923052018151244498453******0714   0000000106200000000000000000000000000101000000010620220620180000097378POSC1363583        05311109986N+                                                                                                                                                                                                                                    
11363583        SMPOS793756180230520182206201803300435300130020216000000003000000000000000028874000000028311000000000000000000000563000000000000000000028311000000000000PG01011363583        00000000000000000000000000000000000000000000000000000000000000000000000000000000000000000000986 +                                                                                                                  
21363583        79375618000000000732323052018141012550209******0044   0000000096470000000000000000000000000101000000009647220620180000J6LIEOPOSC1363583        05311109986N+                                                                                                                                                                                                                                    
21363583        79375618000000000732723052018141040520132******0595   0000000096470000000000000000000000000101000000009647220620180000110957POSC1363583        05311109986N+                                                                                                                                                                                                                                    
21363583        79375618000000000733323052018144020515590******3997   0000000095800000000000000000000000000101000000009580220620180000403880POSC1363583        05311109986N+                                                                                                                                                                                                                                    
9000000097                                                                                                                                                                                                                                                                                                                                                                                                      
