01506201803273115062018CEADM1001363583        10440482000154GETNET S.A.         000000148GSSANT. V.8.0 400 BYTES                                                                                                                                                                                                                                                                                                
11363583        ECPOS835909336140620181607201803300435300130020216000000001000000000000000002140000000002101000000000000000000000039000000000000000000002101000000000000PF01011363583        00000000000000000000000000000000000000000000000000000000000000000000000000000000000000000000986 +                                                                                                                  
21363583        83590933600000000932914062018231111506775******4771   0000000021400000000000000000000000000101000000002140160720180000050420POSC1363583        05327598986N+                                                                                                                                                                                                                                    
11363583        SMPOS835908041140620181607201803300435300130020216000000002000000000000000037220000000036494000000000000000000000726000000000000000000036494000000000000PF01011363583        00000000000000000000000000000000000000000000000000000000000000000000000000000000000000000000986 +                                                                                                                  
21363583        83590804100000000932114062018225414514945******4936   0000000172200000000000000000000000000101000000017220160720180000045665POSC1363583        05327598986N+                                                                                                                                                                                                                                    
21363583        83590804100000000932714062018231011536518******8124   0000000200000000000000000000000000000101000000020000160720180000606109POSC1363583        05327598986N+                                                                                                                                                                                                                                    
11363583        SVPOS835784583140620181607201803300435300130020216000000001000000000000000038070000000037328000000000000000000000742000000000000000000037328000000000000PF01011363583        00000000000000000000000000000000000000000000000000000000000000000000000000000000000000000000986 +                                                                                                                  
21363583        83578458300000000930914062018212556415275******3131   0000000380700000000000000000000000000101000000038070160720180000075316POSC1363583        05327598986N+                                                                                                                                                                                                                                    
11363583        SMPOS835769970140620181607201803300435300130020216000000001000000000000000019560000000019179000000000000000000000381000000000000000000019179000000000000PF01011363583        00000000000000000000000000000000000000000000000000000000000000000000000000000000000000000000986 +                                                                                                                  
21363583        83576997000000000931114062018213409529323******6106   0000000195600000000000000000000000000101000000019560160720180000019176POSC1363583        05327598986N+                                                                                                                                                                                                                                    
11363583        SMPOS835136700140620181607201803300435300130020216000000001000000000000000018970000000018600000000000000000000000370000000000000000000018600000000000000PF01011363583        00000000000000000000000000000000000000000000000000000000000000000000000000000000000000000000986 +                                                                                                                  
21363583        83513670000000000929714062018193641552693******9088   0000000189700000000000000000000000000101000000018970160720180000371373POSC1363583        05327598986N+                                                                                                                                                                                                                                    
11363583        SVPOS834701179140620181607201803300435300130020216000000003000000000000000049000000000048045000000000000000000000955000000000000000000048045000000000000PF01011363583        00000000000000000000000000000000000000000000000000000000000000000000000000000000000000000000986 +                                                                                                                  
21363583        83470117900000000929314062018142859455188******0528   0000000194600000000000000000000000000101000000019460160720180000692457POSC1363583        05327598986N+                                                                                                                                                                                                                                    
21363583        83470117900000000928914062018141115406669******7574   0000000098800000000000000000000000000101000000009880160720180000613189POSC1363583        05327598986N+                                                                                                                                                                                                                                    
21363583        83470117900000000928514062018140609490172******6459   0000000196600000000000000000000000000101000000019660160720180000035876POSC1363583        05327598986N+                                                                                                                                                                                                                                    
11363583        SMPOS834497537140620181607201803300435300130020216000000003000000000000000029490000000028914000000000000000000000576000000000000000000028914000000000000PF01011363583        00000000000000000000000000000000000000000000000000000000000000000000000000000000000000000000986 +                                                                                                                  
21363583        83449753700000000928114062018135641553636******6162   0000000097300000000000000000000000000101000000009730160720180000081320POSC1363583        05327598986N+                                                                                                                                                                                                                                    
21363583        83449753700000000929114062018141140552305******2294   0000000098800000000000000000000000000101000000009880160720180000615608POSC1363583        05327598986N+                                                                                                                                                                                                                                    
21363583        83449753700000000928714062018141045514945******9285   0000000098800000000000000000000000000101000000009880160720180000052747POSC1363583        05327598986N+                                                                                                                                                                                                                                    
11363583        SEPOS835909120140620181506201803300435300130020216000000001000000000000000017220000000016988000000000000000000000232000000000000000000016988000000000000PG01011363583        00000000000000000000000000000000000000000000000000000000000000000000000000000000000000000000986 +                                                                                                                  
21363583        83590912000000000932314062018225442482481******5855   0000000172200000000000000000000000000101000000017220150620180000114594POSC1363583        05327598986N+                                                                                                                                                                                                                                    
11363583        SEPOS835790731140620181506201803300435300130020216000000001000000000000000022950000000022640000000000000000000000310000000000000000000022640000000000000PG01011363583        00000000000000000000000000000000000000000000000000000000000000000000000000000000000000000000986 +                                                                                                                  
21363583        83579073100000000931314062018213942476608******1301   0000000229500000000000000000000000000101000000022950150620180000215378POSC1363583        05327598986N+                                                                                                                                                                                                                                    
11363583        SRPOS835777271140620181506201803300435300130020216000000003000000000000000028995000000028603000000000000000000000392000000000000000000028603000000000000PG01011363583        00000000000000000000000000000000000000000000000000000000000000000000000000000000000000000000986 +                                                                                                                  
21363583        83577727100000000930514062018210716523284******9184   0000000098300000000000000000000000000101000000009830150620180000572243POSC1363583        05327598986N+                                                                                                                                                                                                                                    
21363583        83577727100000000931514062018220459526863******5504   0000000093850000000000000000000000000101000000009385150620180000593611POSC1363583        05327598986N+                                                                                                                                                                                                                                    
21363583        83577727100000000931914062018223240589916******2143   0000000097800000000000000000000000000101000000009780150620180000598840POSC1363583        05327598986N+                                                                                                                                                                                                                                    
11363583        SRPOS835289538140620181506201803300435300130020216000000002000000000000000021140000000020854000000000000000000000286000000000000000000020854000000000000PG01011363583        00000000000000000000000000000000000000000000000000000000000000000000000000000000000000000000986 +                                                                                                                  
21363583        83528953800000000930114062018203245542820******9002   0000000105700000000000000000000000000101000000010570150620180000330360POSC1363583        05327598986N+                                                                                                                                                                                                                                    
21363583        83528953800000000929914062018203219589916******9598   0000000105700000000000000000000000000101000000010570150620180000553557POSC1363583        05327598986N+                                                                                                                                                                                                                                    
11363583        SRPOS834599000140620181506201803300435300130020216000000001000000000000000025835000000025486000000000000000000000349000000000000000000025486000000000000PG01011363583        00000000000000000000000000000000000000000000000000000000000000000000000000000000000000000000986 +                                                                                                                  
21363583        83459900000000000927714062018133828589916******1350   0000000258350000000000000000000000000101000000025835150620180000241669POSC1363583        05327598986N+                                                                                                                                                                                                                                    
11363583        SVPOS781802240160520181506201803300435300130020216000000002000000000000000016510000000016188000000000000000000000322000000000000000000016188000000000000PG01011363583        00000000000000000000000000000000000000000000000000000000000000000000000000000000000000000000986 +                                                                                                                  
21363583        78180224000000000701316052018225639422061******8156   0000000082550000000000000000000000000101000000008255150620180000571252POSC1363583        05311109986N+                                                                                                                                                                                                                                    
21363583        78180224000000000701516052018225724422061******2218   0000000082550000000000000000000000000101000000008255150620180000575154POSC1363583        05311109986N+                                                                                                                                                                                                                                    
11363583        SVPOS781684810160520181506201803300435300130020216000000008000000000000000126337000000123874000000000000000000002463000000000000000000123874000000000000PG01011363583        00000000000000000000000000000000000000000000000000000000000000000000000000000000000000000000986 +                                                                                                                  
21363583        78168481000000000717516052018212926459314******4251   0000000100000000000000000000000000000101000000010000150620180000020509POSC1363583        05327598986N+                                                                                                                                                                                                                                    
21363583        78168481000000000718916052018214708498406******8069   0000000209550000000000000000000000000101000000020955150620180000893066POSC1363583        05327598986N+                                                                                                                                                                                                                                    
21363583        78168481000000000720716052018220643406655******3268   0000000221250000000000000000000000000101000000022125150620180000670707POSC1363583        05327598986N+                                                                                                                                                                                                                                    
21363583        78168481000000000721316052018222009422061******9912   0000000195500000000000000000000000000101000000019550150620180000202767POSC1363583        05327598986N+                                                                                                                                                                                                                                    
21363583        78168481000000000719516052018215656441524******5790   0000000075600000000000000000000000000101000000007560150620180000571752POSC1363583        05327598986N+                                                                                                                                                                                                                                    
21363583        78168481000000000716516052018212105415275******5323   0000000176920000000000000000000000000101000000017692150620180000064910POSC1363583        05327598986N+                                                                                                                                                                                                                                    
21363583        78168481000000000719716052018215727441524******5790   0000000075000000000000000000000000000101000000007500150620180000574452POSC1363583        05327598986N+                                                                                                                                                                                                                                    
21363583        78168481000000000718716052018214634415275******7127   0000000209550000000000000000000000000101000000020955150620180000074976POSC1363583        05327598986N+                                                                                                                                                                                                                                    
11363583        SMPOS781669097160520181506201803300435300130020216000000004000000000000000048910000000047956000000000000000000000954000000000000000000047956000000000000PG01011363583        00000000000000000000000000000000000000000000000000000000000000000000000000000000000000000000986 +                                                                                                                  
21363583        78166909700000000718316052018213258532930******9116   0000000156530000000000000000000000000101000000015653150620180000F85520POSC1363583        05327598986N+                                                                                                                                                                                                                                    
21363583        78166909700000000721516052018222105522840******7929   0000000146610000000000000000000000000101000000014661150620180000212167POSC1363583        05327598986N+                                                                                                                                                                                                                                    
21363583        78166909700000000719116052018215214536805******8556   0000000107700000000000000000000000000101000000010770150620180000623184POSC1363583        05327598986N+                                                                                                                                                                                                                                    
21363583        78166909700000000718516052018213342532930******9116   0000000078260000000000000000000000000101000000007826150620180000F85618POSC1363583        05327598986N+                                                                                                                                                                                                                                    
11363583        SVPOS781270007160520181506201803300435300130020216000000001000000000000000016050000000015737000000000000000000000313000000000000000000015737000000000000PG01011363583        00000000000000000000000000000000000000000000000000000000000000000000000000000000000000000000986 +                                                                                                                  
21363583        78127000700000000715516052018203524476608******1102   0000000160500000000000000000000000000101000000016050150620180000654640POSC1363583        05327598986N+                                                                                                                                                                                                                                    
11363583        SMPOS781059443160520181506201803300435300130020216000000001000000000000000014070000000013796000000000000000000000274000000000000000000013796000000000000PG01011363583        00000000000000000000000000000000000000000000000000000000000000000000000000000000000000000000986 +                                                                                                                  
21363583        78105944300000000715716052018204621514945******1164   0000000140700000000000000000000000000101000000014070150620180000064507POSC1363583        05327598986N+                                                                                                                                                                                                                                    
11363583        SVPOS780662912160520181506201803300435300130020216000000001000000000000000010915000000010702000000000000000000000213000000000000000000010702000000000000PG01011363583        00000000000000000000000000000000000000000000000000000000000000000000000000000000000000000000986 +                                                                                                                  
21363583        78066291200000000713316052018142036406655******5472   0000000109150000000000000000000000000101000000010915150620180000605409POSC1363583        05327598986N+                                                                                                                                                                                                                                    
11363583        SMPOS780453764160520181506201803300435300130020216000000003000000000000000046398000000045493000000000000000000000905000000000000000000045493000000000000PG01011363583        00000000000000000000000000000000000000000000000000000000000000000000000000000000000000000000986 +                                                                                                                  
21363583        78045376400000000713516052018142124559523******5056   0000000109150000000000000000000000000101000000010915150620180000033225POSC1363583        05327598986N+                                                                                                                                                                                                                                    
21363583        78045376400000000714516052018154403522840******4902   0000000256400000000000000000000000000101000000025640150620180000442356POSC1363583        05327598986N+                                                                                                                                                                                                                                    
21363583        78045376400000000714116052018150102541555******2040   0000000098430000000000000000000000000101000000009843150620180000041318POSC1363583        05327598986N+                                                                                                                                                                                                                                    
9000000061                                                                                                                                                                                                                                                                                                                                                                                                      
