01706201803061017062018CEADM1001363583        10440482000154GETNET S.A.         000000150GSSANT. V.8.0 400 BYTES                                                                                                                                                                                                                                                                                                
11363583        EDPOS840427635160620181806201803300435300130020216000000002000000000000000022145000000021802000000000000000000000343000000000000000000021802000000000000PF01011363583        00000000000000000000000000000000000000000000000000000000000000000000000000000000000000000000986 +                                                                                                                  
21363583        84042763500000000945516062018225900509065******2107   0000000118200000000000000000000000000101000000011820180620180000244299POSC1363583        05327598986N+                                                                                                                                                                                                                                    
21363583        84042763500000000946516062018230816627780******2165   0000000103250000000000000000000000000101000000010325180620180000725842POSC1363583        05327598986N+                                                                                                                                                                                                                                    
11363583        EDPOS840427630160620181806201803300435300130020216000000001000000000000000024920000000024534000000000000000000000386000000000000000000024534000000000000PF01011363583        00000000000000000000000000000000000000000000000000000000000000000000000000000000000000000000986 +                                                                                                                  
21363583        84042763000000000869516062018233802506731******8205   0000000249200000000000000000000000000101000000024920180620180000245442POSC1363583        05311109986N+                                                                                                                                                                                                                                    
11363583        SEPOS840426341160620181806201803300435300130020216000000001000000000000000019560000000019296000000000000000000000264000000000000000000019296000000000000PF01011363583        00000000000000000000000000000000000000000000000000000000000000000000000000000000000000000000986 +                                                                                                                  
21363583        84042634100000000946916062018231428410391******4133   0000000195600000000000000000000000000101000000019560180620180000244873POSC1363583        05327598986N+                                                                                                                                                                                                                                    
11363583        SEPOS840426334160620181806201803300435300130020216000000002000000000000000031310000000030887000000000000000000000423000000000000000000030887000000000000PF01011363583        00000000000000000000000000000000000000000000000000000000000000000000000000000000000000000000986 +                                                                                                                  
21363583        84042633400000000868316062018232141482476******9134   0000000210400000000000000000000000000101000000021040180620180000141381POSC1363583        05311109986N+                                                                                                                                                                                                                                    
21363583        84042633400000000866316062018230331439276******5595   0000000102700000000000000000000000000101000000010270180620180000245084POSC1363583        05311109986N+                                                                                                                                                                                                                                    
11363583        SVPOS840425492160620181607201803300435300130020216000000001000000000000000040900000000040102000000000000000000000798000000000000000000040102000000000000PF01011363583        00000000000000000000000000000000000000000000000000000000000000000000000000000000000000000000986 +                                                                                                                  
21363583        84042549200000000867116062018230827489391******9025   0000000409000000000000000000000000000101000000040900160720180000026957POSC1363583        05311109986N+                                                                                                                                                                                                                                    
11363583        SRPOS840424025160620181806201803300435300130020216000000004000000000000000072265000000071290000000000000000000000975000000000000000000071290000000000000PF01011363583        00000000000000000000000000000000000000000000000000000000000000000000000000000000000000000000986 +                                                                                                                  
21363583        84042402500000000946716062018230910523284******8969   0000000103250000000000000000000000000101000000010325180620180000782921POSC1363583        05327598986N+                                                                                                                                                                                                                                    
21363583        84042402500000000945716062018225947552693******8641   0000000203500000000000000000000000000101000000020350180620180000000670POSC1363583        05327598986N+                                                                                                                                                                                                                                    
21363583        84042402500000000945916062018230238552693******8241   0000000214400000000000000000000000000101000000021440180620180000030573POSC1363583        05327598986N+                                                                                                                                                                                                                                    
21363583        84042402500000000947316062018232159603689*********00400000000201500000000000000000000000000101000000020150180620180000983312POSC1363583        05327598986N+                                                                                                                                                                                                                                    
11363583        SRPOS840424016160620181806201803300435300130020216000000006000000000000000073356000000072364000000000000000000000992000000000000000000072364000000000000PF01011363583        00000000000000000000000000000000000000000000000000000000000000000000000000000000000000000000986 +                                                                                                                  
21363583        84042401600000000869716062018234931549167******0824   0000000203500000000000000000000000000101000000020350180620180000793308POSC1363583        05311109986N+                                                                                                                                                                                                                                    
21363583        84042401600000000867716062018231535589916******0031   0000000031700000000000000000000000000101000000003170180620180000782586POSC1363583        05311109986N+                                                                                                                                                                                                                                    
21363583        84042401600000000866916062018230523589916******9593   0000000062700000000000000000000000000101000000006270180620180000779780POSC1363583        05311109986N+                                                                                                                                                                                                                                    
21363583        84042401600000000868116062018232026589916******5833   0000000111800000000000000000000000000101000000011180180620180000785856POSC1363583        05311109986N+                                                                                                                                                                                                                                    
21363583        84042401600000000867316062018230927589916******7907   0000000204160000000000000000000000000101000000020416180620180000780909POSC1363583        05311109986N+                                                                                                                                                                                                                                    
21363583        84042401600000000868716062018232330549167******1584   0000000119700000000000000000000000000101000000011970180620180000787347POSC1363583        05311109986N+                                                                                                                                                                                                                                    
11363583        SMPOS840422471160620181607201803300435300130020216000000002000000000000000031663000000031046000000000000000000000617000000000000000000031046000000000000PF01011363583        00000000000000000000000000000000000000000000000000000000000000000000000000000000000000000000986 +                                                                                                                  
21363583        84042247100000000946116062018230312545377******4083   0000000214400000000000000000000000000101000000021440160720180000418816POSC1363583        05327598986N+                                                                                                                                                                                                                                    
21363583        84042247100000000947516062018235017552236******6880   0000000102230000000000000000000000000101000000010223160720180000073754POSC1363583        05327598986N+                                                                                                                                                                                                                                    
11363583        SMPOS840422464160620181607201803300435300130020216000000003000000000000000035510000000034817000000000000000000000693000000000000000000034817000000000000PF01011363583        00000000000000000000000000000000000000000000000000000000000000000000000000000000000000000000986 +                                                                                                                  
21363583        84042246400000000867916062018231900542820******4577   0000000202500000000000000000000000000101000000020250160720180000192674POSC1363583        05311109986N+                                                                                                                                                                                                                                    
21363583        84042246400000000867516062018231023523421******2307   0000000100000000000000000000000000000101000000010000160720180000T0NGCQPOSC1363583        05311109986N+                                                                                                                                                                                                                                    
21363583        84042246400000000868916062018233047553639******7134   0000000052600000000000000000000000000101000000005260160720180000047635POSC1363583        05311109986N+                                                                                                                                                                                                                                    
11363583        SMPOS840422459160620181607201803300435300130020216000000001000000000000000010223000000010024000000000000000000000199000000000000000000010024000000000000PF01011363583        00000000000000000000000000000000000000000000000000000000000000000000000000000000000000000000986 +                                                                                                                  
21363583        84042245900000000947716062018235051551029******0998   0000000102230000000000000000000000000101000000010223160720180000226995POSC1363583        05327598986E+                                                                                                                                                                                                                                    
11363583        SEPOS840265715160620181806201803300435300130020216000000001000000000000000027265000000026897000000000000000000000368000000000000000000026897000000000000PF01011363583        00000000000000000000000000000000000000000000000000000000000000000000000000000000000000000000986 +                                                                                                                  
21363583        84026571500000000944716062018211632498453******2598   0000000272650000000000000000000000000101000000027265180620180000376611POSC1363583        05327598986N+                                                                                                                                                                                                                                    
11363583        SEPOS840265682160620181806201803300435300130020216000000004000000000000000067260000000066352000000000000000000000908000000000000000000066352000000000000PF01011363583        00000000000000000000000000000000000000000000000000000000000000000000000000000000000000000000986 +                                                                                                                  
21363583        84026568200000000864716062018222741476608******8305   0000000114750000000000000000000000000101000000011475180620180000244488POSC1363583        05311109986N+                                                                                                                                                                                                                                    
21363583        84026568200000000865716062018223709483042******5203   0000000097800000000000000000000000000101000000009780180620180000244301POSC1363583        05311109986N+                                                                                                                                                                                                                                    
21363583        84026568200000000863916062018215217490172******2653   0000000308200000000000000000000000000101000000030820180620180000137128POSC1363583        05311109986N+                                                                                                                                                                                                                                    
21363583        84026568200000000864516062018221219476608******9302   0000000151850000000000000000000000000101000000015185180620180000244328POSC1363583        05311109986N+                                                                                                                                                                                                                                    
11363583        SVPOS840256108160620181607201803300435300130020216000000002000000000000000039405000000038636000000000000000000000769000000000000000000038636000000000000PF01011363583        00000000000000000000000000000000000000000000000000000000000000000000000000000000000000000000986 +                                                                                                                  
21363583        84025610800000000944516062018211604490172******0283   0000000272650000000000000000000000000101000000027265160720180000025571POSC1363583        05327598986N+                                                                                                                                                                                                                                    
21363583        84025610800000000943916062018210022406655******9690   0000000121400000000000000000000000000101000000012140160720180000604299POSC1363583        05327598986N+                                                                                                                                                                                                                                    
11363583        SVPOS840256072160620181607201803300435300130020216000000003000000000000000101260000000099286000000000000000000001974000000000000000000099286000000000000PF01011363583        00000000000000000000000000000000000000000000000000000000000000000000000000000000000000000000986 +                                                                                                                  
21363583        84025607200000000865916062018223804422061******7039   0000000212400000000000000000000000000101000000021240160720180000383265POSC1363583        05311109986N+                                                                                                                                                                                                                                    
21363583        84025607200000000862716062018210926459080******9756   0000000416650000000000000000000000000101000000041665160720180000005467POSC1363583        05311109986N+                                                                                                                                                                                                                                    
21363583        84025607200000000863116062018212450403225******4312   0000000383550000000000000000000000000101000000038355160720180000758638POSC1363583        05311109986N+                                                                                                                                                                                                                                    
11363583        SRPOS840243223160620181806201803300435300130020216000000003000000000000000040165000000039623000000000000000000000542000000000000000000039623000000000000PF01011363583        00000000000000000000000000000000000000000000000000000000000000000000000000000000000000000000986 +                                                                                                                  
21363583        84024322300000000945116062018212818523284******8114   0000000015800000000000000000000000000101000000001580180620180000740178POSC1363583        05327598986N+                                                                                                                                                                                                                                    
21363583        84024322300000000944116062018210826589916******7463   0000000200000000000000000000000000000101000000020000180620180000729647POSC1363583        05327598986N+                                                                                                                                                                                                                                    
21363583        84024322300000000944316062018210933515590******2078   0000000185850000000000000000000000000101000000018585180620180000095666POSC1363583        05327598986N+                                                                                                                                                                                                                                    
11363583        SRPOS840243152160620181806201803300435300130020216000000005000000000000000068640000000067713000000000000000000000927000000000000000000067713000000000000PF01011363583        00000000000000000000000000000000000000000000000000000000000000000000000000000000000000000000986 +                                                                                                                  
21363583        84024315200000000864116062018215943589916******6018   0000000217500000000000000000000000000101000000021750180620180000755850POSC1363583        05311109986N+                                                                                                                                                                                                                                    
21363583        84024315200000000863516062018213603524820******9601   0000000111250000000000000000000000000101000000011125180620180000746891POSC1363583        05311109986N+                                                                                                                                                                                                                                    
21363583        84024315200000000865316062018223122502121******9364   0000000019500000000000000000000000000101000000001950180620180000314556POSC1363583        05311109986N+                                                                                                                                                                                                                                    
21363583        84024315200000000864316062018220928589916******2569   0000000223400000000000000000000000000101000000022340180620180000760809POSC1363583        05311109986N+                                                                                                                                                                                                                                    
21363583        84024315200000000864916062018222814526863******4175   0000000114750000000000000000000000000101000000011475180620180000767862POSC1363583        05311109986N+                                                                                                                                                                                                                                    
11363583        SMPOS840230695160620181607201803300435300130020216000000003000000000000000068145000000066816000000000000000000001329000000000000000000066816000000000000PF01011363583        00000000000000000000000000000000000000000000000000000000000000000000000000000000000000000000986 +                                                                                                                  
21363583        84023069500000000866116062018223916553636******9205   0000000203500000000000000000000000000101000000020350160720180000086026POSC1363583        05311109986N+                                                                                                                                                                                                                                    
21363583        84023069500000000865116062018223019546479******6326   0000000268350000000000000000000000000101000000026835160720180000006874POSC1363583        05311109986N+                                                                                                                                                                                                                                    
21363583        84023069500000000862916062018212351544828******1799   0000000209600000000000000000000000000101000000020960160720180000597676POSC1363583        05311109986N+                                                                                                                                                                                                                                    
11363583        EDPOS840091480160620181806201803300435300130020216000000001000000000000000010000000000009845000000000000000000000155000000000000000000009845000000000000PF01011363583        00000000000000000000000000000000000000000000000000000000000000000000000000000000000000000000986 +                                                                                                                  
21363583        84009148000000000942516062018173218506775******0316   0000000100000000000000000000000000000101000000010000180620180000667031POSC1363583        05327598986N+                                                                                                                                                                                                                                    
11363583        SEPOS840024117160620181806201803300435300130020216000000002000000000000000040310000000039766000000000000000000000544000000000000000000039766000000000000PF01011363583        00000000000000000000000000000000000000000000000000000000000000000000000000000000000000000000986 +                                                                                                                  
21363583        84002411700000000943516062018201758498407******9454   0000000205500000000000000000000000000101000000020550180620180000173095POSC1363583        05327598986N+                                                                                                                                                                                                                                    
21363583        84002411700000000943716062018202148476608******8402   0000000197600000000000000000000000000101000000019760180620180000242972POSC1363583        05327598986N+                                                                                                                                                                                                                                    
11363583        SVPOS839935650160620181607201803300435300130020216000000002000000000000000033700000000033043000000000000000000000657000000000000000000033043000000000000PF01011363583        00000000000000000000000000000000000000000000000000000000000000000000000000000000000000000000986 +                                                                                                                  
21363583        83993565000000000942316062018172809490172******9491   0000000141600000000000000000000000000101000000014160160720180000068724POSC1363583        05327598986N+                                                                                                                                                                                                                                    
21363583        83993565000000000942716062018173306409602******9948   0000000195400000000000000000000000000101000000019540160720180000633231POSC1363583        05327598986N+                                                                                                                                                                                                                                    
11363583        SMPOS839732281160620181607201803300435300130020216000000002000000000000000040320000000039534000000000000000000000786000000000000000000039534000000000000PF01011363583        00000000000000000000000000000000000000000000000000000000000000000000000000000000000000000000986 +                                                                                                                  
21363583        83973228100000000943316062018200319553636******7990   0000000201700000000000000000000000000101000000020170160720180000021498POSC1363583        05327598986N+                                                                                                                                                                                                                                    
21363583        83973228100000000943116062018195452553636******9815   0000000201500000000000000000000000000101000000020150160720180000097766POSC1363583        05327598986N+                                                                                                                                                                                                                                    
11363583        EDPOS839460039160620181806201803300435300130020216000000001000000000000000010770000000010603000000000000000000000167000000000000000000010603000000000000PF01011363583        00000000000000000000000000000000000000000000000000000000000000000000000000000000000000000000986 +                                                                                                                  
21363583        83946003900000000940716062018145811650494******9103   0000000107700000000000000000000000000101000000010770180620180000240017POSC1363583        05327598986N+                                                                                                                                                                                                                                    
11363583        SEPOS839372314160620181806201803300435300130020216000000001000000000000000011165000000011014000000000000000000000151000000000000000000011014000000000000PF01011363583        00000000000000000000000000000000000000000000000000000000000000000000000000000000000000000000986 +                                                                                                                  
21363583        83937231400000000939316062018135327493102******5859   0000000111650000000000000000000000000101000000011165180620180000238806POSC1363583        05327598986N+                                                                                                                                                                                                                                    
11363583        SVPOS839253142160620181607201803300435300130020216000000002000000000000000026530000000026012000000000000000000000518000000000000000000026012000000000000PF01011363583        00000000000000000000000000000000000000000000000000000000000000000000000000000000000000000000986 +                                                                                                                  
21363583        83925314200000000940116062018141132490172******3677   0000000205500000000000000000000000000101000000020550160720180000086258POSC1363583        05327598986N+                                                                                                                                                                                                                                    
21363583        83925314200000000938916062018132013490172******8894   0000000059800000000000000000000000000101000000005980160720180000034585POSC1363583        05327598986N+                                                                                                                                                                                                                                    
11363583        SRPOS839147873160620181806201803300435300130020216000000005000000000000000072310000000071334000000000000000000000976000000000000000000071334000000000000PF01011363583        00000000000000000000000000000000000000000000000000000000000000000000000000000000000000000000986 +                                                                                                                  
21363583        83914787300000000941316062018152016515590******9728   0000000100000000000000000000000000000101000000010000180620180000203274POSC1363583        05327598986N+                                                                                                                                                                                                                                    
21363583        83914787300000000941116062018151921589916******4788   0000000118050000000000000000000000000101000000011805180620180000444222POSC1363583        05327598986N+                                                                                                                                                                                                                                    
21363583        83914787300000000939716062018140016514945******5620   0000000203500000000000000000000000000101000000020350180620180000362933POSC1363583        05327598986N+                                                                                                                                                                                                                                    
21363583        83914787300000000940316062018141517603689*********49700000000189900000000000000000000000000101000000018990180620180000931474POSC1363583        05327598986N+                                                                                                                                                                                                                                    
21363583        83914787300000000939516062018135349522840******1884   0000000111650000000000000000000000000101000000011165180620180000540666POSC1363583        05327598986N+                                                                                                                                                                                                                                    
11363583        SMPOS838993808160620181607201803300435300130020216000000005000000000000000111450000000109277000000000000000000002173000000000000000000109277000000000000PF01011363583        00000000000000000000000000000000000000000000000000000000000000000000000000000000000000000000986 +                                                                                                                  
21363583        83899380800000000939116062018132258522840******3879   0000000198500000000000000000000000000101000000019850160720180000231376POSC1363583        05327598986N+                                                                                                                                                                                                                                    
21363583        83899380800000000941716062018153506549167******9960   0000000253950000000000000000000000000101000000025395160720180000084903POSC1363583        05327598986N+                                                                                                                                                                                                                                    
21363583        83899380800000000941516062018152815515590******8054   0000000203600000000000000000000000000101000000020360160720180000283264POSC1363583        05327598986N+                                                                                                                                                                                                                                    
21363583        83899380800000000940516062018145017523421******7162   0000000262850000000000000000000000000101000000026285160720180000PGR08DPOSC1363583        05327598986N+                                                                                                                                                                                                                                    
21363583        83899380800000000940916062018150349523421******5004   0000000195600000000000000000000000000101000000019560160720180000WVK6FFPOSC1363583        05327598986N+                                                                                                                                                                                                                                    
11363583        SEPOS838785838160620181806201803300435300130020216000000001000000000000000011790000000011631000000000000000000000159000000000000000000011631000000000000PF01011363583        00000000000000000000000000000000000000000000000000000000000000000000000000000000000000000000986 +                                                                                                                  
21363583        83878583800000000937115062018235925439267******8686   0000000117900000000000000000000000000101000000011790180620180000351361POSC1363583        05327598986N+                                                                                                                                                                                                                                    
11363583        SRPOS838603672160620181806201803300435300130020216000000001000000000000000020650000000020371000000000000000000000279000000000000000000020371000000000000PF01011363583        00000000000000000000000000000000000000000000000000000000000000000000000000000000000000000000986 +                                                                                                                  
21363583        83860367200000000938116062018000353525662******7907   0000000206500000000000000000000000000101000000020650180620180000748253POSC1363583        05327598986N+                                                                                                                                                                                                                                    
11363583        SMPOS838363101160620181607201803300435300130020216000000001000000000000000020650000000020247000000000000000000000403000000000000000000020247000000000000PF01011363583        00000000000000000000000000000000000000000000000000000000000000000000000000000000000000000000986 +                                                                                                                  
21363583        83836310100000000938316062018000432515590******4155   0000000206500000000000000000000000000101000000020650160720180000050460POSC1363583        05327598986N+                                                                                                                                                                                                                                    
9000000099                                                                                                                                                                                                                                                                                                                                                                                                      
