02006201802530220062018CEADM1001363583        10440482000154GETNET S.A.         000000153GSSANT. V.8.0 400 BYTES                                                                                                                                                                                                                                                                                                
11363583        SVPOS845277635190620181907201803300435300130020216000000001000000000000000023610000000023150000000000000000000000460000000000000000000023150000000000000PF01011363583        00000000000000000000000000000000000000000000000000000000000000000000000000000000000000000000986 +                                                                                                                  
21363583        84527763500000000960319062018231358498406******4240   0000000236100000000000000000000000000101000000023610190720180000897116POSC1363583        05327598986N+                                                                                                                                                                                                                                    
11363583        SMPOS845277161190620181907201803300435300130020216000000001000000000000000014865000000014575000000000000000000000290000000000000000000014575000000000000PF01011363583        00000000000000000000000000000000000000000000000000000000000000000000000000000000000000000000986 +                                                                                                                  
21363583        84527716100000000960119062018231257512267******9125   0000000148650000000000000000000000000101000000014865190720180000R19258POSC1363583        05327598986N+                                                                                                                                                                                                                                    
11363583        SMPOS845277159190620181907201803300435300130020216000000001000000000000000016445000000016124000000000000000000000321000000000000000000016124000000000000PF01011363583        00000000000000000000000000000000000000000000000000000000000000000000000000000000000000000000986 +                                                                                                                  
21363583        84527715900000000882119062018225147542974******9135   0000000164450000000000000000000000000101000000016445190720180000088551POSC1363583        05311109986N+                                                                                                                                                                                                                                    
11363583        ACPOS845178605190620181907201803300435300130020216000000001000000000000000016245000000015754000000000000000000000491000000000000000000015754000000000000PF01011363583        00000000000000000000000000000000000000000000000000000000000000000000000000000000000000000000986 +                                                                                                                  
21363583        84517860500000000878119062018211402376606*****1000    0000000162450000000000000000000000000101000000016245190720180000869488POSC1363583        05311109986N+                                                                                                                                                                                                                                    
11363583        SVPOS845170534190620181907201803300435300130020216000000004000000000000000069535000000068178000000000000000000001357000000000000000000068178000000000000PF01011363583        00000000000000000000000000000000000000000000000000000000000000000000000000000000000000000000986 +                                                                                                                  
21363583        84517053400000000958919062018223756439013******1036   0000000077300000000000000000000000000101000000007730190720180000081622POSC1363583        05327598986N+                                                                                                                                                                                                                                    
21363583        84517053400000000959319062018223856406168******1462   0000000077300000000000000000000000000101000000007730190720180000054601POSC1363583        05327598986N+                                                                                                                                                                                                                                    
21363583        84517053400000000957719062018213114421962******5334   0000000389100000000000000000000000000101000000038910190720180000417841POSC1363583        05327598986N+                                                                                                                                                                                                                                    
21363583        84517053400000000956519062018210842410863******7170   0000000151650000000000000000000000000101000000015165190720180000090467POSC1363583        05327598986N+                                                                                                                                                                                                                                    
11363583        SVPOS845170520190620181907201803300435300130020216000000002000000000000000038310000000037562000000000000000000000748000000000000000000037562000000000000PF01011363583        00000000000000000000000000000000000000000000000000000000000000000000000000000000000000000000986 +                                                                                                                  
21363583        84517052000000000881719062018224902415275******8123   0000000050000000000000000000000000000101000000005000190720180000085986POSC1363583        05311109986N+                                                                                                                                                                                                                                    
21363583        84517052000000000879919062018220817476608******1102   0000000333100000000000000000000000000101000000033310190720180000685213POSC1363583        05311109986N+                                                                                                                                                                                                                                    
11363583        SMPOS845158385190620181907201803300435300130020216000000005000000000000000079503000000077953000000000000000000001550000000000000000000077953000000000000PF01011363583        00000000000000000000000000000000000000000000000000000000000000000000000000000000000000000000986 +                                                                                                                  
21363583        84515838500000000957119062018211834515590******2052   0000000088180000000000000000000000000101000000008818190720180000190655POSC1363583        05327598986N+                                                                                                                                                                                                                                    
21363583        84515838500000000956919062018211438522840******1854   0000000151200000000000000000000000000101000000015120190720180000145969POSC1363583        05327598986N+                                                                                                                                                                                                                                    
21363583        84515838500000000957519062018212729522840******0129   0000000148650000000000000000000000000101000000014865190720180000275455POSC1363583        05327598986N+                                                                                                                                                                                                                                    
21363583        84515838500000000958319062018222625514945******5041   0000000248450000000000000000000000000101000000024845190720180000044793POSC1363583        05327598986N+                                                                                                                                                                                                                                    
21363583        84515838500000000959919062018224622516292******8578   0000000158550000000000000000000000000101000000015855190720180000JN18E8POSC1363583        05327598986N+                                                                                                                                                                                                                                    
11363583        SMPOS845158373190620181907201803300435300130020216000000001000000000000000037370000000036641000000000000000000000729000000000000000000036641000000000000PF01011363583        00000000000000000000000000000000000000000000000000000000000000000000000000000000000000000000986 +                                                                                                                  
21363583        84515837300000000879719062018220047512363******9762   0000000373700000000000000000000000000101000000037370190720180000013517POSC1363583        05311109986N+                                                                                                                                                                                                                                    
11363583        SVPOS844779897190620181907201803300435300130020216000000002000000000000000049055000000048098000000000000000000000957000000000000000000048098000000000000PF01011363583        00000000000000000000000000000000000000000000000000000000000000000000000000000000000000000000986 +                                                                                                                  
21363583        84477989700000000955719062018204400432729******7339   0000000254350000000000000000000000000101000000025435190720180000742208POSC1363583        05327598986N+                                                                                                                                                                                                                                    
21363583        84477989700000000955519062018202952470598******4378   0000000236200000000000000000000000000101000000023620190720180000043415POSC1363583        05327598986N+                                                                                                                                                                                                                                    
11363583        SMPOS844551980190620181907201803300435300130020216000000002000000000000000015165000000014869000000000000000000000296000000000000000000014869000000000000PF01011363583        00000000000000000000000000000000000000000000000000000000000000000000000000000000000000000000986 +                                                                                                                  
21363583        84455198000000000955119062018202133529323******4939   0000000098900000000000000000000000000101000000009890190720180000022986POSC1363583        05327598986N+                                                                                                                                                                                                                                    
21363583        84455198000000000955319062018202228523421******3025   0000000052750000000000000000000000000101000000005275190720180000B36SSDPOSC1363583        05327598986N+                                                                                                                                                                                                                                    
11363583        SMPOS844551937190620181907201803300435300130020216000000001000000000000000022340000000021904000000000000000000000436000000000000000000021904000000000000PF01011363583        00000000000000000000000000000000000000000000000000000000000000000000000000000000000000000000986 +                                                                                                                  
21363583        84455193700000000877719062018204800531001******3488   0000000223400000000000000000000000000101000000022340190720180000314680POSC1363583        05311109986E+                                                                                                                                                                                                                                    
11363583        ACPOS844422416190620181907201803300435300130020216000000001000000000000000014865000000014416000000000000000000000449000000000000000000014416000000000000PF01011363583        00000000000000000000000000000000000000000000000000000000000000000000000000000000000000000000986 +                                                                                                                  
21363583        84442241600000000953919062018144647377169*****2001    0000000148650000000000000000000000000101000000014865190720180000670896POSC1363583        05327598986N+                                                                                                                                                                                                                                    
11363583        SVPOS844268222190620181907201803300435300130020216000000002000000000000000013530000000013266000000000000000000000264000000000000000000013266000000000000PF01011363583        00000000000000000000000000000000000000000000000000000000000000000000000000000000000000000000986 +                                                                                                                  
21363583        84426822200000000953519062018125137498408******1257   0000000033800000000000000000000000000101000000003380190720180000082131POSC1363583        05327598986N+                                                                                                                                                                                                                                    
21363583        84426822200000000954319062018153940428267******4018   0000000101500000000000000000000000000101000000010150190720180000080317POSC1363583        05327598986N+                                                                                                                                                                                                                                    
11363583        SMPOS843963403190620181907201803300435300130020216000000002000000000000000014370000000014090000000000000000000000280000000000000000000014090000000000000PF01011363583        00000000000000000000000000000000000000000000000000000000000000000000000000000000000000000000986 +                                                                                                                  
21363583        84396340300000000954119062018150147516230******0999   0000000043700000000000000000000000000101000000004370190720180000L6EYJSPOSC1363583        05327598986N+                                                                                                                                                                                                                                    
21363583        84396340300000000954519062018154015553636******2721   0000000100000000000000000000000000000101000000010000190720180000075571POSC1363583        05327598986N+                                                                                                                                                                                                                                    
11363583        SMPOS843469402190620181907201803300435300130020216000000001000000000000000023470000000023012000000000000000000000458000000000000000000023012000000000000PF01011363583        00000000000000000000000000000000000000000000000000000000000000000000000000000000000000000000986 +                                                                                                                  
21363583        84346940200000000953119062018001149536805******7230   0000000234700000000000000000000000000101000000023470190720180000621918POSC1363583        05327598986N+                                                                                                                                                                                                                                    
11363583        SEPOS845277816190620182006201803300435300130020216000000002000000000000000033320000000032871000000000000000000000449000000000000000000032871000000000000PG01011363583        00000000000000000000000000000000000000000000000000000000000000000000000000000000000000000000986 +                                                                                                                  
21363583        84527781600000000882519062018230859409602******4121   0000000249900000000000000000000000000101000000024990200620180000287842POSC1363583        05311109986N+                                                                                                                                                                                                                                    
21363583        84527781600000000883319062018231321498453******6791   0000000083300000000000000000000000000101000000008330200620180000183630POSC1363583        05311109986N+                                                                                                                                                                                                                                    
11363583        SRPOS845277389190620182006201803300435300130020216000000004000000000000000033320000000032872000000000000000000000448000000000000000000032872000000000000PG01011363583        00000000000000000000000000000000000000000000000000000000000000000000000000000000000000000000986 +                                                                                                                  
21363583        84527738900000000882919062018231144542820******3292   0000000083300000000000000000000000000101000000008330200620180000120658POSC1363583        05311109986N+                                                                                                                                                                                                                                    
21363583        84527738900000000883119062018231238520977******9090   0000000083300000000000000000000000000101000000008330200620180000593275POSC1363583        05311109986N+                                                                                                                                                                                                                                    
21363583        84527738900000000882719062018231010523284******8746   0000000083300000000000000000000000000101000000008330200620180000594177POSC1363583        05311109986N+                                                                                                                                                                                                                                    
21363583        84527738900000000882319062018230813520977******1394   0000000083300000000000000000000000000101000000008330200620180000592801POSC1363583        05311109986N+                                                                                                                                                                                                                                    
11363583        EDPOS845180613190620182006201803300435300130020216000000001000000000000000017240000000016973000000000000000000000267000000000000000000016973000000000000PG01011363583        00000000000000000000000000000000000000000000000000000000000000000000000000000000000000000000986 +                                                                                                                  
21363583        84518061300000000880719062018221634506722******4036   0000000172400000000000000000000000000101000000017240200620180000818946POSC1363583        05311109986N+                                                                                                                                                                                                                                    
11363583        SEPOS845175086190620182006201803300435300130020216000000001000000000000000003000000000002959000000000000000000000041000000000000000000002959000000000000PG01011363583        00000000000000000000000000000000000000000000000000000000000000000000000000000000000000000000986 +                                                                                                                  
21363583        84517508600000000957919062018221418422061******7351   0000000030000000000000000000000000000101000000003000200620180000154258POSC1363583        05327598986N+                                                                                                                                                                                                                                    
11363583        SEPOS845175067190620182006201803300435300130020216000000005000000000000000088851000000087651000000000000000000001200000000000000000000087651000000000000PG01011363583        00000000000000000000000000000000000000000000000000000000000000000000000000000000000000000000986 +                                                                                                                  
21363583        84517506700000000880919062018222550493100******6536   0000000373760000000000000000000000000101000000037376200620180000287437POSC1363583        05311109986N+                                                                                                                                                                                                                                    
21363583        84517506700000000880119062018220917422061******9315   0000000166550000000000000000000000000101000000016655200620180000094849POSC1363583        05311109986N+                                                                                                                                                                                                                                    
21363583        84517506700000000879519062018220008493103******4970   0000000040000000000000000000000000000101000000004000200620180000287402POSC1363583        05311109986N+                                                                                                                                                                                                                                    
21363583        84517506700000000878919062018214723490172******1358   0000000148650000000000000000000000000101000000014865200620180000111602POSC1363583        05311109986N+                                                                                                                                                                                                                                    
21363583        84517506700000000877919062018205859476608******0208   0000000159550000000000000000000000000101000000015955200620180000286292POSC1363583        05311109986N+                                                                                                                                                                                                                                    
11363583        SRPOS845164365190620182006201803300435300130020216000000008000000000000000127410000000125691000000000000000000001719000000000000000000125691000000000000PG01011363583        00000000000000000000000000000000000000000000000000000000000000000000000000000000000000000000986 +                                                                                                                  
21363583        84516436500000000956119062018205527589916******5761   0000000168450000000000000000000000000101000000016845200620180000555004POSC1363583        05327598986N+                                                                                                                                                                                                                                    
21363583        84516436500000000956719062018211335589916******0174   0000000134850000000000000000000000000101000000013485200620180000564619POSC1363583        05327598986N+                                                                                                                                                                                                                                    
21363583        84516436500000000958519062018223540589916******5784   0000000165000000000000000000000000000101000000016500200620180000587434POSC1363583        05327598986N+                                                                                                                                                                                                                                    
21363583        84516436500000000959119062018223826523284******9816   0000000077300000000000000000000000000101000000007730200620180000587901POSC1363583        05327598986N+                                                                                                                                                                                                                                    
21363583        84516436500000000958119062018221622514945******8114   0000000287000000000000000000000000000101000000028700200620180000585439POSC1363583        05327598986N+                                                                                                                                                                                                                                    
21363583        84516436500000000958719062018223650589916******2547   0000000081450000000000000000000000000101000000008145200620180000588142POSC1363583        05327598986N+                                                                                                                                                                                                                                    
21363583        84516436500000000956319062018210417514945******5590   0000000158550000000000000000000000000101000000015855200620180000561693POSC1363583        05327598986N+                                                                                                                                                                                                                                    
21363583        84516436500000000955919062018204947589916******1389   0000000201500000000000000000000000000101000000020150200620180000552923POSC1363583        05327598986N+                                                                                                                                                                                                                                    
11363583        SRPOS845164330190620182006201803300435300130020216000000008000000000000000230804000000227689000000000000000000003115000000000000000000227689000000000000PG01011363583        00000000000000000000000000000000000000000000000000000000000000000000000000000000000000000000986 +                                                                                                                  
21363583        84516433000000000878719062018214441544731******2823   0000000082230000000000000000000000000101000000008223200620180000450462POSC1363583        05311109986N+                                                                                                                                                                                                                                    
21363583        84516433000000000878319062018214300515590******9115   0000000158550000000000000000000000000101000000015855200620180000432268POSC1363583        05311109986N+                                                                                                                                                                                                                                    
21363583        84516433000000000878519062018214404544731******6768   0000000082230000000000000000000000000101000000008223200620180000442977POSC1363583        05311109986N+                                                                                                                                                                                                                                    
21363583        84516433000000000879319062018215829544731******1459   0000000157150000000000000000000000000101000000015715200620180000585572POSC1363583        05311109986N+                                                                                                                                                                                                                                    
21363583        84516433000000000880319062018221352589916******7097   0000000150650000000000000000000000000101000000015065200620180000582039POSC1363583        05311109986N+                                                                                                                                                                                                                                    
21363583        84516433000000000880519062018221559525663******8140   0000000172400000000000000000000000000101000000017240200620180000584064POSC1363583        05311109986N+                                                                                                                                                                                                                                    
21363583        84516433000000000881119062018222702589916******7022   0000000186880000000000000000000000000101000000018688200620180000587527POSC1363583        05311109986N+                                                                                                                                                                                                                                    
21363583        84516433000000000881519062018224615589916******8707   0000001317950000000000000000000000000101000000131795200620180000588996POSC1363583        05311109986N+                                                                                                                                                                                                                                    
11363583        SRPOS844654293190620182006201803300435300130020216000000001000000000000000015265000000015059000000000000000000000206000000000000000000015059000000000000PG01011363583        00000000000000000000000000000000000000000000000000000000000000000000000000000000000000000000986 +                                                                                                                  
21363583        84465429300000000954919062018190257515590******3260   0000000152650000000000000000000000000101000000015265200620180000032150POSC1363583        05327598986N+                                                                                                                                                                                                                                    
11363583        SRPOS844132799190620182006201803300435300130020216000000001000000000000000017335000000017101000000000000000000000234000000000000000000017101000000000000PG01011363583        00000000000000000000000000000000000000000000000000000000000000000000000000000000000000000000986 +                                                                                                                  
21363583        84413279900000000953719062018143133515590******7293   0000000173350000000000000000000000000101000000017335200620180000315471POSC1363583        05327598986N+                                                                                                                                                                                                                                    
9000000084                                                                                                                                                                                                                                                                                                                                                                                                      
