01806201802583018062018CEADM1001363583        10440482000154GETNET S.A.         000000151GSSANT. V.8.0 400 BYTES                                                                                                                                                                                                                                                                                                
11363583        SVPOS841515451170620181707201803300435300130020216000000001000000000000000020350000000019953000000000000000000000397000000000000000000019953000000000000PF01011363583        00000000000000000000000000000000000000000000000000000000000000000000000000000000000000000000986 +                                                                                                                  
21363583        84151545100000000871317062018211333409308******6759   0000000203500000000000000000000000000101000000020350170720180000140179POSC1363583        05311109986N+                                                                                                                                                                                                                                    
11363583        SMPOS841507284170620181707201803300435300130020216000000001000000000000000018770000000018404000000000000000000000366000000000000000000018404000000000000PF01011363583        00000000000000000000000000000000000000000000000000000000000000000000000000000000000000000000986 +                                                                                                                  
21363583        84150728400000000871717062018220345522840******8209   0000000187700000000000000000000000000101000000018770170720180000040772POSC1363583        05311109986N+                                                                                                                                                                                                                                    
11363583        SMPOS841235110170620181707201803300435300130020216000000001000000000000000020940000000020532000000000000000000000408000000000000000000020532000000000000PF01011363583        00000000000000000000000000000000000000000000000000000000000000000000000000000000000000000000986 +                                                                                                                  
21363583        84123511000000000951317062018155112544540******1467   0000000209400000000000000000000000000101000000020940170720180000004574POSC1363583        05327598986N+                                                                                                                                                                                                                                    
11363583        ACPOS841074862170620181707201803300435300130020216000000001000000000000000034020000000032993000000000000000000001027000000000000000000032993000000000000PF01011363583        00000000000000000000000000000000000000000000000000000000000000000000000000000000000000000000986 +                                                                                                                  
21363583        84107486200000000949117062018140207377169*****2009    0000000340200000000000000000000000000101000000034020170720180000624227POSC1363583        05327598986N+                                                                                                                                                                                                                                    
11363583        SVPOS840998081170620181707201803300435300130020216000000001000000000000000010175000000009977000000000000000000000198000000000000000000009977000000000000PF01011363583        00000000000000000000000000000000000000000000000000000000000000000000000000000000000000000000986 +                                                                                                                  
21363583        84099808100000000950317062018143446400225******7800   0000000101750000000000000000000000000101000000010175170720180000284546POSC1363583        05327598986N+                                                                                                                                                                                                                                    
11363583        SMPOS840879193170620181707201803300435300130020216000000003000000000000000043945000000043089000000000000000000000856000000000000000000043089000000000000PF01011363583        00000000000000000000000000000000000000000000000000000000000000000000000000000000000000000000986 +                                                                                                                  
21363583        84087919300000000950117062018141650531705******8267   0000000293400000000000000000000000000101000000029340170720180000021717POSC1363583        05327598986N+                                                                                                                                                                                                                                    
21363583        84087919300000000951117062018145501552128******4025   0000000028900000000000000000000000000101000000002890170720180000778332POSC1363583        05327598986N+                                                                                                                                                                                                                                    
21363583        84087919300000000949317062018140639553636******3770   0000000117150000000000000000000000000101000000011715170720180000035724POSC1363583        05327598986N+                                                                                                                                                                                                                                    
11363583        ECPOS840780566170620181707201803300435300130020216000000001000000000000000011930000000011712000000000000000000000218000000000000000000011712000000000000PF01011363583        00000000000000000000000000000000000000000000000000000000000000000000000000000000000000000000986 +                                                                                                                  
21363583        84078056600000000948517062018001013651652******6834   0000000119300000000000000000000000000101000000011930170720180000603625POSC1363583        05327598986N+                                                                                                                                                                                                                                    
11363583        SVPOS840698759170620181707201803300435300130020216000000001000000000000000012000000000011766000000000000000000000234000000000000000000011766000000000000PF01011363583        00000000000000000000000000000000000000000000000000000000000000000000000000000000000000000000986 +                                                                                                                  
21363583        84069875900000000948117062018000926498406******2116   0000000120000000000000000000000000000101000000012000170720180000005274POSC1363583        05327598986N+                                                                                                                                                                                                                                    
11363583        SVPOS840698735170620181707201803300435300130020216000000001000000000000000010480000000010276000000000000000000000204000000000000000000010276000000000000PF01011363583        00000000000000000000000000000000000000000000000000000000000000000000000000000000000000000000986 +                                                                                                                  
21363583        84069873500000000869917062018000142412177******3211   0000000104800000000000000000000000000101000000010480170720180000078188POSC1363583        05311109986N+                                                                                                                                                                                                                                    
11363583        SMPOS840510465170620181707201803300435300130020216000000001000000000000000010480000000010276000000000000000000000204000000000000000000010276000000000000PF01011363583        00000000000000000000000000000000000000000000000000000000000000000000000000000000000000000000986 +                                                                                                                  
21363583        84051046500000000870317062018000213548724******3267   0000000104800000000000000000000000000101000000010480170720180000084467POSC1363583        05311109986N+                                                                                                                                                                                                                                    
11363583        SRPOS841511609170620181806201803300435300130020216000000003000000000000000051270000000050577000000000000000000000693000000000000000000050577000000000000PG01011363583        00000000000000000000000000000000000000000000000000000000000000000000000000000000000000000000986 +                                                                                                                  
21363583        84151160900000000871517062018220254589916******5992   0000000307200000000000000000000000000101000000030720180620180000235004POSC1363583        05311109986N+                                                                                                                                                                                                                                    
21363583        84151160900000000872117062018220530589916******9390   0000000102750000000000000000000000000101000000010275180620180000233472POSC1363583        05311109986N+                                                                                                                                                                                                                                    
21363583        84151160900000000871917062018220501526965******8792   0000000102750000000000000000000000000101000000010275180620180000268557POSC1363583        05311109986N+                                                                                                                                                                                                                                    
11363583        EDPOS841086057170620181806201803300435300130020216000000001000000000000000010000000000009845000000000000000000000155000000000000000000009845000000000000PG01011363583        00000000000000000000000000000000000000000000000000000000000000000000000000000000000000000000986 +                                                                                                                  
21363583        84108605700000000949917062018140918627780******6978   0000000100000000000000000000000000000101000000010000180620180000424595POSC1363583        05327598986N+                                                                                                                                                                                                                                    
11363583        SRPOS840931206170620181806201803300435300130020216000000003000000000000000031450000000031026000000000000000000000424000000000000000000031026000000000000PG01011363583        00000000000000000000000000000000000000000000000000000000000000000000000000000000000000000000986 +                                                                                                                  
21363583        84093120600000000950917062018143626520132******6779   0000000101750000000000000000000000000101000000010175180620180000365363POSC1363583        05327598986N+                                                                                                                                                                                                                                    
21363583        84093120600000000949517062018140719549167******3284   0000000117150000000000000000000000000101000000011715180620180000074245POSC1363583        05327598986N+                                                                                                                                                                                                                                    
21363583        84093120600000000949717062018140842502121******4789   0000000095600000000000000000000000000101000000009560180620180000090966POSC1363583        05327598986N+                                                                                                                                                                                                                                    
11363583        EDPOS840427635160620181806201803300435300130020216000000002000000000000000022145000000021802000000000000000000000343000000000000000000021802000000000000PG01011363583        00000000000000000000000000000000000000000000000000000000000000000000000000000000000000000000986 +                                                                                                                  
21363583        84042763500000000946516062018230816627780******2165   0000000103250000000000000000000000000101000000010325180620180000725842POSC1363583        05327598986N+                                                                                                                                                                                                                                    
21363583        84042763500000000945516062018225900509065******2107   0000000118200000000000000000000000000101000000011820180620180000244299POSC1363583        05327598986N+                                                                                                                                                                                                                                    
11363583        EDPOS840427630160620181806201803300435300130020216000000001000000000000000024920000000024534000000000000000000000386000000000000000000024534000000000000PG01011363583        00000000000000000000000000000000000000000000000000000000000000000000000000000000000000000000986 +                                                                                                                  
21363583        84042763000000000869516062018233802506731******8205   0000000249200000000000000000000000000101000000024920180620180000245442POSC1363583        05311109986N+                                                                                                                                                                                                                                    
11363583        SEPOS840426341160620181806201803300435300130020216000000001000000000000000019560000000019296000000000000000000000264000000000000000000019296000000000000PG01011363583        00000000000000000000000000000000000000000000000000000000000000000000000000000000000000000000986 +                                                                                                                  
21363583        84042634100000000946916062018231428410391******4133   0000000195600000000000000000000000000101000000019560180620180000244873POSC1363583        05327598986N+                                                                                                                                                                                                                                    
11363583        SEPOS840426334160620181806201803300435300130020216000000002000000000000000031310000000030887000000000000000000000423000000000000000000030887000000000000PG01011363583        00000000000000000000000000000000000000000000000000000000000000000000000000000000000000000000986 +                                                                                                                  
21363583        84042633400000000866316062018230331439276******5595   0000000102700000000000000000000000000101000000010270180620180000245084POSC1363583        05311109986N+                                                                                                                                                                                                                                    
21363583        84042633400000000868316062018232141482476******9134   0000000210400000000000000000000000000101000000021040180620180000141381POSC1363583        05311109986N+                                                                                                                                                                                                                                    
11363583        SRPOS840424025160620181806201803300435300130020216000000004000000000000000072265000000071290000000000000000000000975000000000000000000071290000000000000PG01011363583        00000000000000000000000000000000000000000000000000000000000000000000000000000000000000000000986 +                                                                                                                  
21363583        84042402500000000945916062018230238552693******8241   0000000214400000000000000000000000000101000000021440180620180000030573POSC1363583        05327598986N+                                                                                                                                                                                                                                    
21363583        84042402500000000946716062018230910523284******8969   0000000103250000000000000000000000000101000000010325180620180000782921POSC1363583        05327598986N+                                                                                                                                                                                                                                    
21363583        84042402500000000947316062018232159603689*********00400000000201500000000000000000000000000101000000020150180620180000983312POSC1363583        05327598986N+                                                                                                                                                                                                                                    
21363583        84042402500000000945716062018225947552693******8641   0000000203500000000000000000000000000101000000020350180620180000000670POSC1363583        05327598986N+                                                                                                                                                                                                                                    
11363583        SRPOS840424016160620181806201803300435300130020216000000006000000000000000073356000000072364000000000000000000000992000000000000000000072364000000000000PG01011363583        00000000000000000000000000000000000000000000000000000000000000000000000000000000000000000000986 +                                                                                                                  
21363583        84042401600000000867316062018230927589916******7907   0000000204160000000000000000000000000101000000020416180620180000780909POSC1363583        05311109986N+                                                                                                                                                                                                                                    
21363583        84042401600000000869716062018234931549167******0824   0000000203500000000000000000000000000101000000020350180620180000793308POSC1363583        05311109986N+                                                                                                                                                                                                                                    
21363583        84042401600000000866916062018230523589916******9593   0000000062700000000000000000000000000101000000006270180620180000779780POSC1363583        05311109986N+                                                                                                                                                                                                                                    
21363583        84042401600000000868716062018232330549167******1584   0000000119700000000000000000000000000101000000011970180620180000787347POSC1363583        05311109986N+                                                                                                                                                                                                                                    
21363583        84042401600000000868116062018232026589916******5833   0000000111800000000000000000000000000101000000011180180620180000785856POSC1363583        05311109986N+                                                                                                                                                                                                                                    
21363583        84042401600000000867716062018231535589916******0031   0000000031700000000000000000000000000101000000003170180620180000782586POSC1363583        05311109986N+                                                                                                                                                                                                                                    
11363583        SEPOS840265715160620181806201803300435300130020216000000001000000000000000027265000000026897000000000000000000000368000000000000000000026897000000000000PG01011363583        00000000000000000000000000000000000000000000000000000000000000000000000000000000000000000000986 +                                                                                                                  
21363583        84026571500000000944716062018211632498453******2598   0000000272650000000000000000000000000101000000027265180620180000376611POSC1363583        05327598986N+                                                                                                                                                                                                                                    
11363583        SEPOS840265682160620181806201803300435300130020216000000004000000000000000067260000000066352000000000000000000000908000000000000000000066352000000000000PG01011363583        00000000000000000000000000000000000000000000000000000000000000000000000000000000000000000000986 +                                                                                                                  
21363583        84026568200000000865716062018223709483042******5203   0000000097800000000000000000000000000101000000009780180620180000244301POSC1363583        05311109986N+                                                                                                                                                                                                                                    
21363583        84026568200000000864516062018221219476608******9302   0000000151850000000000000000000000000101000000015185180620180000244328POSC1363583        05311109986N+                                                                                                                                                                                                                                    
21363583        84026568200000000863916062018215217490172******2653   0000000308200000000000000000000000000101000000030820180620180000137128POSC1363583        05311109986N+                                                                                                                                                                                                                                    
21363583        84026568200000000864716062018222741476608******8305   0000000114750000000000000000000000000101000000011475180620180000244488POSC1363583        05311109986N+                                                                                                                                                                                                                                    
11363583        SRPOS840243223160620181806201803300435300130020216000000003000000000000000040165000000039623000000000000000000000542000000000000000000039623000000000000PG01011363583        00000000000000000000000000000000000000000000000000000000000000000000000000000000000000000000986 +                                                                                                                  
21363583        84024322300000000944316062018210933515590******2078   0000000185850000000000000000000000000101000000018585180620180000095666POSC1363583        05327598986N+                                                                                                                                                                                                                                    
21363583        84024322300000000945116062018212818523284******8114   0000000015800000000000000000000000000101000000001580180620180000740178POSC1363583        05327598986N+                                                                                                                                                                                                                                    
21363583        84024322300000000944116062018210826589916******7463   0000000200000000000000000000000000000101000000020000180620180000729647POSC1363583        05327598986N+                                                                                                                                                                                                                                    
11363583        SRPOS840243152160620181806201803300435300130020216000000005000000000000000068640000000067713000000000000000000000927000000000000000000067713000000000000PG01011363583        00000000000000000000000000000000000000000000000000000000000000000000000000000000000000000000986 +                                                                                                                  
21363583        84024315200000000865316062018223122502121******9364   0000000019500000000000000000000000000101000000001950180620180000314556POSC1363583        05311109986N+                                                                                                                                                                                                                                    
21363583        84024315200000000864916062018222814526863******4175   0000000114750000000000000000000000000101000000011475180620180000767862POSC1363583        05311109986N+                                                                                                                                                                                                                                    
21363583        84024315200000000864116062018215943589916******6018   0000000217500000000000000000000000000101000000021750180620180000755850POSC1363583        05311109986N+                                                                                                                                                                                                                                    
21363583        84024315200000000864316062018220928589916******2569   0000000223400000000000000000000000000101000000022340180620180000760809POSC1363583        05311109986N+                                                                                                                                                                                                                                    
21363583        84024315200000000863516062018213603524820******9601   0000000111250000000000000000000000000101000000011125180620180000746891POSC1363583        05311109986N+                                                                                                                                                                                                                                    
11363583        EDPOS840091480160620181806201803300435300130020216000000001000000000000000010000000000009845000000000000000000000155000000000000000000009845000000000000PG01011363583        00000000000000000000000000000000000000000000000000000000000000000000000000000000000000000000986 +                                                                                                                  
21363583        84009148000000000942516062018173218506775******0316   0000000100000000000000000000000000000101000000010000180620180000667031POSC1363583        05327598986N+                                                                                                                                                                                                                                    
11363583        SEPOS840024117160620181806201803300435300130020216000000002000000000000000040310000000039766000000000000000000000544000000000000000000039766000000000000PG01011363583        00000000000000000000000000000000000000000000000000000000000000000000000000000000000000000000986 +                                                                                                                  
21363583        84002411700000000943516062018201758498407******9454   0000000205500000000000000000000000000101000000020550180620180000173095POSC1363583        05327598986N+                                                                                                                                                                                                                                    
21363583        84002411700000000943716062018202148476608******8402   0000000197600000000000000000000000000101000000019760180620180000242972POSC1363583        05327598986N+                                                                                                                                                                                                                                    
11363583        EDPOS839460039160620181806201803300435300130020216000000001000000000000000010770000000010603000000000000000000000167000000000000000000010603000000000000PG01011363583        00000000000000000000000000000000000000000000000000000000000000000000000000000000000000000000986 +                                                                                                                  
21363583        83946003900000000940716062018145811650494******9103   0000000107700000000000000000000000000101000000010770180620180000240017POSC1363583        05327598986N+                                                                                                                                                                                                                                    
11363583        SEPOS839372314160620181806201803300435300130020216000000001000000000000000011165000000011014000000000000000000000151000000000000000000011014000000000000PG01011363583        00000000000000000000000000000000000000000000000000000000000000000000000000000000000000000000986 +                                                                                                                  
21363583        83937231400000000939316062018135327493102******5859   0000000111650000000000000000000000000101000000011165180620180000238806POSC1363583        05327598986N+                                                                                                                                                                                                                                    
11363583        SRPOS839147873160620181806201803300435300130020216000000005000000000000000072310000000071334000000000000000000000976000000000000000000071334000000000000PG01011363583        00000000000000000000000000000000000000000000000000000000000000000000000000000000000000000000986 +                                                                                                                  
21363583        83914787300000000941316062018152016515590******9728   0000000100000000000000000000000000000101000000010000180620180000203274POSC1363583        05327598986N+                                                                                                                                                                                                                                    
21363583        83914787300000000939716062018140016514945******5620   0000000203500000000000000000000000000101000000020350180620180000362933POSC1363583        05327598986N+                                                                                                                                                                                                                                    
21363583        83914787300000000940316062018141517603689*********49700000000189900000000000000000000000000101000000018990180620180000931474POSC1363583        05327598986N+                                                                                                                                                                                                                                    
21363583        83914787300000000941116062018151921589916******4788   0000000118050000000000000000000000000101000000011805180620180000444222POSC1363583        05327598986N+                                                                                                                                                                                                                                    
21363583        83914787300000000939516062018135349522840******1884   0000000111650000000000000000000000000101000000011165180620180000540666POSC1363583        05327598986N+                                                                                                                                                                                                                                    
11363583        SEPOS838785838160620181806201803300435300130020216000000001000000000000000011790000000011631000000000000000000000159000000000000000000011631000000000000PG01011363583        00000000000000000000000000000000000000000000000000000000000000000000000000000000000000000000986 +                                                                                                                  
21363583        83878583800000000937115062018235925439267******8686   0000000117900000000000000000000000000101000000011790180620180000351361POSC1363583        05327598986N+                                                                                                                                                                                                                                    
11363583        SRPOS838603672160620181806201803300435300130020216000000001000000000000000020650000000020371000000000000000000000279000000000000000000020371000000000000PG01011363583        00000000000000000000000000000000000000000000000000000000000000000000000000000000000000000000986 +                                                                                                                  
21363583        83860367200000000938116062018000353525662******7907   0000000206500000000000000000000000000101000000020650180620180000748253POSC1363583        05327598986N+                                                                                                                                                                                                                                    
11363583        EDPOS838149361150620181806201803300435300130020216000000001000000000000000044580000000043889000000000000000000000691000000000000000000043889000000000000PG01011363583        00000000000000000000000000000000000000000000000000000000000000000000000000000000000000000000986 +                                                                                                                  
21363583        83814936100000000861715062018232909627780******9287   0000000445800000000000000000000000000101000000044580180620180000284509POSC1363583        05311109986N+                                                                                                                                                                                                                                    
11363583        EDPOS837998168150620181806201803300435300130020216000000001000000000000000023430000000023067000000000000000000000363000000000000000000023067000000000000PG01011363583        00000000000000000000000000000000000000000000000000000000000000000000000000000000000000000000986 +                                                                                                                  
21363583        83799816800000000935115062018215350650494******9108   0000000234300000000000000000000000000101000000023430180620180000229584POSC1363583        05327598986N+                                                                                                                                                                                                                                    
11363583        EDPOS837998149150620181806201803300435300130020216000000001000000000000000010000000000009845000000000000000000000155000000000000000000009845000000000000PG01011363583        00000000000000000000000000000000000000000000000000000000000000000000000000000000000000000000986 +                                                                                                                  
21363583        83799814900000000856915062018205114627780******2618   0000000100000000000000000000000000000101000000010000180620180000471398POSC1363583        05311109986N+                                                                                                                                                                                                                                    
11363583        SEPOS837983893150620181806201803300435300130020216000000001000000000000000020950000000020667000000000000000000000283000000000000000000020667000000000000PG01011363583        00000000000000000000000000000000000000000000000000000000000000000000000000000000000000000000986 +                                                                                                                  
21363583        83798389300000000934715062018213832409602******5853   0000000209500000000000000000000000000101000000020950180620180000229425POSC1363583        05327598986N+                                                                                                                                                                                                                                    
11363583        SEPOS837983879150620181806201803300435300130020216000000001000000000000000010175000000010038000000000000000000000137000000000000000000010038000000000000PG01011363583        00000000000000000000000000000000000000000000000000000000000000000000000000000000000000000000986 +                                                                                                                  
21363583        83798387900000000858915062018220119498406******7776   0000000101750000000000000000000000000101000000010175180620180000179298POSC1363583        05311109986N+                                                                                                                                                                                                                                    
11363583        SRPOS837959257150620181806201803300435300130020216000000004000000000000000094670000000093392000000000000000000001278000000000000000000093392000000000000PG01011363583        00000000000000000000000000000000000000000000000000000000000000000000000000000000000000000000986 +                                                                                                                  
21363583        83795925700000000936915062018224616542974******5800   0000000191600000000000000000000000000101000000019160180620180000726954POSC1363583        05327598986N+                                                                                                                                                                                                                                    
21363583        83795925700000000934315062018213647603689*********45770000000305300000000000000000000000000101000000030530180620180000491271POSC1363583        05327598986N+                                                                                                                                                                                                                                    
21363583        83795925700000000935915062018222615589916******0918   0000000212400000000000000000000000000101000000021240180620180000722010POSC1363583        05327598986N+                                                                                                                                                                                                                                    
21363583        83795925700000000934515062018213748546479******1787   0000000237400000000000000000000000000101000000023740180620180000431251POSC1363583        05327598986N+                                                                                                                                                                                                                                    
11363583        SRPOS837959198150620181806201803300435300130020216000000009000000000000000137005000000135156000000000000000000001849000000000000000000135156000000000000PG01011363583        00000000000000000000000000000000000000000000000000000000000000000000000000000000000000000000986 +                                                                                                                  
21363583        83795919800000000858715062018220048589916******8173   0000000101750000000000000000000000000101000000010175180620180000709582POSC1363583        05311109986N+                                                                                                                                                                                                                                    
21363583        83795919800000000859315062018221500514945******9535   0000000109700000000000000000000000000101000000010970180620180000716336POSC1363583        05311109986N+                                                                                                                                                                                                                                    
21363583        83795919800000000857915062018214324544731******7684   0000000195600000000000000000000000000101000000019560180620180000434687POSC1363583        05311109986N+                                                                                                                                                                                                                                    
21363583        83795919800000000857115062018205144521180******2427   0000000097600000000000000000000000000101000000009760180620180000520763POSC1363583        05311109986N+                                                                                                                                                                                                                                    
21363583        83795919800000000857515062018211937549167******7055   0000000254200000000000000000000000000101000000025420180620180000686778POSC1363583        05311109986N+                                                                                                                                                                                                                                    
21363583        83795919800000000858115062018215208515590******3244   0000000195600000000000000000000000000101000000019560180620180000522661POSC1363583        05311109986N+                                                                                                                                                                                                                                    
21363583        83795919800000000859115062018221429589916******8748   0000000109700000000000000000000000000101000000010970180620180000715907POSC1363583        05311109986N+                                                                                                                                                                                                                                    
21363583        83795919800000000860315062018224022589916******3512   0000000205900000000000000000000000000101000000020590180620180000724901POSC1363583        05311109986N+                                                                                                                                                                                                                                    
21363583        83795919800000000860115062018223141545719******2521   0000000100000000000000000000000000000101000000010000180620180000724796POSC1363583        05311109986N+                                                                                                                                                                                                                                    
11363583        EDPOS837658041150620181806201803300435300130020216000000001000000000000000024055000000023682000000000000000000000373000000000000000000023682000000000000PG01011363583        00000000000000000000000000000000000000000000000000000000000000000000000000000000000000000000986 +                                                                                                                  
21363583        83765804100000000856315062018203350650494******9103   0000000240550000000000000000000000000101000000024055180620180000228577POSC1363583        05311109986N+                                                                                                                                                                                                                                    
11363583        SEPOS837562277150620181806201803300435300130020216000000001000000000000000008140000000008030000000000000000000000110000000000000000000008030000000000000PG01011363583        00000000000000000000000000000000000000000000000000000000000000000000000000000000000000000000986 +                                                                                                                  
21363583        83756227700000000933915062018164532493100******4282   0000000081400000000000000000000000000101000000008140180620180000226232POSC1363583        05327598986N+                                                                                                                                                                                                                                    
11363583        SEPOS837562269150620181806201803300435300130020216000000001000000000000000017100000000016869000000000000000000000231000000000000000000016869000000000000PG01011363583        00000000000000000000000000000000000000000000000000000000000000000000000000000000000000000000986 +                                                                                                                  
21363583        83756226900000000855915062018202100476608******5104   0000000171000000000000000000000000000101000000017100180620180000229109POSC1363583        05311109986N+                                                                                                                                                                                                                                    
11363583        SRPOS837360206150620181806201803300435300130020216000000001000000000000000019750000000019483000000000000000000000267000000000000000000019483000000000000PG01011363583        00000000000000000000000000000000000000000000000000000000000000000000000000000000000000000000986 +                                                                                                                  
21363583        83736020600000000856115062018203057589916******9628   0000000197500000000000000000000000000101000000019750180620180000654278POSC1363583        05311109986N+                                                                                                                                                                                                                                    
11363583        EDPOS837049483150620181806201803300435300130020216000000001000000000000000015915000000015668000000000000000000000247000000000000000000015668000000000000PG01011363583        00000000000000000000000000000000000000000000000000000000000000000000000000000000000000000000986 +                                                                                                                  
21363583        83704948300000000854715062018133243509000******3404   0000000159150000000000000000000000000101000000015915180620180000224284POSC1363583        05311109986N+                                                                                                                                                                                                                                    
11363583        SVPOS788247832190520181806201803300435300130020216000000005000000000000000073250000000071822000000000000000000001428000000000000000000071822000000000000PG01011363583        00000000000000000000000000000000000000000000000000000000000000000000000000000000000000000000986 +                                                                                                                  
21363583        78824783200000000749919052018230534410424******1435   0000000200000000000000000000000000000101000000020000180620180000655029POSC1363583        05327598986N+                                                                                                                                                                                                                                    
21363583        78824783200000000748919052018230129412177******3135   0000000203500000000000000000000000000101000000020350180620180000032385POSC1363583        05327598986N+                                                                                                                                                                                                                                    
21363583        78824783200000000750319052018230736415274******4212   0000000062750000000000000000000000000101000000006275180620180000033994POSC1363583        05327598986N+                                                                                                                                                                                                                                    
21363583        78824783200000000750119052018230705432032******6127   0000000062750000000000000000000000000101000000006275180620180000024124POSC1363583        05327598986N+                                                                                                                                                                                                                                    
21363583        78824783200000000749519052018230317412177******3135   0000000203500000000000000000000000000101000000020350180620180000032885POSC1363583        05327598986N+                                                                                                                                                                                                                                    
11363583        SVPOS788247829190520181806201803300435300130020216000000001000000000000000023390000000022934000000000000000000000456000000000000000000022934000000000000PG01011363583        00000000000000000000000000000000000000000000000000000000000000000000000000000000000000000000986 +                                                                                                                  
21363583        78824782900000000717919052018234127490172******1338   0000000233900000000000000000000000000101000000023390180620180000095487POSC1363583        05311109986N+                                                                                                                                                                                                                                    
11363583        SMPOS788245359190520181806201803300435300130020216000000002000000000000000226841000000222418000000000000000000004423000000000000000000222418000000000000PG01011363583        00000000000000000000000000000000000000000000000000000000000000000000000000000000000000000000986 +                                                                                                                  
21363583        78824535900000000748519052018225952516220******4099   0000002000000000000000000000000000000101000000200000180620180000HF7JRKPOSC1363583        05327598986N+                                                                                                                                                                                                                                    
21363583        78824535900000000751319052018233352553636******7876   0000000268410000000000000000000000000101000000026841180620180000083343POSC1363583        05327598986N+                                                                                                                                                                                                                                    
11363583        SMPOS788245351190520181806201803300435300130020216000000003000000000000000047596000000046668000000000000000000000928000000000000000000046668000000000000PG01011363583        00000000000000000000000000000000000000000000000000000000000000000000000000000000000000000000986 +                                                                                                                  
21363583        78824535100000000716919052018230708544731******1335   0000000187700000000000000000000000000101000000018770180620180000073665POSC1363583        05311109986N+                                                                                                                                                                                                                                    
21363583        78824535100000000716519052018230244544731******7467   0000000102560000000000000000000000000101000000010256180620180000031777POSC1363583        05311109986N+                                                                                                                                                                                                                                    
21363583        78824535100000000718119052018234327514945******1782   0000000185700000000000000000000000000101000000018570180620180000035886POSC1363583        05311109986N+                                                                                                                                                                                                                                    
11363583        ACPOS788092764190520181806201803300435300130020216000000001000000000000000010350000000010037000000000000000000000313000000000000000000010037000000000000PG01011363583        00000000000000000000000000000000000000000000000000000000000000000000000000000000000000000000986 +                                                                                                                  
21363583        78809276400000000747919052018223348376478*****3003    0000000103500000000000000000000000000101000000010350180620180000640305POSC1363583        05327598986N+                                                                                                                                                                                                                                    
11363583        SVPOS788074398190520181806201803300435300130020216000000004000000000000000090922000000089150000000000000000000001772000000000000000000089150000000000000PG01011363583        00000000000000000000000000000000000000000000000000000000000000000000000000000000000000000000986 +                                                                                                                  
21363583        78807439800000000747119052018221859490172******8863   0000000216500000000000000000000000000101000000021650180620180000082335POSC1363583        05327598986N+                                                                                                                                                                                                                                    
21363583        78807439800000000746319052018221243479569******1725   0000000275620000000000000000000000000101000000027562180620180000075290POSC1363583        05327598986N+                                                                                                                                                                                                                                    
21363583        78807439800000000743719052018213520432729******5950   0000000222500000000000000000000000000101000000022250180620180000043918POSC1363583        05327598986N+                                                                                                                                                                                                                                    
21363583        78807439800000000744119052018214502415275******0219   0000000194600000000000000000000000000101000000019460180620180000004473POSC1363583        05327598986N+                                                                                                                                                                                                                                    
11363583        SVPOS788074375190520181806201803300435300130020216000000002000000000000000037690000000036955000000000000000000000735000000000000000000036955000000000000PG01011363583        00000000000000000000000000000000000000000000000000000000000000000000000000000000000000000000986 +                                                                                                                  
21363583        78807437500000000715719052018222219422061******2415   0000000253400000000000000000000000000101000000025340180620180000223846POSC1363583        05311109986N+                                                                                                                                                                                                                                    
21363583        78807437500000000715119052018210729490172******4066   0000000123500000000000000000000000000101000000012350180620180000049796POSC1363583        05311109986N+                                                                                                                                                                                                                                    
11363583        SMPOS788047436190520181806201803300435300130020216000000005000000000000000104212000000102180000000000000000000002032000000000000000000102180000000000000PG01011363583        00000000000000000000000000000000000000000000000000000000000000000000000000000000000000000000986 +                                                                                                                  
21363583        78804743600000000746919052018221700523421******5805   0000000168300000000000000000000000000101000000016830180620180000PUHQ36POSC1363583        05327598986N+                                                                                                                                                                                                                                    
21363583        78804743600000000748319052018223715515590******2405   0000000106650000000000000000000000000101000000010665180620180000373267POSC1363583        05327598986N+                                                                                                                                                                                                                                    
21363583        78804743600000000745519052018215702536805******6677   0000000109750000000000000000000000000101000000010975180620180000671803POSC1363583        05327598986N+                                                                                                                                                                                                                                    
21363583        78804743600000000743919052018214351549167******6128   0000000489100000000000000000000000000101000000048910180620180000022987POSC1363583        05327598986N+                                                                                                                                                                                                                                    
21363583        78804743600000000745119052018215154516220******4206   0000000168320000000000000000000000000101000000016832180620180000X0PW0VPOSC1363583        05327598986N+                                                                                                                                                                                                                                    
11363583        SMPOS788047421190520181806201803300435300130020216000000001000000000000000019460000000019081000000000000000000000379000000000000000000019081000000000000PG01011363583        00000000000000000000000000000000000000000000000000000000000000000000000000000000000000000000986 +                                                                                                                  
21363583        78804742100000000715919052018223156542820******6322   0000000194600000000000000000000000000101000000019460180620180000322662POSC1363583        05311109986N+                                                                                                                                                                                                                                    
11363583        SVPOS787779368190520181806201803300435300130020216000000004000000000000000083340000000081715000000000000000000001625000000000000000000081715000000000000PG01011363583        00000000000000000000000000000000000000000000000000000000000000000000000000000000000000000000986 +                                                                                                                  
21363583        78777936800000000742119052018203208406655******9250   0000000059700000000000000000000000000101000000005970180620180000622627POSC1363583        05327598986N+                                                                                                                                                                                                                                    
21363583        78777936800000000741719052018200805406655******2566   0000000313200000000000000000000000000101000000031320180620180000682295POSC1363583        05327598986N+                                                                                                                                                                                                                                    
21363583        78777936800000000740719052018161630453211******6251   0000000250000000000000000000000000000101000000025000180620180000665116POSC1363583        05327598986N+                                                                                                                                                                                                                                    
21363583        78777936800000000740919052018161706453211******4012   0000000210500000000000000000000000000101000000021050180620180000672214POSC1363583        05327598986N+                                                                                                                                                                                                                                    
11363583        SVPOS787779366190520181806201803300435300130020216000000001000000000000000021486000000021067000000000000000000000419000000000000000000021067000000000000PG01011363583        00000000000000000000000000000000000000000000000000000000000000000000000000000000000000000000986 +                                                                                                                  
21363583        78777936600000000714319052018154953477250******7582   0000000214860000000000000000000000000101000000021486180620180000878804POSC1363583        05311109986N+                                                                                                                                                                                                                                    
11363583        SMPOS787575062190520181806201803300435300130020216000000002000000000000000053665000000052618000000000000000000001047000000000000000000052618000000000000PG01011363583        00000000000000000000000000000000000000000000000000000000000000000000000000000000000000000000986 +                                                                                                                  
21363583        78757506200000000741919052018201654549167******4962   0000000241400000000000000000000000000101000000024140180620180000023474POSC1363583        05327598986N+                                                                                                                                                                                                                                    
21363583        78757506200000000742519052018204447553636******9926   0000000295250000000000000000000000000101000000029525180620180000093021POSC1363583        05327598986N+                                                                                                                                                                                                                                    
11363583        SMPOS787575019190520181806201803300435300130020216000000002000000000000000039810000000039033000000000000000000000777000000000000000000039033000000000000PG01011363583        00000000000000000000000000000000000000000000000000000000000000000000000000000000000000000000986 +                                                                                                                  
21363583        78757501900000000714719052018201539546056******5695   0000000191600000000000000000000000000101000000019160180620180000017439POSC1363583        05311109986N+                                                                                                                                                                                                                                    
21363583        78757501900000000714919052018204149553636******2755   0000000206500000000000000000000000000101000000020650180620180000086715POSC1363583        05311109986N+                                                                                                                                                                                                                                    
11363583        ECPOS787374240190520181806201803300435300130020216000000001000000000000000009730000000009552000000000000000000000178000000000000000000009552000000000000PG01011363583        00000000000000000000000000000000000000000000000000000000000000000000000000000000000000000000986 +                                                                                                                  
21363583        78737424000000000740119052018154430650485******5593   0000000097300000000000000000000000000101000000009730180620180000644388POSC1363583        05327598986N+                                                                                                                                                                                                                                    
11363583        SVPOS787268247190520181806201803300435300130020216000000003000000000000000064230000000062978000000000000000000001252000000000000000000062978000000000000PG01011363583        00000000000000000000000000000000000000000000000000000000000000000000000000000000000000000000986 +                                                                                                                  
21363583        78726824700000000738119052018141010419619******1886   0000000213400000000000000000000000000101000000021340180620180000102666POSC1363583        05327598986N+                                                                                                                                                                                                                                    
21363583        78726824700000000737519052018135709489391******9857   0000000200500000000000000000000000000101000000020050180620180000089978POSC1363583        05327598986N+                                                                                                                                                                                                                                    
21363583        78726824700000000739319052018150855490172******6224   0000000228400000000000000000000000000101000000022840180620180000055140POSC1363583        05327598986N+                                                                                                                                                                                                                                    
11363583        SVPOS787268203190520181806201803300435300130020216000000001000000000000000010150000000009952000000000000000000000198000000000000000000009952000000000000PG01011363583        00000000000000000000000000000000000000000000000000000000000000000000000000000000000000000000986 +                                                                                                                  
21363583        78726820300000000713919052018152555490172******2884   0000000101500000000000000000000000000101000000010150180620180000016216POSC1363583        05311109986N+                                                                                                                                                                                                                                    
11363583        SMPOS786965077190520181806201803300435300130020216000000006000000000000000113505000000111292000000000000000000002213000000000000000000111292000000000000PG01011363583        00000000000000000000000000000000000000000000000000000000000000000000000000000000000000000000986 +                                                                                                                  
21363583        78696507700000000738719052018143819521180******2830   0000000151650000000000000000000000000101000000015165180620180000383554POSC1363583        05327598986N+                                                                                                                                                                                                                                    
21363583        78696507700000000737919052018140904553636******3258   0000000197600000000000000000000000000101000000019760180620180000034917POSC1363583        05327598986N+                                                                                                                                                                                                                                    
21363583        78696507700000000739919052018154134523421******9154   0000000016900000000000000000000000000101000000001690180620180000EOP1BDPOSC1363583        05327598986N+                                                                                                                                                                                                                                    
21363583        78696507700000000737719052018140448553636******8289   0000000213400000000000000000000000000101000000021340180620180000022230POSC1363583        05327598986N+                                                                                                                                                                                                                                    
21363583        78696507700000000738519052018142418522840******3879   0000000326200000000000000000000000000101000000032620180620180000243576POSC1363583        05327598986N+                                                                                                                                                                                                                                    
21363583        78696507700000000739719052018153822522840******5568   0000000229300000000000000000000000000101000000022930180620180000383862POSC1363583        05327598986N+                                                                                                                                                                                                                                    
11363583        SMPOS786965043190520181806201803300435300130020216000000001000000000000000011225000000011006000000000000000000000219000000000000000000011006000000000000PG01011363583        00000000000000000000000000000000000000000000000000000000000000000000000000000000000000000000986 +                                                                                                                  
21363583        78696504300000000713519052018144421544626******5357   0000000112250000000000000000000000000101000000011225180620180000068546POSC1363583        05311109986N+                                                                                                                                                                                                                                    
11363583        SVPOS786030636180520181806201803300435300130020216000000002000000000000000029490000000028915000000000000000000000575000000000000000000028915000000000000PG01011363583        00000000000000000000000000000000000000000000000000000000000000000000000000000000000000000000986 +                                                                                                                  
21363583        78603063600000000735518052018232604406655******3144   0000000098300000000000000000000000000101000000009830180620180000661804POSC1363583        05327598986N+                                                                                                                                                                                                                                    
21363583        78603063600000000735718052018234333464611******1501   0000000196600000000000000000000000000101000000019660180620180000635926POSC1363583        05327598986N+                                                                                                                                                                                                                                    
11363583        SVPOS786030617180520181806201803300435300130020216000000003000000000000000031930000000031307000000000000000000000623000000000000000000031307000000000000PG01011363583        00000000000000000000000000000000000000000000000000000000000000000000000000000000000000000000986 +                                                                                                                  
21363583        78603061700000000712918052018230643457938******5189   0000000020000000000000000000000000000101000000002000180620180000070681POSC1363583        05311109986N+                                                                                                                                                                                                                                    
21363583        78603061700000000712118052018224934444456******9423   0000000099780000000000000000000000000101000000009978180620180000646057POSC1363583        05311109986N+                                                                                                                                                                                                                                    
21363583        78603061700000000712318052018225019498407******4950   0000000199520000000000000000000000000101000000019952180620180000647229POSC1363583        05311109986N+                                                                                                                                                                                                                                    
11363583        SMPOS786024237180520181806201803300435300130020216000000005000000000000000059070000000057917000000000000000000001153000000000000000000057917000000000000PG01011363583        00000000000000000000000000000000000000000000000000000000000000000000000000000000000000000000986 +                                                                                                                  
21363583        78602423700000000734318052018230831553636******7665   0000000191600000000000000000000000000101000000019160180620180000068025POSC1363583        05327598986N+                                                                                                                                                                                                                                    
21363583        78602423700000000735918052018234909550209******2312   0000000097300000000000000000000000000101000000009730180620180000RCQOVMPOSC1363583        05327598986N+                                                                                                                                                                                                                                    
21363583        78602423700000000734118052018225202553636******6259   0000000104500000000000000000000000000101000000010450180620180000041804POSC1363583        05327598986N+                                                                                                                                                                                                                                    
21363583        78602423700000000733918052018225120549167******5432   0000000100000000000000000000000000000101000000010000180620180000044555POSC1363583        05327598986N+                                                                                                                                                                                                                                    
21363583        78602423700000000736118052018234945536537******5114   0000000097300000000000000000000000000101000000009730180620180000F01940POSC1363583        05327598986N+                                                                                                                                                                                                                                    
11363583        SVPOS785846877180520181806201803300435300130020216000000003000000000000000067608000000066289000000000000000000001319000000000000000000066289000000000000PG01011363583        00000000000000000000000000000000000000000000000000000000000000000000000000000000000000000000986 +                                                                                                                  
21363583        78584687700000000732318052018220048490172******2925   0000000205500000000000000000000000000101000000020550180620180000057794POSC1363583        05327598986N+                                                                                                                                                                                                                                    
21363583        78584687700000000731318052018213025406669******4498   0000000224400000000000000000000000000101000000022440180620180000605122POSC1363583        05327598986N+                                                                                                                                                                                                                                    
21363583        78584687700000000730118052018205603406669******1944   0000000246180000000000000000000000000101000000024618180620180000663167POSC1363583        05327598986N+                                                                                                                                                                                                                                    
11363583        SMPOS785806117180520181806201803300435300130020216000000010000000000000000182240000000178686000000000000000000003554000000000000000000178686000000000000PG01011363583        00000000000000000000000000000000000000000000000000000000000000000000000000000000000000000000986 +                                                                                                                  
21363583        78580611700000000733118052018222052515590******6918   0000000195600000000000000000000000000101000000019560180620180000210767POSC1363583        05327598986N+                                                                                                                                                                                                                                    
21363583        78580611700000000731118052018211959516230******9490   00000002036000000000000000000000000001010000000203601806201800006CJHONPOSC1363583        05327598986N+                                                                                                                                                                                                                                    
21363583        78580611700000000730918052018211053549167******0234   0000000145500000000000000000000000000101000000014550180620180000057322POSC1363583        05327598986N+                                                                                                                                                                                                                                    
21363583        78580611700000000730718052018210827549167******0177   0000000244460000000000000000000000000101000000024446180620180000043793POSC1363583        05327598986N+                                                                                                                                                                                                                                    
21363583        78580611700000000732518052018220329549167******7005   0000000195600000000000000000000000000101000000019560180620180000074518POSC1363583        05327598986N+                                                                                                                                                                                                                                    
21363583        78580611700000000730518052018205900539091******7668   0000000105360000000000000000000000000101000000010536180620180000031592POSC1363583        05327598986N+                                                                                                                                                                                                                                    
21363583        78580611700000000732918052018221723514945******3339   0000000195150000000000000000000000000101000000019515180620180000099751POSC1363583        05327598986N+                                                                                                                                                                                                                                    
21363583        78580611700000000732118052018215315553636******7336   0000000095800000000000000000000000000101000000009580180620180000045998POSC1363583        05327598986N+                                                                                                                                                                                                                                    
21363583        78580611700000000730318052018205641552305******9573   0000000246180000000000000000000000000101000000024618180620180000670087POSC1363583        05327598986N+                                                                                                                                                                                                                                    
21363583        78580611700000000732718052018221649515590******5557   0000000195150000000000000000000000000101000000019515180620180000170564POSC1363583        05327598986N+                                                                                                                                                                                                                                    
11363583        SMPOS785806065180520181806201803300435300130020216000000003000000000000000051958000000050944000000000000000000001014000000000000000000050944000000000000PG01011363583        00000000000000000000000000000000000000000000000000000000000000000000000000000000000000000000986 +                                                                                                                  
21363583        78580606500000000711318052018221959516292******1969   000000020650000000000000000000000000010100000002065018062018000084S2LDPOSC1363583        05311109986N+                                                                                                                                                                                                                                    
21363583        78580606500000000711118052018220911549167******5916   0000000213300000000000000000000000000101000000021330180620180000076491POSC1363583        05311109986N+                                                                                                                                                                                                                                    
21363583        78580606500000000711918052018224850540105******8735   0000000099780000000000000000000000000101000000009978180620180000492259POSC1363583        05311109986N+                                                                                                                                                                                                                                    
11363583        SVPOS785428104180520181806201803300435300130020216000000001000000000000000008760000000008589000000000000000000000171000000000000000000008589000000000000PG01011363583        00000000000000000000000000000000000000000000000000000000000000000000000000000000000000000000986 +                                                                                                                  
21363583        78542810400000000729718052018202821406655******7967   0000000087600000000000000000000000000101000000008760180620180000684388POSC1363583        05327598986N+                                                                                                                                                                                                                                    
11363583        SVPOS785428073180520181806201803300435300130020216000000001000000000000000021060000000020649000000000000000000000411000000000000000000020649000000000000PG01011363583        00000000000000000000000000000000000000000000000000000000000000000000000000000000000000000000986 +                                                                                                                  
21363583        78542807300000000710518052018163524455187******9022   0000000210600000000000000000000000000101000000021060180620180000655019POSC1363583        05311109986N+                                                                                                                                                                                                                                    
11363583        SMPOS785106315180520181806201803300435300130020216000000005000000000000000084850000000083195000000000000000000001655000000000000000000083195000000000000PG01011363583        00000000000000000000000000000000000000000000000000000000000000000000000000000000000000000000986 +                                                                                                                  
21363583        78510631500000000728318052018163632552128******9508   0000000052500000000000000000000000000101000000005250180620180000570838POSC1363583        05327598986N+                                                                                                                                                                                                                                    
21363583        78510631500000000729518052018201420515590******7392   0000000219500000000000000000000000000101000000021950180620180000143873POSC1363583        05327598986N+                                                                                                                                                                                                                                    
21363583        78510631500000000729318052018201259522840******7575   0000000365100000000000000000000000000101000000036510180620180000132277POSC1363583        05327598986N+                                                                                                                                                                                                                                    
21363583        78510631500000000729918052018203000545719******7134   0000000097800000000000000000000000000101000000009780180620180000044571POSC1363583        05327598986N+                                                                                                                                                                                                                                    
21363583        78510631500000000729118052018191104544731******5009   0000000113600000000000000000000000000101000000011360180620180000112573POSC1363583        05327598986N+                                                                                                                                                                                                                                    
11363583        ACPOS784924171180520181806201803300435300130020216000000001000000000000000018770000000018203000000000000000000000567000000000000000000018203000000000000PG01011363583        00000000000000000000000000000000000000000000000000000000000000000000000000000000000000000000986 +                                                                                                                  
21363583        78492417100000000708318052018132716376607*****1008    0000000187700000000000000000000000000101000000018770180620180000826420POSC1363583        05311109986N+                                                                                                                                                                                                                                    
11363583        SVPOS784757562180520181806201803300435300130020216000000001000000000000000014000000000013727000000000000000000000273000000000000000000013727000000000000PG01011363583        00000000000000000000000000000000000000000000000000000000000000000000000000000000000000000000986 +                                                                                                                  
21363583        78475756200000000709518052018145240406669******5385   0000000140000000000000000000000000000101000000014000180620180000630257POSC1363583        05311109986N+                                                                                                                                                                                                                                    
11363583        SMPOS784438846180520181806201803300435300130020216000000002000000000000000042370000000041544000000000000000000000826000000000000000000041544000000000000PG01011363583        00000000000000000000000000000000000000000000000000000000000000000000000000000000000000000000986 +                                                                                                                  
21363583        78443884600000000710318052018152516553636******4216   0000000220200000000000000000000000000101000000022020180620180000099546POSC1363583        05311109986N+                                                                                                                                                                                                                                    
21363583        78443884600000000708918052018142625553636******9828   0000000203500000000000000000000000000101000000020350180620180000005748POSC1363583        05311109986N+                                                                                                                                                                                                                                    
11363583        SVPOS783798257170520181806201803300435300130020216000000002000000000000000024183000000023711000000000000000000000472000000000000000000023711000000000000PG01011363583        00000000000000000000000000000000000000000000000000000000000000000000000000000000000000000000986 +                                                                                                                  
21363583        78379825700000000706117052018230958498423******3358   0000000165960000000000000000000000000101000000016596180620180000084023POSC1363583        05311109986N+                                                                                                                                                                                                                                    
21363583        78379825700000000707117052018234332419620******0704   0000000075870000000000000000000000000101000000007587180620180000440547POSC1363583        05311109986N+                                                                                                                                                                                                                                    
11363583        SMPOS783797350170520181806201803300435300130020216000000002000000000000000038848000000038091000000000000000000000757000000000000000000038091000000000000PG01011363583        00000000000000000000000000000000000000000000000000000000000000000000000000000000000000000000986 +                                                                                                                  
21363583        78379735000000000727517052018225303552693******8528   0000000097120000000000000000000000000101000000009712180620180000532481POSC1363583        05327598986N+                                                                                                                                                                                                                                    
21363583        78379735000000000727317052018225224553636******7984   0000000291360000000000000000000000000101000000029136180620180000071251POSC1363583        05327598986N+                                                                                                                                                                                                                                    
11363583        SMPOS783797344170520181806201803300435300130020216000000005000000000000000080845000000079267000000000000000000001578000000000000000000079267000000000000PG01011363583        00000000000000000000000000000000000000000000000000000000000000000000000000000000000000000000986 +                                                                                                                  
21363583        78379734400000000704517052018225326523284******5475   0000000150000000000000000000000000000101000000015000180620180000092247POSC1363583        05311109986N+                                                                                                                                                                                                                                    
21363583        78379734400000000707517052018234502552693******6170   0000000220820000000000000000000000000101000000022082180620180000452765POSC1363583        05311109986N+                                                                                                                                                                                                                                    
21363583        78379734400000000707317052018234422514945******6131   0000000100000000000000000000000000000101000000010000180620180000017586POSC1363583        05311109986N+                                                                                                                                                                                                                                    
