02106201803324721062018CEADM1001363583        10440482000154GETNET S.A.         000000154GSSANT. V.8.0 400 BYTES                                                                                                                                                                                                                                                                                                
11363583        SVPOS847297956200620182007201803300435300130020216000000001000000000000000005000000000004902000000000000000000000098000000000000000000004902000000000000PF01011363583        00000000000000000000000000000000000000000000000000000000000000000000000000000000000000000000986 +                                                                                                                  
21363583        84729795600000000969320062018232158490172******2925   0000000050000000000000000000000000000101000000005000200720180000040687POSC1363583        05327598986N+                                                                                                                                                                                                                                    
11363583        SMPOS847297110200620182007201803300435300130020216000000001000000000000000022030000000021600000000000000000000000430000000000000000000021600000000000000PF01011363583        00000000000000000000000000000000000000000000000000000000000000000000000000000000000000000000986 +                                                                                                                  
21363583        84729711000000000969120062018232104549167******3326   0000000220300000000000000000000000000101000000022030200720180000040047POSC1363583        05327598986N+                                                                                                                                                                                                                                    
11363583        SMPOS847297106200620182007201803300435300130020216000000001000000000000000023040000000022591000000000000000000000449000000000000000000022591000000000000PF01011363583        00000000000000000000000000000000000000000000000000000000000000000000000000000000000000000000986 +                                                                                                                  
21363583        84729710600000000888720062018225652512682******3016   0000000230400000000000000000000000000101000000023040200720180000901340POSC1363583        05311109986N+                                                                                                                                                                                                                                    
11363583        SVPOS847171376200620182007201803300435300130020216000000002000000000000000030330000000029739000000000000000000000591000000000000000000029739000000000000PF01011363583        00000000000000000000000000000000000000000000000000000000000000000000000000000000000000000000986 +                                                                                                                  
21363583        84717137600000000967520062018211237439027******7507   0000000224300000000000000000000000000101000000022430200720180000625534POSC1363583        05327598986N+                                                                                                                                                                                                                                    
21363583        84717137600000000967320062018211201428267******1012   0000000079000000000000000000000000000101000000007900200720180000091797POSC1363583        05327598986N+                                                                                                                                                                                                                                    
11363583        SVPOS847171354200620182007201803300435300130020216000000004000000000000000064225000000062973000000000000000000001252000000000000000000062973000000000000PF01011363583        00000000000000000000000000000000000000000000000000000000000000000000000000000000000000000000986 +                                                                                                                  
21363583        84717135400000000887120062018215713498554******1964   0000000158550000000000000000000000000101000000015855200720180000039390POSC1363583        05311109986N+                                                                                                                                                                                                                                    
21363583        84717135400000000887920062018220904455183******9197   0000000091000000000000000000000000000101000000009100200720180000693135POSC1363583        05311109986N+                                                                                                                                                                                                                                    
21363583        84717135400000000885720062018214619439027******4721   0000000185000000000000000000000000000101000000018500200720180000664481POSC1363583        05311109986N+                                                                                                                                                                                                                                    
21363583        84717135400000000887320062018215853406655******8831   0000000207700000000000000000000000000101000000020770200720180000692356POSC1363583        05311109986N+                                                                                                                                                                                                                                    
11363583        SMPOS847156251200620182007201803300435300130020216000000002000000000000000038370000000037622000000000000000000000748000000000000000000037622000000000000PF01011363583        00000000000000000000000000000000000000000000000000000000000000000000000000000000000000000000986 +                                                                                                                  
21363583        84715625100000000966520062018210655544315******9135   0000000205500000000000000000000000000101000000020550200720180000630315POSC1363583        05327598986N+                                                                                                                                                                                                                                    
21363583        84715625100000000968120062018214015514868******0688   0000000178200000000000000000000000000101000000017820200720180000087184POSC1363583        05327598986N+                                                                                                                                                                                                                                    
11363583        SMPOS847156217200620182007201803300435300130020216000000005000000000000000085445000000083780000000000000000000001665000000000000000000083780000000000000PF01011363583        00000000000000000000000000000000000000000000000000000000000000000000000000000000000000000000986 +                                                                                                                  
21363583        84715621700000000887520062018220357522840******3823   0000000231500000000000000000000000000101000000023150200720180000050167POSC1363583        05311109986N+                                                                                                                                                                                                                                    
21363583        84715621700000000887720062018220645550209******0160   0000000142750000000000000000000000000101000000014275200720180000LUBWR6POSC1363583        05311109986N+                                                                                                                                                                                                                                    
21363583        84715621700000000888520062018223707549167******5919   0000000084650000000000000000000000000101000000008465200720180000000353POSC1363583        05311109986N+                                                                                                                                                                                                                                    
21363583        84715621700000000885520062018213505553636******7667   0000000303300000000000000000000000000101000000030330200720180000075699POSC1363583        05311109986N+                                                                                                                                                                                                                                    
21363583        84715621700000000888120062018220948523421******0810   0000000092250000000000000000000000000101000000009225200720180000EMWQWLPOSC1363583        05311109986N+                                                                                                                                                                                                                                    
11363583        SVPOS846750456200620182007201803300435300130020216000000003000000000000000024282000000023809000000000000000000000473000000000000000000023809000000000000PF01011363583        00000000000000000000000000000000000000000000000000000000000000000000000000000000000000000000986 +                                                                                                                  
21363583        84675045600000000963520062018163726459080******9081   0000000101450000000000000000000000000101000000010145200720180000029146POSC1363583        05327598986N+                                                                                                                                                                                                                                    
21363583        84675045600000000963720062018164201415275******3165   0000000080720000000000000000000000000101000000008072200720180000080205POSC1363583        05327598986N+                                                                                                                                                                                                                                    
21363583        84675045600000000965120062018193416415274******2175   0000000060650000000000000000000000000101000000006065200720180000038518POSC1363583        05327598986N+                                                                                                                                                                                                                                    
11363583        SMPOS846500125200620182007201803300435300130020216000000003000000000000000026827000000026304000000000000000000000523000000000000000000026304000000000000PF01011363583        00000000000000000000000000000000000000000000000000000000000000000000000000000000000000000000986 +                                                                                                                  
21363583        84650012500000000964520062018173121548649******7679   0000000035900000000000000000000000000101000000003590200720180000313801POSC1363583        05327598986N+                                                                                                                                                                                                                                    
21363583        84650012500000000964720062018190821544731******8154   0000000151650000000000000000000000000101000000015165200720180000083873POSC1363583        05327598986N+                                                                                                                                                                                                                                    
21363583        84650012500000000963920062018164239515590******8821   0000000080720000000000000000000000000101000000008072200720180000425579POSC1363583        05327598986N+                                                                                                                                                                                                                                    
11363583        SMPOS846500092200620182007201803300435300130020216000000002000000000000000031655000000031037000000000000000000000618000000000000000000031037000000000000PF01011363583        00000000000000000000000000000000000000000000000000000000000000000000000000000000000000000000986 +                                                                                                                  
21363583        84650009200000000884320062018202354515590******8130   0000000179800000000000000000000000000101000000017980200720180000242759POSC1363583        05311109986N+                                                                                                                                                                                                                                    
21363583        84650009200000000884520062018202849546452******1632   0000000136750000000000000000000000000101000000013675200720180000012100POSC1363583        05311109986N+                                                                                                                                                                                                                                    
11363583        SMPOS846500054200620182007201803300435300130020216000000001000000000000000022950000000022502000000000000000000000448000000000000000000022502000000000000PF01011363583        00000000000000000000000000000000000000000000000000000000000000000000000000000000000000000000986 +                                                                                                                  
21363583        84650005400000000884920062018203414533920******3219   0000000229500000000000000000000000000101000000022950200720180000069164POSC1363583        05311109986N+                                                                                                                                                                                                                                    
11363583        SVPOS846244184200620182007201803300435300130020216000000001000000000000000006742000000006611000000000000000000000131000000000000000000006611000000000000PF01011363583        00000000000000000000000000000000000000000000000000000000000000000000000000000000000000000000986 +                                                                                                                  
21363583        84624418400000000961320062018140624452407******9303   0000000067420000000000000000000000000101000000006742200720180000609946POSC1363583        05327598986N+                                                                                                                                                                                                                                    
11363583        SMPOS845891968200620182007201803300435300130020216000000001000000000000000009780000000009589000000000000000000000191000000000000000000009589000000000000PF01011363583        00000000000000000000000000000000000000000000000000000000000000000000000000000000000000000000986 +                                                                                                                  
21363583        84589196800000000960920062018140233545719******7134   0000000097800000000000000000000000000101000000009780200720180000061885POSC1363583        05327598986N+                                                                                                                                                                                                                                    
11363583        EDPOS847184854200620182106201803300435300130020216000000002000000000000000026235000000025828000000000000000000000407000000000000000000025828000000000000PG01011363583        00000000000000000000000000000000000000000000000000000000000000000000000000000000000000000000986 +                                                                                                                  
21363583        84718485400000000967920062018212345506731******9108   0000000163550000000000000000000000000101000000016355210620180000301007POSC1363583        05327598986N+                                                                                                                                                                                                                                    
21363583        84718485400000000968520062018222357506727******9109   0000000098800000000000000000000000000101000000009880210620180000301531POSC1363583        05327598986N+                                                                                                                                                                                                                                    
11363583        EDPOS847184846200620182106201803300435300130020216000000001000000000000000008000000000007876000000000000000000000124000000000000000000007876000000000000PG01011363583        00000000000000000000000000000000000000000000000000000000000000000000000000000000000000000000986 +                                                                                                                  
21363583        84718484600000000888320062018223622650494******4101   0000000080000000000000000000000000000101000000008000210620180000302346POSC1363583        05311109986N+                                                                                                                                                                                                                                    
11363583        SEPOS847177606200620182106201803300435300130020216000000003000000000000000058145000000057360000000000000000000000785000000000000000000057360000000000000PG01011363583        00000000000000000000000000000000000000000000000000000000000000000000000000000000000000000000986 +                                                                                                                  
21363583        84717760600000000966720062018210753493100******5954   0000000142750000000000000000000000000101000000014275210620180000300960POSC1363583        05327598986N+                                                                                                                                                                                                                                    
21363583        84717760600000000967720062018211939490172******6477   0000000215400000000000000000000000000101000000021540210620180000117337POSC1363583        05327598986N+                                                                                                                                                                                                                                    
21363583        84717760600000000968320062018221004422061******8648   0000000223300000000000000000000000000101000000022330210620180000102276POSC1363583        05327598986N+                                                                                                                                                                                                                                    
11363583        SRPOS847164337200620182106201803300435300130020216000000002000000000000000027710000000027336000000000000000000000374000000000000000000027336000000000000PG01011363583        00000000000000000000000000000000000000000000000000000000000000000000000000000000000000000000986 +                                                                                                                  
21363583        84716433700000000968920062018222852603689*********07730000000203400000000000000000000000000101000000020340210620180000307915POSC1363583        05327598986N+                                                                                                                                                                                                                                    
21363583        84716433700000000966320062018210606589916******8698   0000000073700000000000000000000000000101000000007370210620180000633517POSC1363583        05327598986N+                                                                                                                                                                                                                                    
11363583        SRPOS847164289200620182106201803300435300130020216000000008000000000000000165430000000163195000000000000000000002235000000000000000000163195000000000000PG01011363583        00000000000000000000000000000000000000000000000000000000000000000000000000000000000000000000986 +                                                                                                                  
21363583        84716428900000000886120062018215235589916******0084   0000000263500000000000000000000000000101000000026350210620180000654833POSC1363583        05311109986N+                                                                                                                                                                                                                                    
21363583        84716428900000000885920062018214705514945******8607   0000000148000000000000000000000000000101000000014800210620180000650880POSC1363583        05311109986N+                                                                                                                                                                                                                                    
21363583        84716428900000000885320062018213409502121******0848   0000000212400000000000000000000000000101000000021240210620180000342961POSC1363583        05311109986N+                                                                                                                                                                                                                                    
21363583        84716428900000000886720062018215552525718******8865   0000000114500000000000000000000000000101000000011450210620180000655619POSC1363583        05311109986N+                                                                                                                                                                                                                                    
21363583        84716428900000000886920062018215629603689*********10870000000100000000000000000000000000000101000000010000210620180000280647POSC1363583        05311109986N+                                                                                                                                                                                                                                    
21363583        84716428900000000886520062018215344526863******5108   0000000263500000000000000000000000000101000000026350210620180000655245POSC1363583        05311109986N+                                                                                                                                                                                                                                    
21363583        84716428900000000885120062018212852514945******2349   0000000288900000000000000000000000000101000000028890210620180000644359POSC1363583        05311109986N+                                                                                                                                                                                                                                    
21363583        84716428900000000886320062018215314515590******4937   0000000263500000000000000000000000000101000000026350210620180000533681POSC1363583        05311109986N+                                                                                                                                                                                                                                    
11363583        EDPOS846926756200620182106201803300435300130020216000000001000000000000000019750000000019444000000000000000000000306000000000000000000019444000000000000PG01011363583        00000000000000000000000000000000000000000000000000000000000000000000000000000000000000000000986 +                                                                                                                  
21363583        84692675600000000963120062018162312627780******0517   0000000197500000000000000000000000000101000000019750210620180000020162POSC1363583        05327598986N+                                                                                                                                                                                                                                    
11363583        SEPOS846827457200620182106201803300435300130020216000000002000000000000000040300000000039756000000000000000000000544000000000000000000039756000000000000PG01011363583        00000000000000000000000000000000000000000000000000000000000000000000000000000000000000000000986 +                                                                                                                  
21363583        84682745700000000965320062018194950473200******9200   0000000195600000000000000000000000000101000000019560210620180000300150POSC1363583        05327598986N+                                                                                                                                                                                                                                    
21363583        84682745700000000965920062018204548483042******4206   0000000207400000000000000000000000000101000000020740210620180000300855POSC1363583        05327598986N+                                                                                                                                                                                                                                    
11363583        SRPOS846639630200620182106201803300435300130020216000000004000000000000000046985000000046351000000000000000000000634000000000000000000046351000000000000PG01011363583        00000000000000000000000000000000000000000000000000000000000000000000000000000000000000000000986 +                                                                                                                  
21363583        84663963000000000964920062018193342589916******7766   0000000090000000000000000000000000000101000000009000210620180000570109POSC1363583        05327598986N+                                                                                                                                                                                                                                    
21363583        84663963000000000963320062018163649589916******0587   0000000101750000000000000000000000000101000000010175210620180000402939POSC1363583        05327598986N+                                                                                                                                                                                                                                    
21363583        84663963000000000964120062018165810514945******2773   0000000052700000000000000000000000000101000000005270210620180000419305POSC1363583        05327598986N+                                                                                                                                                                                                                                    
21363583        84663963000000000965720062018202547589916******7864   0000000225400000000000000000000000000101000000022540210620180000609248POSC1363583        05327598986N+                                                                                                                                                                                                                                    
11363583        SRPOS846639588200620182106201803300435300130020216000000001000000000000000013600000000013416000000000000000000000184000000000000000000013416000000000000PG01011363583        00000000000000000000000000000000000000000000000000000000000000000000000000000000000000000000986 +                                                                                                                  
21363583        84663958800000000884720062018203016546452******1632   0000000136000000000000000000000000000101000000013600210620180000730815POSC1363583        05311109986N+                                                                                                                                                                                                                                    
11363583        SEPOS846336634200620182106201803300435300130020216000000001000000000000000011400000000011246000000000000000000000154000000000000000000011246000000000000PG01011363583        00000000000000000000000000000000000000000000000000000000000000000000000000000000000000000000986 +                                                                                                                  
21363583        84633663400000000962520062018144545438009******4917   0000000114000000000000000000000000000101000000011400210620180000297441POSC1363583        05327598986N+                                                                                                                                                                                                                                    
11363583        SRPOS846078498200620182106201803300435300130020216000000007000000000000000057914000000057131000000000000000000000783000000000000000000057131000000000000PG01011363583        00000000000000000000000000000000000000000000000000000000000000000000000000000000000000000000986 +                                                                                                                  
21363583        84607849800000000961920062018143136589916******9188   0000000131500000000000000000000000000101000000013150210620180000307910POSC1363583        05327598986N+                                                                                                                                                                                                                                    
21363583        84607849800000000962720062018150451523284******1427   0000000067430000000000000000000000000101000000006743210620180000332153POSC1363583        05327598986N+                                                                                                                                                                                                                                    
21363583        84607849800000000962320062018144432524820******2187   0000000079730000000000000000000000000101000000007973210620180000317789POSC1363583        05327598986N+                                                                                                                                                                                                                                    
21363583        84607849800000000962920062018150519589916******8941   0000000067430000000000000000000000000101000000006743210620180000332236POSC1363583        05327598986N+                                                                                                                                                                                                                                    
21363583        84607849800000000961720062018143109589916******9463   0000000070000000000000000000000000000101000000007000210620180000307394POSC1363583        05327598986N+                                                                                                                                                                                                                                    
21363583        84607849800000000962120062018144404589916******9792   0000000079730000000000000000000000000101000000007973210620180000317528POSC1363583        05327598986N+                                                                                                                                                                                                                                    
21363583        84607849800000000961520062018140654639350******6770   0000000083320000000000000000000000000101000000008332210620180000337288POSC1363583        05327598986N+                                                                                                                                                                                                                                    
11363583        SVPOS793177047220520182106201803300435300130020216000000002000000000000000047566000000046639000000000000000000000927000000000000000000046639000000000000PG01011363583        00000000000000000000000000000000000000000000000000000000000000000000000000000000000000000000986 +                                                                                                                  
21363583        79317704700000000731322052018232000406168******7464   0000000159550000000000000000000000000101000000015955210620180000081921POSC1363583        05311109986N+                                                                                                                                                                                                                                    
21363583        79317704700000000731122052018231440464611******1972   0000000316110000000000000000000000000101000000031611210620180000650304POSC1363583        05311109986N+                                                                                                                                                                                                                                    
11363583        SMPOS793176577220520182106201803300435300130020216000000003000000000000000030390000000029798000000000000000000000592000000000000000000029798000000000000PG01011363583        00000000000000000000000000000000000000000000000000000000000000000000000000000000000000000000986 +                                                                                                                  
21363583        79317657700000000730522052018225324523421******7846   0000000152000000000000000000000000000101000000015200210620180000IQYHXAPOSC1363583        05311109986N+                                                                                                                                                                                                                                    
21363583        79317657700000000730722052018225402530049******0649   0000000075950000000000000000000000000101000000007595210620180000030876POSC1363583        05311109986N+                                                                                                                                                                                                                                    
21363583        79317657700000000729722052018225058523421******2679   000000007595000000000000000000000000010100000000759521062018000017FVWIPOSC1363583        05311109986N+                                                                                                                                                                                                                                    
11363583        SVPOS793074693220520182106201803300435300130020216000000004000000000000000094535000000092692000000000000000000001843000000000000000000092692000000000000PG01011363583        00000000000000000000000000000000000000000000000000000000000000000000000000000000000000000000986 +                                                                                                                  
21363583        79307469300000000765922052018221302407303******5277   0000000160550000000000000000000000000101000000016055210620180000131974POSC1363583        05327598986N+                                                                                                                                                                                                                                    
21363583        79307469300000000765522052018220144415274******1112   0000000201450000000000000000000000000101000000020145210620180000095161POSC1363583        05327598986N+                                                                                                                                                                                                                                    
21363583        79307469300000000765322052018214811406669******0340   0000000318100000000000000000000000000101000000031810210620180000683097POSC1363583        05327598986N+                                                                                                                                                                                                                                    
21363583        79307469300000000764722052018212729439354******8247   0000000265250000000000000000000000000101000000026525210620180000022899POSC1363583        05327598986N+                                                                                                                                                                                                                                    
11363583        SVPOS793074680220520182106201803300435300130020216000000001000000000000000004690000000004599000000000000000000000091000000000000000000004599000000000000PG01011363583        00000000000000000000000000000000000000000000000000000000000000000000000000000000000000000000986 +                                                                                                                  
21363583        79307468000000000727922052018211326498453******9125   0000000046900000000000000000000000000101000000004690210620180000009432POSC1363583        05311109986N+                                                                                                                                                                                                                                    
11363583        SMPOS793063488220520182106201803300435300130020216000000002000000000000000035390000000034700000000000000000000000690000000000000000000034700000000000000PG01011363583        00000000000000000000000000000000000000000000000000000000000000000000000000000000000000000000986 +                                                                                                                  
21363583        79306348800000000764322052018211828530034******2087   0000000158550000000000000000000000000101000000015855210620180000037700POSC1363583        05327598986N+                                                                                                                                                                                                                                    
21363583        79306348800000000764922052018213337550209******0571   000000019535000000000000000000000000010100000001953521062018000088PAWXPOSC1363583        05327598986N+                                                                                                                                                                                                                                    
11363583        SMPOS793063474220520182106201803300435300130020216000000001000000000000000015065000000014771000000000000000000000294000000000000000000014771000000000000PG01011363583        00000000000000000000000000000000000000000000000000000000000000000000000000000000000000000000986 +                                                                                                                  
21363583        79306347400000000728322052018215540544731******7904   0000000150650000000000000000000000000101000000015065210620180000560265POSC1363583        05311109986N+                                                                                                                                                                                                                                    
11363583        ACPOS792846487220520182106201803300435300130020216000000001000000000000000020650000000020026000000000000000000000624000000000000000000020026000000000000PG01011363583        00000000000000000000000000000000000000000000000000000000000000000000000000000000000000000000986 +                                                                                                                  
21363583        79284648700000000761522052018162629377169*****1008    0000000206500000000000000000000000000101000000020650210620180000664532POSC1363583        05327598986N+                                                                                                                                                                                                                                    
11363583        SVPOS792686842220520182106201803300435300130020216000000002000000000000000031511000000030897000000000000000000000614000000000000000000030897000000000000PG01011363583        00000000000000000000000000000000000000000000000000000000000000000000000000000000000000000000986 +                                                                                                                  
21363583        79268684200000000763122052018202557406655******6926   0000000146660000000000000000000000000101000000014666210620180000662096POSC1363583        05327598986N+                                                                                                                                                                                                                                    
21363583        79268684200000000762722052018201812406655******1147   0000000168450000000000000000000000000101000000016845210620180000683351POSC1363583        05327598986N+                                                                                                                                                                                                                                    
11363583        SMPOS791836495220520182106201803300435300130020216000000004000000000000000056608000000055504000000000000000000001104000000000000000000055504000000000000PG01011363583        00000000000000000000000000000000000000000000000000000000000000000000000000000000000000000000986 +                                                                                                                  
21363583        79183649500000000761322052018154411549159******6283   0000000142750000000000000000000000000101000000014275210620180000643246POSC1363583        05327598986N+                                                                                                                                                                                                                                    
21363583        79183649500000000761122052018141403527496******7156   0000000186550000000000000000000000000101000000018655210620180000018901POSC1363583        05327598986N+                                                                                                                                                                                                                                    
21363583        79183649500000000760922052018140624525663******6242   0000000158550000000000000000000000000101000000015855210620180000092735POSC1363583        05327598986N+                                                                                                                                                                                                                                    
21363583        79183649500000000760322052018133450553636******5595   0000000078230000000000000000000000000101000000007823210620180000067923POSC1363583        05327598986N+                                                                                                                                                                                                                                    
9000000114                                                                                                                                                                                                                                                                                                                                                                                                      
