02306201803063423062018CEADM1001363583        10440482000154GETNET S.A.         000000156GSSANT. V.8.0 400 BYTES                                                                                                                                                                                                                                                                                                
11363583        ACPOS851436666220620182307201803300435300130020216000000001000000000000000021040000000020405000000000000000000000635000000000000000000020405000000000000PF01011363583        00000000000000000000000000000000000000000000000000000000000000000000000000000000000000000000986 +                                                                                                                  
21363583        85143666600000000897922062018235252375138*****1002    0000000210400000000000000000000000000101000000021040230720180000634232POSC1363583        05311109986N+                                                                                                                                                                                                                                    
11363583        SEPOS851436517220620182506201803300435300130020216000000001000000000000000044630000000044027000000000000000000000603000000000000000000044027000000000000PF01011363583        00000000000000000000000000000000000000000000000000000000000000000000000000000000000000000000986 +                                                                                                                  
21363583        85143651700000000982322062018234726410392******2788   0000000446300000000000000000000000000101000000044630250620180000331152POSC1363583        05327598986N+                                                                                                                                                                                                                                    
11363583        SEPOS851436514220620182506201803300435300130020216000000002000000000000000041390000000040831000000000000000000000559000000000000000000040831000000000000PF01011363583        00000000000000000000000000000000000000000000000000000000000000000000000000000000000000000000986 +                                                                                                                  
21363583        85143651400000000897122062018230323422061******7776   0000000204500000000000000000000000000101000000020450250620180000035062POSC1363583        05311109986N+                                                                                                                                                                                                                                    
21363583        85143651400000000896522062018225912483042******0201   0000000209400000000000000000000000000101000000020940250620180000330920POSC1363583        05311109986N+                                                                                                                                                                                                                                    
11363583        SVPOS851435528220620182307201803300435300130020216000000002000000000000000033110000000032464000000000000000000000646000000000000000000032464000000000000PF01011363583        00000000000000000000000000000000000000000000000000000000000000000000000000000000000000000000986 +                                                                                                                  
21363583        85143552800000000897522062018232811453211******9004   0000000217500000000000000000000000000101000000021750230720180000683596POSC1363583        05311109986N+                                                                                                                                                                                                                                    
21363583        85143552800000000896722062018230049439027******0402   0000000113600000000000000000000000000101000000011360230720180000611489POSC1363583        05311109986N+                                                                                                                                                                                                                                    
11363583        SRPOS851434548220620182506201803300435300130020216000000001000000000000000019360000000019099000000000000000000000261000000000000000000019099000000000000PF01011363583        00000000000000000000000000000000000000000000000000000000000000000000000000000000000000000000986 +                                                                                                                  
21363583        85143454800000000982122062018232930542820******0359   0000000193600000000000000000000000000101000000019360250620180000295979POSC1363583        05327598986N+                                                                                                                                                                                                                                    
11363583        SRPOS851434543220620182506201803300435300130020216000000001000000000000000011360000000011207000000000000000000000153000000000000000000011207000000000000PF01011363583        00000000000000000000000000000000000000000000000000000000000000000000000000000000000000000000986 +                                                                                                                  
21363583        85143454300000000896922062018230145524820******2911   0000000113600000000000000000000000000101000000011360250620180000661403POSC1363583        05311109986N+                                                                                                                                                                                                                                    
11363583        SMPOS851433124220620182307201803300435300130020216000000005000000000000000070940000000069556000000000000000000001384000000000000000000069556000000000000PF01011363583        00000000000000000000000000000000000000000000000000000000000000000000000000000000000000000000986 +                                                                                                                  
21363583        85143312400000000981322062018230315553636******7665   0000000201500000000000000000000000000101000000020150230720180000094495POSC1363583        05327598986N+                                                                                                                                                                                                                                    
21363583        85143312400000000981922062018232805533728******6160   0000000090000000000000000000000000000101000000009000230720180000906513POSC1363583        05327598986N+                                                                                                                                                                                                                                    
21363583        85143312400000000981122062018225959553636******2905   0000000210500000000000000000000000000101000000021050230720180000096515POSC1363583        05327598986N+                                                                                                                                                                                                                                    
21363583        85143312400000000981522062018231738553636******4349   0000000100800000000000000000000000000101000000010080230720180000012460POSC1363583        05327598986N+                                                                                                                                                                                                                                    
21363583        85143312400000000981722062018232738544731******9906   0000000106600000000000000000000000000101000000010660230720180000275777POSC1363583        05327598986N+                                                                                                                                                                                                                                    
11363583        EDPOS851282934220620182506201803300435300130020216000000002000000000000000046500000000045779000000000000000000000721000000000000000000045779000000000000PF01011363583        00000000000000000000000000000000000000000000000000000000000000000000000000000000000000000000986 +                                                                                                                  
21363583        85128293400000000979322062018215325627780******2009   0000000229800000000000000000000000000101000000022980250620180000166459POSC1363583        05327598986N+                                                                                                                                                                                                                                    
21363583        85128293400000000977522062018210056506727******9106   0000000235200000000000000000000000000101000000023520250620180000330056POSC1363583        05327598986N+                                                                                                                                                                                                                                    
11363583        ECPOS851279688220620182307201803300435300130020216000000001000000000000000025727000000025256000000000000000000000471000000000000000000025256000000000000PF01011363583        00000000000000000000000000000000000000000000000000000000000000000000000000000000000000000000986 +                                                                                                                  
21363583        85127968800000000894922062018221326651659******3716   0000000257270000000000000000000000000101000000025727230720180000709682POSC1363583        05311109986N+                                                                                                                                                                                                                                    
11363583        ACPOS851278603220620182307201803300435300130020216000000001000000000000000020740000000020114000000000000000000000626000000000000000000020114000000000000PF01011363583        00000000000000000000000000000000000000000000000000000000000000000000000000000000000000000000986 +                                                                                                                  
21363583        85127860300000000977322062018210003376472*****3007    0000000207400000000000000000000000000101000000020740230720180000601924POSC1363583        05327598986N+                                                                                                                                                                                                                                    
11363583        SEPOS851268825220620182506201803300435300130020216000000001000000000000000019560000000019296000000000000000000000264000000000000000000019296000000000000PF01011363583        00000000000000000000000000000000000000000000000000000000000000000000000000000000000000000000986 +                                                                                                                  
21363583        85126882500000000979922062018221438422061******8399   0000000195600000000000000000000000000101000000019560250620180000145866POSC1363583        05327598986N+                                                                                                                                                                                                                                    
11363583        SEPOS851268804220620182506201803300435300130020216000000001000000000000000020348000000020073000000000000000000000275000000000000000000020073000000000000PF01011363583        00000000000000000000000000000000000000000000000000000000000000000000000000000000000000000000986 +                                                                                                                  
21363583        85126880400000000894722062018221206483042******4205   0000000203480000000000000000000000000101000000020348250620180000330318POSC1363583        05311109986N+                                                                                                                                                                                                                                    
11363583        SVPOS851258141220620182307201803300435300130020216000000005000000000000000077490000000075978000000000000000000001512000000000000000000075978000000000000PF01011363583        00000000000000000000000000000000000000000000000000000000000000000000000000000000000000000000986 +                                                                                                                  
21363583        85125814100000000980922062018224045453211******1882   0000000207450000000000000000000000000101000000020745230720180000611725POSC1363583        05327598986N+                                                                                                                                                                                                                                    
21363583        85125814100000000980522062018223141490172******7184   0000000093850000000000000000000000000101000000009385230720180000039709POSC1363583        05327598986N+                                                                                                                                                                                                                                    
21363583        85125814100000000977922062018212301422061******1358   0000000172300000000000000000000000000101000000017230230720180000232457POSC1363583        05327598986N+                                                                                                                                                                                                                                    
21363583        85125814100000000980322062018223110422061******9508   0000000093850000000000000000000000000101000000009385230720180000313356POSC1363583        05327598986N+                                                                                                                                                                                                                                    
21363583        85125814100000000980722062018224012458919******0199   0000000207450000000000000000000000000101000000020745230720180000746692POSC1363583        05327598986N+                                                                                                                                                                                                                                    
11363583        SVPOS851258113220620182307201803300435300130020216000000002000000000000000058730000000057585000000000000000000001145000000000000000000057585000000000000PF01011363583        00000000000000000000000000000000000000000000000000000000000000000000000000000000000000000000986 +                                                                                                                  
21363583        85125811300000000895922062018223819421962******5334   0000000268200000000000000000000000000101000000026820230720180000162127POSC1363583        05311109986N+                                                                                                                                                                                                                                    
21363583        85125811300000000895122062018222242406655******5873   0000000319100000000000000000000000000101000000031910230720180000630981POSC1363583        05311109986N+                                                                                                                                                                                                                                    
11363583        SRPOS851243814220620182506201803300435300130020216000000003000000000000000042650000000042074000000000000000000000576000000000000000000042074000000000000PF01011363583        00000000000000000000000000000000000000000000000000000000000000000000000000000000000000000000986 +                                                                                                                  
21363583        85124381400000000979522062018215400552693******2221   0000000225000000000000000000000000000101000000022500250620180000543470POSC1363583        05327598986N+                                                                                                                                                                                                                                    
21363583        85124381400000000979122062018215137542974******3214   0000000100750000000000000000000000000101000000010075250620180000637043POSC1363583        05327598986N+                                                                                                                                                                                                                                    
21363583        85124381400000000978922062018215052529323******0406   0000000100750000000000000000000000000101000000010075250620180000635472POSC1363583        05327598986N+                                                                                                                                                                                                                                    
11363583        SRPOS851243789220620182506201803300435300130020216000000004000000000000000051250000000050557000000000000000000000693000000000000000000050557000000000000PF01011363583        00000000000000000000000000000000000000000000000000000000000000000000000000000000000000000000986 +                                                                                                                  
21363583        85124378900000000895522062018222745589916******0535   0000000150000000000000000000000000000101000000015000250620180000649672POSC1363583        05311109986N+                                                                                                                                                                                                                                    
21363583        85124378900000000896122062018224542518759******2325   0000000197600000000000000000000000000101000000019760250620180000286324POSC1363583        05311109986N+                                                                                                                                                                                                                                    
21363583        85124378900000000895722062018222817589916******2820   0000000049500000000000000000000000000101000000004950250620180000653007POSC1363583        05311109986N+                                                                                                                                                                                                                                    
21363583        85124378900000000896322062018224743515787******5397   0000000115400000000000000000000000000101000000011540250620180000885991POSC1363583        05311109986N+                                                                                                                                                                                                                                    
11363583        SMPOS851232093220620182307201803300435300130020216000000007000000000000000182490000000178931000000000000000000003559000000000000000000178931000000000000PF01011363583        00000000000000000000000000000000000000000000000000000000000000000000000000000000000000000000986 +                                                                                                                  
21363583        85123209300000000979722062018215512528400******7010   0000000399100000000000000000000000000101000000039910230720180000003179POSC1363583        05327598986N+                                                                                                                                                                                                                                    
21363583        85123209300000000978522062018214355522840******2405   0000000350150000000000000000000000000101000000035015230720180000441554POSC1363583        05327598986N+                                                                                                                                                                                                                                    
21363583        85123209300000000977122062018205256536805******8371   0000000209600000000000000000000000000101000000020960230720180000631369POSC1363583        05327598986N+                                                                                                                                                                                                                                    
21363583        85123209300000000977722062018210623526778******2077   0000000218500000000000000000000000000101000000021850230720180000R53968POSC1363583        05327598986N+                                                                                                                                                                                                                                    
21363583        85123209300000000978722062018214550550209******4250   0000000187700000000000000000000000000101000000018770230720180000PI3BMHPOSC1363583        05327598986N+                                                                                                                                                                                                                                    
21363583        85123209300000000978122062018213950514868******2494   0000000308200000000000000000000000000101000000030820230720180000014264POSC1363583        05327598986N+                                                                                                                                                                                                                                    
21363583        85123209300000000978322062018214208536805******7379   0000000151650000000000000000000000000101000000015165230720180000622838POSC1363583        05327598986N+                                                                                                                                                                                                                                    
11363583        SMPOS851232077220620182307201803300435300130020216000000001000000000000000021450000000021032000000000000000000000418000000000000000000021032000000000000PF01011363583        00000000000000000000000000000000000000000000000000000000000000000000000000000000000000000000986 +                                                                                                                  
21363583        85123207700000000895322062018222429553636******0345   0000000214500000000000000000000000000101000000021450230720180000002001POSC1363583        05311109986N+                                                                                                                                                                                                                                    
11363583        ACPOS850957693220620182307201803300435300130020216000000001000000000000000020850000000020220000000000000000000000630000000000000000000020220000000000000PF01011363583        00000000000000000000000000000000000000000000000000000000000000000000000000000000000000000000986 +                                                                                                                  
21363583        85095769300000000976722062018202729374769*****6614    0000000208500000000000000000000000000101000000020850230720180000675627POSC1363583        05327598986N+                                                                                                                                                                                                                                    
11363583        SEPOS850872989220620182506201803300435300130020216000000001000000000000000020650000000020371000000000000000000000279000000000000000000020371000000000000PF01011363583        00000000000000000000000000000000000000000000000000000000000000000000000000000000000000000000986 +                                                                                                                  
21363583        85087298900000000975922062018192255498406******5061   0000000206500000000000000000000000000101000000020650250620180000169800POSC1363583        05327598986N+                                                                                                                                                                                                                                    
11363583        SEPOS850872967220620182506201803300435300130020216000000001000000000000000025535000000025190000000000000000000000345000000000000000000025190000000000000PF01011363583        00000000000000000000000000000000000000000000000000000000000000000000000000000000000000000000986 +                                                                                                                  
21363583        85087296700000000894322062018170422483042******7309   0000000255350000000000000000000000000101000000025535250620180000327908POSC1363583        05311109986N+                                                                                                                                                                                                                                    
11363583        SVPOS850784584220620182307201803300435300130020216000000002000000000000000026835000000026311000000000000000000000524000000000000000000026311000000000000PF01011363583        00000000000000000000000000000000000000000000000000000000000000000000000000000000000000000000986 +                                                                                                                  
21363583        85078458400000000976522062018201805422061******7023   0000000149600000000000000000000000000101000000014960230720180000183055POSC1363583        05327598986N+                                                                                                                                                                                                                                    
21363583        85078458400000000975522062018173155422053******1060   0000000118750000000000000000000000000101000000011875230720180000090317POSC1363583        05327598986N+                                                                                                                                                                                                                                    
11363583        SVPOS850784570220620182307201803300435300130020216000000001000000000000000011850000000011619000000000000000000000231000000000000000000011619000000000000PF01011363583        00000000000000000000000000000000000000000000000000000000000000000000000000000000000000000000986 +                                                                                                                  
21363583        85078457000000000894122062018161104406655******4434   0000000118500000000000000000000000000101000000011850230720180000613241POSC1363583        05311109986N+                                                                                                                                                                                                                                    
11363583        SRPOS850648796220620182506201803300435300130020216000000002000000000000000018255000000018009000000000000000000000246000000000000000000018009000000000000PF01011363583        00000000000000000000000000000000000000000000000000000000000000000000000000000000000000000000986 +                                                                                                                  
21363583        85064879600000000975722062018173222523284******9492   0000000084750000000000000000000000000101000000008475250620180000426913POSC1363583        05327598986N+                                                                                                                                                                                                                                    
21363583        85064879600000000975122062018173043589916******2907   0000000097800000000000000000000000000101000000009780250620180000423377POSC1363583        05327598986N+                                                                                                                                                                                                                                    
11363583        SMPOS850509428220620182307201803300435300130020216000000003000000000000000074620000000073165000000000000000000001455000000000000000000073165000000000000PF01011363583        00000000000000000000000000000000000000000000000000000000000000000000000000000000000000000000986 +                                                                                                                  
21363583        85050942800000000976122062018194020515590******9248   0000000204500000000000000000000000000101000000020450230720180000405467POSC1363583        05327598986N+                                                                                                                                                                                                                                    
21363583        85050942800000000976922062018203036552305******6586   0000000326200000000000000000000000000101000000032620230720180000605499POSC1363583        05327598986N+                                                                                                                                                                                                                                    
21363583        85050942800000000976322062018200222541759******9510   0000000215500000000000000000000000000101000000021550230720180000004790POSC1363583        05327598986N+                                                                                                                                                                                                                                    
11363583        SEPOS850210146220620182506201803300435300130020216000000001000000000000000020000000000019730000000000000000000000270000000000000000000019730000000000000PF01011363583        00000000000000000000000000000000000000000000000000000000000000000000000000000000000000000000986 +                                                                                                                  
21363583        85021014600000000893922062018151204490172******5696   0000000200000000000000000000000000000101000000020000250620180000059193POSC1363583        05311109986N+                                                                                                                                                                                                                                    
11363583        SRPOS850017838220620182506201803300435300130020216000000001000000000000000010077000000009941000000000000000000000136000000000000000000009941000000000000PF01011363583        00000000000000000000000000000000000000000000000000000000000000000000000000000000000000000000986 +                                                                                                                  
21363583        85001783800000000893722062018151014549167******0828   0000000100770000000000000000000000000101000000010077250620180000300086POSC1363583        05311109986N+                                                                                                                                                                                                                                    
11363583        SMPOS849890485220620182307201803300435300130020216000000001000000000000000021540000000021120000000000000000000000420000000000000000000021120000000000000PF01011363583        00000000000000000000000000000000000000000000000000000000000000000000000000000000000000000000986 +                                                                                                                  
21363583        84989048500000000893322062018140314535088******1191   0000000215400000000000000000000000000101000000021540230720180000046942POSC1363583        05311109986N+                                                                                                                                                                                                                                    
9000000085                                                                                                                                                                                                                                                                                                                                                                                                      
