02506201803212325062018CEADM1001363583        10440482000154GETNET S.A.         000000158GSSANT. V.8.0 400 BYTES                                                                                                                                                                                                                                                                                                
11363583        ACPOS854809579240620182407201803300435300130020216000000001000000000000000020051000000019445000000000000000000000606000000000000000000019445000000000000PF01011363583        00000000000000000000000000000000000000000000000000000000000000000000000000000000000000000000986 +                                                                                                                  
21363583        85480957900000001001124062018214142376477*****1008    0000000200510000000000000000000000000101000000020051240720180000620468POSC1363583        05327598986N+                                                                                                                                                                                                                                    
11363583        SMPOS854792855240620182407201803300435300130020216000000008000000000000000116029000000113765000000000000000000002264000000000000000000113765000000000000PF01011363583        00000000000000000000000000000000000000000000000000000000000000000000000000000000000000000000986 +                                                                                                                  
21363583        85479285500000001001924062018215950526863******5417   0000000207410000000000000000000000000101000000020741240720180000008051POSC1363583        05327598986N+                                                                                                                                                                                                                                    
21363583        85479285500000001000724062018212128540105******3186   0000000136180000000000000000000000000101000000013618240720180000214851POSC1363583        05327598986N+                                                                                                                                                                                                                                    
21363583        85479285500000001001324062018215518544540******4475   0000000092850000000000000000000000000101000000009285240720180000067743POSC1363583        05327598986N+                                                                                                                                                                                                                                    
21363583        85479285500000001001724062018215822523421******6418   0000000382050000000000000000000000000101000000038205240720180000M5GIBTPOSC1363583        05327598986N+                                                                                                                                                                                                                                    
21363583        85479285500000001000124062018211630520977******9028   0000000099750000000000000000000000000101000000009975240720180000009569POSC1363583        05327598986N+                                                                                                                                                                                                                                    
21363583        85479285500000001000324062018211703523284******0386   0000000099750000000000000000000000000101000000009975240720180000045792POSC1363583        05327598986N+                                                                                                                                                                                                                                    
21363583        85479285500000000999724062018210332550209******3002   0000000108500000000000000000000000000101000000010850240720180000LRBNBTPOSC1363583        05327598986N+                                                                                                                                                                                                                                    
21363583        85479285500000001002124062018220931552128******4021   0000000033800000000000000000000000000101000000003380240720180000045506POSC1363583        05327598986N+                                                                                                                                                                                                                                    
11363583        SVPOS854634324240620182407201803300435300130020216000000003000000000000000057821000000056693000000000000000000001128000000000000000000056693000000000000PF01011363583        00000000000000000000000000000000000000000000000000000000000000000000000000000000000000000000986 +                                                                                                                  
21363583        85463432400000000997924062018183937422061******4082   0000000190000000000000000000000000000101000000019000240720180000402661POSC1363583        05327598986N+                                                                                                                                                                                                                                    
21363583        85463432400000000997524062018173331422061******3422   0000000191610000000000000000000000000101000000019161240720180000335357POSC1363583        05327598986N+                                                                                                                                                                                                                                    
21363583        85463432400000000998524062018194240422061******1122   0000000196600000000000000000000000000101000000019660240720180000425756POSC1363583        05327598986N+                                                                                                                                                                                                                                    
11363583        SVPOS854634262240620182407201803300435300130020216000000001000000000000000041590000000040779000000000000000000000811000000000000000000040779000000000000PF01011363583        00000000000000000000000000000000000000000000000000000000000000000000000000000000000000000000986 +                                                                                                                  
21363583        85463426200000000915124062018161405490172******3115   0000000415900000000000000000000000000101000000041590240720180000012399POSC1363583        05311109986N+                                                                                                                                                                                                                                    
11363583        SMPOS854495885240620182407201803300435300130020216000000004000000000000000080110000000078548000000000000000000001562000000000000000000078548000000000000PF01011363583        00000000000000000000000000000000000000000000000000000000000000000000000000000000000000000000986 +                                                                                                                  
21363583        85449588500000000995924062018160954515590******6647   0000000105700000000000000000000000000101000000010570240720180000100966POSC1363583        05327598986N+                                                                                                                                                                                                                                    
21363583        85449588500000000995124062018155419553636******9926   0000000269150000000000000000000000000101000000026915240720180000074593POSC1363583        05327598986N+                                                                                                                                                                                                                                    
21363583        85449588500000000996524062018163736550209******4215   00000002262500000000000000000000000001010000000226252407201800008PQTVPPOSC1363583        05327598986N+                                                                                                                                                                                                                                    
21363583        85449588500000000999324062018204349525663******6670   0000000200000000000000000000000000000101000000020000240720180000040183POSC1363583        05327598986N+                                                                                                                                                                                                                                    
11363583        SMPOS854495846240620182407201803300435300130020216000000002000000000000000018770000000018404000000000000000000000366000000000000000000018404000000000000PF01011363583        00000000000000000000000000000000000000000000000000000000000000000000000000000000000000000000986 +                                                                                                                  
21363583        85449584600000000914524062018155426550209******4829   0000000093850000000000000000000000000101000000009385240720180000FFVXICPOSC1363583        05311109986N+                                                                                                                                                                                                                                    
21363583        85449584600000000914724062018155453550209******2848   0000000093850000000000000000000000000101000000009385240720180000RHTOTHPOSC1363583        05311109986N+                                                                                                                                                                                                                                    
11363583        SMPOS854495824240620182407201803300435300130020216000000001000000000000000009741000000009551000000000000000000000190000000000000000000009551000000000000PF01011363583        00000000000000000000000000000000000000000000000000000000000000000000000000000000000000000000986 +                                                                                                                  
21363583        85449582400000000998124062018184048546616******4650   000000009741000000000000000000000000010100000000974124072018000060817PPOSC1363583        05327598986E+                                                                                                                                                                                                                                    
11363583        SVPOS854241863240620182407201803300435300130020216000000002000000000000000071930000000070527000000000000000000001403000000000000000000070527000000000000PF01011363583        00000000000000000000000000000000000000000000000000000000000000000000000000000000000000000000986 +                                                                                                                  
21363583        85424186300000000913124062018143616455185******0871   0000000516800000000000000000000000000101000000051680240720180000664453POSC1363583        05311109986N+                                                                                                                                                                                                                                    
21363583        85424186300000000913324062018144154415275******9121   0000000202500000000000000000000000000101000000020250240720180000059168POSC1363583        05311109986N+                                                                                                                                                                                                                                    
11363583        SMPOS854105162240620182407201803300435300130020216000000003000000000000000069940000000068576000000000000000000001364000000000000000000068576000000000000PF01011363583        00000000000000000000000000000000000000000000000000000000000000000000000000000000000000000000986 +                                                                                                                  
21363583        85410516200000000994524062018144114520405******5599   0000000193600000000000000000000000000101000000019360240720180000066736POSC1363583        05327598986N+                                                                                                                                                                                                                                    
21363583        85410516200000000994124062018140950525663******5740   0000000308300000000000000000000000000101000000030830240720180000036093POSC1363583        05327598986N+                                                                                                                                                                                                                                    
21363583        85410516200000000994324062018144032530034******5254   0000000197500000000000000000000000000101000000019750240720180000042834POSC1363583        05327598986N+                                                                                                                                                                                                                                    
11363583        SMPOS854105109240620182407201803300435300130020216000000006000000000000000084280000000082636000000000000000000001644000000000000000000082636000000000000PF01011363583        00000000000000000000000000000000000000000000000000000000000000000000000000000000000000000000986 +                                                                                                                  
21363583        85410510900000000909924062018132316536805******9742   0000000123200000000000000000000000000101000000012320240720180000633990POSC1363583        05311109986N+                                                                                                                                                                                                                                    
21363583        85410510900000000910524062018135304514945******7620   0000000020000000000000000000000000000101000000002000240720180000013761POSC1363583        05311109986N+                                                                                                                                                                                                                                    
21363583        85410510900000000910724062018135440549167******8243   0000000098800000000000000000000000000101000000009880240720180000017362POSC1363583        05311109986N+                                                                                                                                                                                                                                    
21363583        85410510900000000910924062018135505549167******7393   0000000098800000000000000000000000000101000000009880240720180000041113POSC1363583        05311109986N+                                                                                                                                                                                                                                    
21363583        85410510900000000912524062018141911522840******7973   0000000201500000000000000000000000000101000000020150240720180000193473POSC1363583        05311109986N+                                                                                                                                                                                                                                    
21363583        85410510900000000913924062018154025552305******0545   0000000300500000000000000000000000000101000000030050240720180000604642POSC1363583        05311109986N+                                                                                                                                                                                                                                    
11363583        SVPOS853999941240620182407201803300435300130020216000000001000000000000000020800000000020394000000000000000000000406000000000000000000020394000000000000PF01011363583        00000000000000000000000000000000000000000000000000000000000000000000000000000000000000000000986 +                                                                                                                  
21363583        85399994100000000993124062018003530415275******4125   0000000208000000000000000000000000000101000000020800240720180000096111POSC1363583        05327598986N+                                                                                                                                                                                                                                    
11363583        SMPOS853830066240620182407201803300435300130020216000000001000000000000000020000000000019610000000000000000000000390000000000000000000019610000000000000PF01011363583        00000000000000000000000000000000000000000000000000000000000000000000000000000000000000000000986 +                                                                                                                  
21363583        85383006600000000908924062018000618522840******8978   0000000200000000000000000000000000000101000000020000240720180000064284POSC1363583        05311109986N+                                                                                                                                                                                                                                    
11363583        SEPOS854808696240620182506201803300435300130020216000000001000000000000000035215000000034740000000000000000000000475000000000000000000034740000000000000PG01011363583        00000000000000000000000000000000000000000000000000000000000000000000000000000000000000000000986 +                                                                                                                  
21363583        85480869600000000916124062018222803422061******0556   0000000352150000000000000000000000000101000000035215250620180000283269POSC1363583        05311109986N+                                                                                                                                                                                                                                    
11363583        SRPOS854799266240620182506201803300435300130020216000000005000000000000000084373000000083234000000000000000000001139000000000000000000083234000000000000PG01011363583        00000000000000000000000000000000000000000000000000000000000000000000000000000000000000000000986 +                                                                                                                  
21363583        85479926600000000999924062018211345514945******7458   0000000319100000000000000000000000000101000000031910250620180000232299POSC1363583        05327598986N+                                                                                                                                                                                                                                    
21363583        85479926600000001001524062018215553523284******2104   0000000092850000000000000000000000000101000000009285250620180000245917POSC1363583        05327598986N+                                                                                                                                                                                                                                    
21363583        85479926600000001000924062018213559544731******0167   0000000195600000000000000000000000000101000000019560250620180000362066POSC1363583        05327598986N+                                                                                                                                                                                                                                    
21363583        85479926600000000999524062018210308544540******8066   0000000100000000000000000000000000000101000000010000250620180000228309POSC1363583        05327598986N+                                                                                                                                                                                                                                    
21363583        85479926600000001000524062018212103525718******3714   0000000136180000000000000000000000000101000000013618250620180000234892POSC1363583        05327598986N+                                                                                                                                                                                                                                    
11363583        SRPOS854799256240620182506201803300435300130020216000000002000000000000000056255000000055496000000000000000000000759000000000000000000055496000000000000PG01011363583        00000000000000000000000000000000000000000000000000000000000000000000000000000000000000000000986 +                                                                                                                  
21363583        85479925600000000915924062018222710515590******4618   0000000352150000000000000000000000000101000000035215250620180000273370POSC1363583        05311109986N+                                                                                                                                                                                                                                    
21363583        85479925600000000915724062018220035542974******4736   0000000210400000000000000000000000000101000000021040250620180000247318POSC1363583        05311109986N+                                                                                                                                                                                                                                    
11363583        EDPOS854713328240620182506201803300435300130020216000000001000000000000000030621000000030146000000000000000000000475000000000000000000030146000000000000PG01011363583        00000000000000000000000000000000000000000000000000000000000000000000000000000000000000000000986 +                                                                                                                  
21363583        85471332800000000915324062018162724506730******2648   0000000306210000000000000000000000000101000000030621250620180000974283POSC1363583        05311109986N+                                                                                                                                                                                                                                    
11363583        SEPOS854683803240620182506201803300435300130020216000000003000000000000000051095000000050406000000000000000000000689000000000000000000050406000000000000PG01011363583        00000000000000000000000000000000000000000000000000000000000000000000000000000000000000000000986 +                                                                                                                  
21363583        85468380300000000999124062018204012438005******9418   0000000101750000000000000000000000000101000000010175250620180000358502POSC1363583        05327598986N+                                                                                                                                                                                                                                    
21363583        85468380300000000997324062018173036457497******7268   0000000100000000000000000000000000000101000000010000250620180000356857POSC1363583        05327598986N+                                                                                                                                                                                                                                    
21363583        85468380300000000996324062018163148483042******6130   0000000309200000000000000000000000000101000000030920250620180000356050POSC1363583        05327598986N+                                                                                                                                                                                                                                    
11363583        SEPOS854683788240620182506201803300435300130020216000000001000000000000000010125000000009988000000000000000000000137000000000000000000009988000000000000PG01011363583        00000000000000000000000000000000000000000000000000000000000000000000000000000000000000000000986 +                                                                                                                  
21363583        85468378800000000914924062018155603498453******5596   0000000101250000000000000000000000000101000000010125250620180000257390POSC1363583        05311109986N+                                                                                                                                                                                                                                    
11363583        SRPOS854583596240620182506201803300435300130020216000000006000000000000000104720000000103307000000000000000000001413000000000000000000103307000000000000PG01011363583        00000000000000000000000000000000000000000000000000000000000000000000000000000000000000000000986 +                                                                                                                  
21363583        85458359600000000998924062018203837546479******6625   0000000101750000000000000000000000000101000000010175250620180000560106POSC1363583        05327598986N+                                                                                                                                                                                                                                    
21363583        85458359600000000996124062018161742549167******4902   0000000204500000000000000000000000000101000000020450250620180000096010POSC1363583        05327598986N+                                                                                                                                                                                                                                    
21363583        85458359600000000995324062018155600515590******9237   0000000196600000000000000000000000000101000000019660250620180000561573POSC1363583        05327598986N+                                                                                                                                                                                                                                    
21363583        85458359600000000998324062018191504549167******8005   0000000212400000000000000000000000000101000000021240250620180000184329POSC1363583        05327598986N+                                                                                                                                                                                                                                    
21363583        85458359600000000996724062018163758589916******4539   0000000226250000000000000000000000000101000000022625250620180000102860POSC1363583        05327598986N+                                                                                                                                                                                                                                    
21363583        85458359600000000995724062018160933515590******6678   0000000105700000000000000000000000000101000000010570250620180000094773POSC1363583        05327598986N+                                                                                                                                                                                                                                    
11363583        EDPOS854321307240620182506201803300435300130020216000000001000000000000000019760000000019454000000000000000000000306000000000000000000019454000000000000PG01011363583        00000000000000000000000000000000000000000000000000000000000000000000000000000000000000000000986 +                                                                                                                  
21363583        85432130700000000909724062018131417655001******5635   0000000197600000000000000000000000000101000000019760250620180000824177POSC1363583        05311109986N+                                                                                                                                                                                                                                    
11363583        SEPOS854280830240620182506201803300435300130020216000000003000000000000000082750000000081634000000000000000000001116000000000000000000081634000000000000PG01011363583        00000000000000000000000000000000000000000000000000000000000000000000000000000000000000000000986 +                                                                                                                  
21363583        85428083000000000911124062018135728483042******1323   0000000199500000000000000000000000000101000000019950250620180000354504POSC1363583        05311109986N+                                                                                                                                                                                                                                    
21363583        85428083000000000914324062018154443482481******1411   0000000224800000000000000000000000000101000000022480250620180000200567POSC1363583        05311109986N+                                                                                                                                                                                                                                    
21363583        85428083000000000913724062018152918483042******6124   0000000403200000000000000000000000000101000000040320250620180000355005POSC1363583        05311109986N+                                                                                                                                                                                                                                    
11363583        SRPOS854164586240620182506201803300435300130020216000000002000000000000000035230000000034754000000000000000000000476000000000000000000034754000000000000PG01011363583        00000000000000000000000000000000000000000000000000000000000000000000000000000000000000000000986 +                                                                                                                  
21363583        85416458600000000994924062018152502589916******9539   0000000128100000000000000000000000000101000000012810250620180000067574POSC1363583        05327598986N+                                                                                                                                                                                                                                    
21363583        85416458600000000994724062018144514524820******9480   0000000224200000000000000000000000000101000000022420250620180000049982POSC1363583        05327598986N+                                                                                                                                                                                                                                    
11363583        SRPOS854164419240620182506201803300435300130020216000000006000000000000000104445000000103035000000000000000000001410000000000000000000103035000000000000PG01011363583        00000000000000000000000000000000000000000000000000000000000000000000000000000000000000000000986 +                                                                                                                  
21363583        85416441900000000912924062018143016502121******0774   0000000193600000000000000000000000000101000000019360250620180000303659POSC1363583        05311109986N+                                                                                                                                                                                                                                    
21363583        85416441900000000912324062018141101549167******4475   0000000069800000000000000000000000000101000000006980250620180000027963POSC1363583        05311109986N+                                                                                                                                                                                                                                    
21363583        85416441900000000913524062018151200549167******5129   0000000293100000000000000000000000000101000000029310250620180000063011POSC1363583        05311109986N+                                                                                                                                                                                                                                    
21363583        85416441900000000910124062018132437549167******0047   0000000151650000000000000000000000000101000000015165250620180000999176POSC1363583        05311109986N+                                                                                                                                                                                                                                    
21363583        85416441900000000914124062018154314549167******3970   0000000301300000000000000000000000000101000000030130250620180000078806POSC1363583        05311109986N+                                                                                                                                                                                                                                    
21363583        85416441900000000911724062018140743514945******7382   0000000035000000000000000000000000000101000000003500250620180000028402POSC1363583        05311109986N+                                                                                                                                                                                                                                    
11363583        SEPOS854031162240620182506201803300435300130020216000000001000000000000000010221000000010083000000000000000000000138000000000000000000010083000000000000PG01011363583        00000000000000000000000000000000000000000000000000000000000000000000000000000000000000000000986 +                                                                                                                  
21363583        85403116200000000908724062018000550422061******7972   0000000102210000000000000000000000000101000000010221250620180000061174POSC1363583        05311109986N+                                                                                                                                                                                                                                    
11363583        SRPOS853947707240620182506201803300435300130020216000000001000000000000000022720000000022413000000000000000000000307000000000000000000022413000000000000PG01011363583        00000000000000000000000000000000000000000000000000000000000000000000000000000000000000000000986 +                                                                                                                  
21363583        85394770700000000908324062018000348589916******6991   0000000227200000000000000000000000000101000000022720250620180000773521POSC1363583        05311109986N+                                                                                                                                                                                                                                    
11363583        SEPOS853669406230620182506201803300435300130020216000000002000000000000000041976000000041410000000000000000000000566000000000000000000041410000000000000PG01011363583        00000000000000000000000000000000000000000000000000000000000000000000000000000000000000000000986 +                                                                                                                  
21363583        85366940600000000907723062018231411422061******3714   0000000196600000000000000000000000000101000000019660250620180000143653POSC1363583        05311109986N+                                                                                                                                                                                                                                    
21363583        85366940600000000907123062018225025473200******3201   0000000223160000000000000000000000000101000000022316250620180000345250POSC1363583        05311109986N+                                                                                                                                                                                                                                    
11363583        SRPOS853667482230620182506201803300435300130020216000000001000000000000000009175000000009051000000000000000000000124000000000000000000009051000000000000PG01011363583        00000000000000000000000000000000000000000000000000000000000000000000000000000000000000000000986 +                                                                                                                  
21363583        85366748200000000992723062018230639520132******9598   0000000091750000000000000000000000000101000000009175250620180000070069POSC1363583        05327598986N+                                                                                                                                                                                                                                    
11363583        SRPOS853667473230620182506201803300435300130020216000000003000000000000000053840000000053113000000000000000000000727000000000000000000053113000000000000PG01011363583        00000000000000000000000000000000000000000000000000000000000000000000000000000000000000000000986 +                                                                                                                  
21363583        85366747300000000907323062018225105536233******9660   0000000111740000000000000000000000000101000000011174250620180000613122POSC1363583        05311109986N+                                                                                                                                                                                                                                    
21363583        85366747300000000906923062018224934515590******7613   0000000223160000000000000000000000000101000000022316250620180000501465POSC1363583        05311109986N+                                                                                                                                                                                                                                    
21363583        85366747300000000908123062018232811549167******1413   0000000203500000000000000000000000000101000000020350250620180000769705POSC1363583        05311109986N+                                                                                                                                                                                                                                    
11363583        EDPOS853526927230620182506201803300435300130020216000000001000000000000000020050000000019739000000000000000000000311000000000000000000019739000000000000PG01011363583        00000000000000000000000000000000000000000000000000000000000000000000000000000000000000000000986 +                                                                                                                  
21363583        85352692700000000906723062018224232506726******7106   0000000200500000000000000000000000000101000000020050250620180000344950POSC1363583        05311109986N+                                                                                                                                                                                                                                    
11363583        SEPOS853516558230620182506201803300435300130020216000000001000000000000000030230000000029822000000000000000000000408000000000000000000029822000000000000PG01011363583        00000000000000000000000000000000000000000000000000000000000000000000000000000000000000000000986 +                                                                                                                  
21363583        85351655800000000991323062018222103439267******6995   0000000302300000000000000000000000000101000000030230250620180000624763POSC1363583        05327598986N+                                                                                                                                                                                                                                    
11363583        SRPOS853493785230620182506201803300435300130020216000000005000000000000000090120000000088904000000000000000000001216000000000000000000088904000000000000PG01011363583        00000000000000000000000000000000000000000000000000000000000000000000000000000000000000000000986 +                                                                                                                  
21363583        85349378500000000992523062018224308589916******3242   0000000210500000000000000000000000000101000000021050250620180000754926POSC1363583        05327598986N+                                                                                                                                                                                                                                    
21363583        85349378500000000990523062018220054529323******7007   0000000097800000000000000000000000000101000000009780250620180000736022POSC1363583        05327598986N+                                                                                                                                                                                                                                    
21363583        85349378500000000991123062018221750544731******3877   0000000187700000000000000000000000000101000000018770250620180000181575POSC1363583        05327598986N+                                                                                                                                                                                                                                    
21363583        85349378500000000992323062018224240589916******7291   0000000210500000000000000000000000000101000000021050250620180000751992POSC1363583        05327598986N+                                                                                                                                                                                                                                    
21363583        85349378500000000988923062018212047515590******7229   0000000194700000000000000000000000000101000000019470250620180000210671POSC1363583        05327598986N+                                                                                                                                                                                                                                    
11363583        SRPOS853493758230620182506201803300435300130020216000000003000000000000000046445000000045818000000000000000000000627000000000000000000045818000000000000PG01011363583        00000000000000000000000000000000000000000000000000000000000000000000000000000000000000000000986 +                                                                                                                  
21363583        85349375800000000906523062018224055525802******8734   0000000248450000000000000000000000000101000000024845250620180000723163POSC1363583        05311109986N+                                                                                                                                                                                                                                    
21363583        85349375800000000905923062018223747589916******5322   0000000108000000000000000000000000000101000000010800250620180000751511POSC1363583        05311109986N+                                                                                                                                                                                                                                    
21363583        85349375800000000906123062018223819526863******2872   0000000108000000000000000000000000000101000000010800250620180000752848POSC1363583        05311109986N+                                                                                                                                                                                                                                    
11363583        EDPOS853277692230620182506201803300435300130020216000000001000000000000000010975000000010805000000000000000000000170000000000000000000010805000000000000PG01011363583        00000000000000000000000000000000000000000000000000000000000000000000000000000000000000000000986 +                                                                                                                  
21363583        85327769200000000988123062018204912650494******3106   0000000109750000000000000000000000000101000000010975250620180000344017POSC1363583        05327598986N+                                                                                                                                                                                                                                    
11363583        EDPOS853277667230620182506201803300435300130020216000000001000000000000000022130000000021787000000000000000000000343000000000000000000021787000000000000PG01011363583        00000000000000000000000000000000000000000000000000000000000000000000000000000000000000000000986 +                                                                                                                  
21363583        85327766700000000905523062018201314506727******3105   0000000221300000000000000000000000000101000000022130250620180000343567POSC1363583        05311109986N+                                                                                                                                                                                                                                    
11363583        SEPOS853211332230620182506201803300435300130020216000000002000000000000000018770000000018517000000000000000000000253000000000000000000018517000000000000PG01011363583        00000000000000000000000000000000000000000000000000000000000000000000000000000000000000000000986 +                                                                                                                  
21363583        85321133200000000984923062018173056441524******7553   0000000089900000000000000000000000000101000000008990250620180000312956POSC1363583        05327598986N+                                                                                                                                                                                                                                    
21363583        85321133200000000985523062018194243476608******1209   0000000097800000000000000000000000000101000000009780250620180000343802POSC1363583        05327598986N+                                                                                                                                                                                                                                    
11363583        SEPOS853211317230620182506201803300435300130020216000000001000000000000000010000000000009865000000000000000000000135000000000000000000009865000000000000PG01011363583        00000000000000000000000000000000000000000000000000000000000000000000000000000000000000000000986 +                                                                                                                  
21363583        85321131700000000904323062018162522438027******6307   0000000100000000000000000000000000000101000000010000250620180000341218POSC1363583        05311109986N+                                                                                                                                                                                                                                    
11363583        SRPOS853066350230620182506201803300435300130020216000000007000000000000000106990000000105546000000000000000000001444000000000000000000105546000000000000PG01011363583        00000000000000000000000000000000000000000000000000000000000000000000000000000000000000000000986 +                                                                                                                  
21363583        85306635000000000987523062018204503515590******1646   0000000443700000000000000000000000000101000000044370250620180000452652POSC1363583        05327598986N+                                                                                                                                                                                                                                    
21363583        85306635000000000985723062018194319515590******8181   0000000100750000000000000000000000000101000000010075250620180000434259POSC1363583        05327598986N+                                                                                                                                                                                                                                    
21363583        85306635000000000987723062018204818544540******2648   0000000109750000000000000000000000000101000000010975250620180000698021POSC1363583        05327598986N+                                                                                                                                                                                                                                    
21363583        85306635000000000986123062018202105529323******8999   0000000107400000000000000000000000000101000000010740250620180000679270POSC1363583        05327598986N+                                                                                                                                                                                                                                    
21363583        85306635000000000987923062018204847542820******0761   0000000109750000000000000000000000000101000000010975250620180000490375POSC1363583        05327598986N+                                                                                                                                                                                                                                    
21363583        85306635000000000985923062018194355515590******9760   0000000100750000000000000000000000000101000000010075250620180000441070POSC1363583        05327598986N+                                                                                                                                                                                                                                    
21363583        85306635000000000987323062018204319542974******0056   0000000097800000000000000000000000000101000000009780250620180000695335POSC1363583        05327598986N+                                                                                                                                                                                                                                    
11363583        SRPOS853066339230620182506201803300435300130020216000000001000000000000000024900000000024564000000000000000000000336000000000000000000024564000000000000PG01011363583        00000000000000000000000000000000000000000000000000000000000000000000000000000000000000000000986 +                                                                                                                  
21363583        85306633900000000905323062018193741589916******1082   0000000249000000000000000000000000000101000000024900250620180000650501POSC1363583        05311109986N+                                                                                                                                                                                                                                    
11363583        EDPOS852779219230620182506201803300435300130020216000000001000000000000000026740000000026326000000000000000000000414000000000000000000026326000000000000PG01011363583        00000000000000000000000000000000000000000000000000000000000000000000000000000000000000000000986 +                                                                                                                  
21363583        85277921900000000983723062018154651506775******7485   0000000267400000000000000000000000000101000000026740250620180000978331POSC1363583        05327598986N+                                                                                                                                                                                                                                    
11363583        SEPOS852680989230620182506201803300435300130020216000000004000000000000000066490000000065592000000000000000000000898000000000000000000065592000000000000PG01011363583        00000000000000000000000000000000000000000000000000000000000000000000000000000000000000000000986 +                                                                                                                  
21363583        85268098900000000901923062018150903498431******0199   0000000178000000000000000000000000000101000000017800250620180000154564POSC1363583        05311109986N+                                                                                                                                                                                                                                    
21363583        85268098900000000902323062018151154483042******7306   0000000191600000000000000000000000000101000000019160250620180000340819POSC1363583        05311109986N+                                                                                                                                                                                                                                    
21363583        85268098900000000903323062018154530409600******0092   0000000103700000000000000000000000000101000000010370250620180000341371POSC1363583        05311109986N+                                                                                                                                                                                                                                    
21363583        85268098900000000903123062018152653459020******8355   0000000191600000000000000000000000000101000000019160250620180000085055POSC1363583        05311109986N+                                                                                                                                                                                                                                    
11363583        SRPOS852427257230620182506201803300435300130020216000000002000000000000000049175000000048511000000000000000000000664000000000000000000048511000000000000PG01011363583        00000000000000000000000000000000000000000000000000000000000000000000000000000000000000000000986 +                                                                                                                  
21363583        85242725700000000901523062018144226637529******8115   0000000252350000000000000000000000000101000000025235250620180000506529POSC1363583        05311109986N+                                                                                                                                                                                                                                    
21363583        85242725700000000901723062018145356589916******7363   0000000239400000000000000000000000000101000000023940250620180000411972POSC1363583        05311109986N+                                                                                                                                                                                                                                    
11363583        EDPOS852110340230620182506201803300435300130020216000000001000000000000000012132000000011944000000000000000000000188000000000000000000011944000000000000PG01011363583        00000000000000000000000000000000000000000000000000000000000000000000000000000000000000000000986 +                                                                                                                  
21363583        85211034000000000898723062018001019627780******0478   0000000121320000000000000000000000000101000000012132250620180000621869POSC1363583        05311109986N+                                                                                                                                                                                                                                    
11363583        SEPOS852066862230620182506201803300435300130020216000000001000000000000000012132000000011968000000000000000000000164000000000000000000011968000000000000PG01011363583        00000000000000000000000000000000000000000000000000000000000000000000000000000000000000000000986 +                                                                                                                  
21363583        85206686200000000898923062018001051483042******3104   0000000121320000000000000000000000000101000000012132250620180000332291POSC1363583        05311109986N+                                                                                                                                                                                                                                    
11363583        SRPOS851863978230620182506201803300435300130020216000000001000000000000000008000000000007892000000000000000000000108000000000000000000007892000000000000PG01011363583        00000000000000000000000000000000000000000000000000000000000000000000000000000000000000000000986 +                                                                                                                  
21363583        85186397800000000982923062018000445544731******7116   0000000080000000000000000000000000000101000000008000250620180000053372POSC1363583        05327598986N+                                                                                                                                                                                                                                    
11363583        SRPOS851863938230620182506201803300435300130020216000000002000000000000000024264000000023936000000000000000000000328000000000000000000023936000000000000PG01011363583        00000000000000000000000000000000000000000000000000000000000000000000000000000000000000000000986 +                                                                                                                  
21363583        85186393800000000899323062018001157589916******9844   0000000121320000000000000000000000000101000000012132250620180000681007POSC1363583        05311109986N+                                                                                                                                                                                                                                    
21363583        85186393800000000899123062018001118589916******3918   0000000121320000000000000000000000000101000000012132250620180000680249POSC1363583        05311109986N+                                                                                                                                                                                                                                    
11363583        SEPOS851436517220620182506201803300435300130020216000000001000000000000000044630000000044027000000000000000000000603000000000000000000044027000000000000PG01011363583        00000000000000000000000000000000000000000000000000000000000000000000000000000000000000000000986 +                                                                                                                  
21363583        85143651700000000982322062018234726410392******2788   0000000446300000000000000000000000000101000000044630250620180000331152POSC1363583        05327598986N+                                                                                                                                                                                                                                    
11363583        SEPOS851436514220620182506201803300435300130020216000000002000000000000000041390000000040831000000000000000000000559000000000000000000040831000000000000PG01011363583        00000000000000000000000000000000000000000000000000000000000000000000000000000000000000000000986 +                                                                                                                  
21363583        85143651400000000897122062018230323422061******7776   0000000204500000000000000000000000000101000000020450250620180000035062POSC1363583        05311109986N+                                                                                                                                                                                                                                    
21363583        85143651400000000896522062018225912483042******0201   0000000209400000000000000000000000000101000000020940250620180000330920POSC1363583        05311109986N+                                                                                                                                                                                                                                    
11363583        SRPOS851434548220620182506201803300435300130020216000000001000000000000000019360000000019099000000000000000000000261000000000000000000019099000000000000PG01011363583        00000000000000000000000000000000000000000000000000000000000000000000000000000000000000000000986 +                                                                                                                  
21363583        85143454800000000982122062018232930542820******0359   0000000193600000000000000000000000000101000000019360250620180000295979POSC1363583        05327598986N+                                                                                                                                                                                                                                    
11363583        SRPOS851434543220620182506201803300435300130020216000000001000000000000000011360000000011207000000000000000000000153000000000000000000011207000000000000PG01011363583        00000000000000000000000000000000000000000000000000000000000000000000000000000000000000000000986 +                                                                                                                  
21363583        85143454300000000896922062018230145524820******2911   0000000113600000000000000000000000000101000000011360250620180000661403POSC1363583        05311109986N+                                                                                                                                                                                                                                    
11363583        EDPOS851282934220620182506201803300435300130020216000000002000000000000000046500000000045779000000000000000000000721000000000000000000045779000000000000PG01011363583        00000000000000000000000000000000000000000000000000000000000000000000000000000000000000000000986 +                                                                                                                  
21363583        85128293400000000977522062018210056506727******9106   0000000235200000000000000000000000000101000000023520250620180000330056POSC1363583        05327598986N+                                                                                                                                                                                                                                    
21363583        85128293400000000979322062018215325627780******2009   0000000229800000000000000000000000000101000000022980250620180000166459POSC1363583        05327598986N+                                                                                                                                                                                                                                    
11363583        SEPOS851268825220620182506201803300435300130020216000000001000000000000000019560000000019296000000000000000000000264000000000000000000019296000000000000PG01011363583        00000000000000000000000000000000000000000000000000000000000000000000000000000000000000000000986 +                                                                                                                  
21363583        85126882500000000979922062018221438422061******8399   0000000195600000000000000000000000000101000000019560250620180000145866POSC1363583        05327598986N+                                                                                                                                                                                                                                    
11363583        SEPOS851268804220620182506201803300435300130020216000000001000000000000000020348000000020073000000000000000000000275000000000000000000020073000000000000PG01011363583        00000000000000000000000000000000000000000000000000000000000000000000000000000000000000000000986 +                                                                                                                  
21363583        85126880400000000894722062018221206483042******4205   0000000203480000000000000000000000000101000000020348250620180000330318POSC1363583        05311109986N+                                                                                                                                                                                                                                    
11363583        SRPOS851243814220620182506201803300435300130020216000000003000000000000000042650000000042074000000000000000000000576000000000000000000042074000000000000PG01011363583        00000000000000000000000000000000000000000000000000000000000000000000000000000000000000000000986 +                                                                                                                  
21363583        85124381400000000979122062018215137542974******3214   0000000100750000000000000000000000000101000000010075250620180000637043POSC1363583        05327598986N+                                                                                                                                                                                                                                    
21363583        85124381400000000978922062018215052529323******0406   0000000100750000000000000000000000000101000000010075250620180000635472POSC1363583        05327598986N+                                                                                                                                                                                                                                    
21363583        85124381400000000979522062018215400552693******2221   0000000225000000000000000000000000000101000000022500250620180000543470POSC1363583        05327598986N+                                                                                                                                                                                                                                    
11363583        SRPOS851243789220620182506201803300435300130020216000000004000000000000000051250000000050557000000000000000000000693000000000000000000050557000000000000PG01011363583        00000000000000000000000000000000000000000000000000000000000000000000000000000000000000000000986 +                                                                                                                  
21363583        85124378900000000896122062018224542518759******2325   0000000197600000000000000000000000000101000000019760250620180000286324POSC1363583        05311109986N+                                                                                                                                                                                                                                    
21363583        85124378900000000895722062018222817589916******2820   0000000049500000000000000000000000000101000000004950250620180000653007POSC1363583        05311109986N+                                                                                                                                                                                                                                    
21363583        85124378900000000895522062018222745589916******0535   0000000150000000000000000000000000000101000000015000250620180000649672POSC1363583        05311109986N+                                                                                                                                                                                                                                    
21363583        85124378900000000896322062018224743515787******5397   0000000115400000000000000000000000000101000000011540250620180000885991POSC1363583        05311109986N+                                                                                                                                                                                                                                    
11363583        SEPOS850872989220620182506201803300435300130020216000000001000000000000000020650000000020371000000000000000000000279000000000000000000020371000000000000PG01011363583        00000000000000000000000000000000000000000000000000000000000000000000000000000000000000000000986 +                                                                                                                  
21363583        85087298900000000975922062018192255498406******5061   0000000206500000000000000000000000000101000000020650250620180000169800POSC1363583        05327598986N+                                                                                                                                                                                                                                    
11363583        SEPOS850872967220620182506201803300435300130020216000000001000000000000000025535000000025190000000000000000000000345000000000000000000025190000000000000PG01011363583        00000000000000000000000000000000000000000000000000000000000000000000000000000000000000000000986 +                                                                                                                  
21363583        85087296700000000894322062018170422483042******7309   0000000255350000000000000000000000000101000000025535250620180000327908POSC1363583        05311109986N+                                                                                                                                                                                                                                    
11363583        SRPOS850648796220620182506201803300435300130020216000000002000000000000000018255000000018009000000000000000000000246000000000000000000018009000000000000PG01011363583        00000000000000000000000000000000000000000000000000000000000000000000000000000000000000000000986 +                                                                                                                  
21363583        85064879600000000975722062018173222523284******9492   0000000084750000000000000000000000000101000000008475250620180000426913POSC1363583        05327598986N+                                                                                                                                                                                                                                    
21363583        85064879600000000975122062018173043589916******2907   0000000097800000000000000000000000000101000000009780250620180000423377POSC1363583        05327598986N+                                                                                                                                                                                                                                    
11363583        SEPOS850210146220620182506201803300435300130020216000000001000000000000000020000000000019730000000000000000000000270000000000000000000019730000000000000PG01011363583        00000000000000000000000000000000000000000000000000000000000000000000000000000000000000000000986 +                                                                                                                  
21363583        85021014600000000893922062018151204490172******5696   0000000200000000000000000000000000000101000000020000250620180000059193POSC1363583        05311109986N+                                                                                                                                                                                                                                    
11363583        SRPOS850017838220620182506201803300435300130020216000000001000000000000000010077000000009941000000000000000000000136000000000000000000009941000000000000PG01011363583        00000000000000000000000000000000000000000000000000000000000000000000000000000000000000000000986 +                                                                                                                  
21363583        85001783800000000893722062018151014549167******0828   0000000100770000000000000000000000000101000000010077250620180000300086POSC1363583        05311109986N+                                                                                                                                                                                                                                    
11363583        SVPOS800993419260520182506201803300435300130020216000000002000000000000000049730000000048760000000000000000000000970000000000000000000048760000000000000PG01011363583        00000000000000000000000000000000000000000000000000000000000000000000000000000000000000000000986 +                                                                                                                  
21363583        80099341900000000792126052018231222422061******8840   0000000283900000000000000000000000000101000000028390250620180000125658POSC1363583        05327598986N+                                                                                                                                                                                                                                    
21363583        80099341900000000792326052018231558491674******3131   0000000213400000000000000000000000000101000000021340250620180000162174POSC1363583        05327598986N+                                                                                                                                                                                                                                    
11363583        SMPOS800991728260520182506201803300435300130020216000000003000000000000000053560000000052515000000000000000000001045000000000000000000052515000000000000PG01011363583        00000000000000000000000000000000000000000000000000000000000000000000000000000000000000000000986 +                                                                                                                  
21363583        80099172800000000791526052018225507553636******0877   0000000212100000000000000000000000000101000000021210250620180000052717POSC1363583        05327598986N+                                                                                                                                                                                                                                    
21363583        80099172800000000792526052018232304536805******0706   0000000217500000000000000000000000000101000000021750250620180000633001POSC1363583        05327598986N+                                                                                                                                                                                                                                    
21363583        80099172800000000791326052018225435544731******3162   0000000106000000000000000000000000000101000000010600250620180000545369POSC1363583        05327598986N+                                                                                                                                                                                                                                    
11363583        SVPOS800847090260520182506201803300435300130020216000000006000000000000000130300000000127759000000000000000000002541000000000000000000127759000000000000PG01011363583        00000000000000000000000000000000000000000000000000000000000000000000000000000000000000000000986 +                                                                                                                  
21363583        80084709000000000791126052018224136420312******3034   0000000175000000000000000000000000000101000000017500250620180000021242POSC1363583        05327598986N+                                                                                                                                                                                                                                    
21363583        80084709000000000788926052018214938422061******7097   0000000227000000000000000000000000000101000000022700250620180000500573POSC1363583        05327598986N+                                                                                                                                                                                                                                    
21363583        80084709000000000787526052018212400498423******4216   0000000181000000000000000000000000000101000000018100250620180000761539POSC1363583        05327598986N+                                                                                                                                                                                                                                    
21363583        80084709000000000787926052018213055459315******2161   0000000216500000000000000000000000000101000000021650250620180000034690POSC1363583        05327598986N+                                                                                                                                                                                                                                    
21363583        80084709000000000789326052018221222466069******3403   0000000203500000000000000000000000000101000000020350250620180000089339POSC1363583        05327598986N+                                                                                                                                                                                                                                    
21363583        80084709000000000790926052018224030459316******1050   0000000300000000000000000000000000000101000000030000250620180000035718POSC1363583        05327598986N+                                                                                                                                                                                                                                    
11363583        SMPOS800829131260520182506201803300435300130020216000000003000000000000000053770000000052722000000000000000000001048000000000000000000052722000000000000PG01011363583        00000000000000000000000000000000000000000000000000000000000000000000000000000000000000000000986 +                                                                                                                  
21363583        80082913100000000788126052018213545553636******7497   0000000195600000000000000000000000000101000000019560250620180000079081POSC1363583        05327598986N+                                                                                                                                                                                                                                    
21363583        80082913100000000787126052018212102553636******0605   0000000235100000000000000000000000000101000000023510250620180000052235POSC1363583        05327598986N+                                                                                                                                                                                                                                    
21363583        80082913100000000786726052018210451523284******3385   0000000107000000000000000000000000000101000000010700250620180000085493POSC1363583        05327598986N+                                                                                                                                                                                                                                    
11363583        SVPOS800477325260520182506201803300435300130020216000000001000000000000000010340000000010138000000000000000000000202000000000000000000010138000000000000PG01011363583        00000000000000000000000000000000000000000000000000000000000000000000000000000000000000000000986 +                                                                                                                  
21363583        80047732500000000785726052018162640476608******5102   0000000103400000000000000000000000000101000000010340250620180000670104POSC1363583        05327598986N+                                                                                                                                                                                                                                    
11363583        SMPOS800323111260520182506201803300435300130020216000000002000000000000000045230000000044348000000000000000000000882000000000000000000044348000000000000PG01011363583        00000000000000000000000000000000000000000000000000000000000000000000000000000000000000000000986 +                                                                                                                  
21363583        80032311100000000786326052018183547533728******3160   0000000200000000000000000000000000000101000000020000250620180000384797POSC1363583        05327598986N+                                                                                                                                                                                                                                    
21363583        80032311100000000786126052018175338549167******7582   0000000252300000000000000000000000000101000000025230250620180000012461POSC1363583        05327598986N+                                                                                                                                                                                                                                    
11363583        SMPOS799736731260520182506201803300435300130020216000000004000000000000000105231000000103179000000000000000000002052000000000000000000103179000000000000PG01011363583        00000000000000000000000000000000000000000000000000000000000000000000000000000000000000000000986 +                                                                                                                  
21363583        79973673100000000784726052018141853549167******2295   0000000346250000000000000000000000000101000000034625250620180000058734POSC1363583        05327598986N+                                                                                                                                                                                                                                    
21363583        79973673100000000784926052018144730553636******4269   0000000295310000000000000000000000000101000000029531250620180000058970POSC1363583        05327598986N+                                                                                                                                                                                                                                    
21363583        79973673100000000785326052018152821522840******7973   0000000247450000000000000000000000000101000000024745250620180000283873POSC1363583        05327598986N+                                                                                                                                                                                                                                    
21363583        79973673100000000785126052018145007544665******7976   0000000163300000000000000000000000000101000000016330250620180000068327POSC1363583        05327598986N+                                                                                                                                                                                                                                    
11363583        SVPOS798906169250520182506201803300435300130020216000000001000000000000000019360000000018982000000000000000000000378000000000000000000018982000000000000PG01011363583        00000000000000000000000000000000000000000000000000000000000000000000000000000000000000000000986 +                                                                                                                  
21363583        79890616900000000781925052018222326455187******9989   0000000193600000000000000000000000000101000000019360250620180000634618POSC1363583        05327598986N+                                                                                                                                                                                                                                    
11363583        SMPOS798888105250520182506201803300435300130020216000000001000000000000000020150000000019757000000000000000000000393000000000000000000019757000000000000PG01011363583        00000000000000000000000000000000000000000000000000000000000000000000000000000000000000000000986 +                                                                                                                  
21363583        79888810500000000781325052018212629553096******8817   0000000201500000000000000000000000000101000000020150250620180000983032POSC1363583        05327598986N+                                                                                                                                                                                                                                    
11363583        SVPOS798512463250520182506201803300435300130020216000000001000000000000000009735000000009545000000000000000000000190000000000000000000009545000000000000PG01011363583        00000000000000000000000000000000000000000000000000000000000000000000000000000000000000000000986 +                                                                                                                  
21363583        79851246300000000743725052018203234490172******4657   0000000097350000000000000000000000000101000000009735250620180000011939POSC1363583        05311109986N+                                                                                                                                                                                                                                    
11363583        SMPOS798252812250520182506201803300435300130020216000000002000000000000000039320000000038553000000000000000000000767000000000000000000038553000000000000PG01011363583        00000000000000000000000000000000000000000000000000000000000000000000000000000000000000000000986 +                                                                                                                  
21363583        79825281200000000780725052018190956553636******8308   0000000205500000000000000000000000000101000000020550250620180000093571POSC1363583        05327598986N+                                                                                                                                                                                                                                    
21363583        79825281200000000780925052018203331542820******4207   0000000187700000000000000000000000000101000000018770250620180000335059POSC1363583        05327598986N+                                                                                                                                                                                                                                    
11363583        SMPOS798252790250520182506201803300435300130020216000000001000000000000000009735000000009545000000000000000000000190000000000000000000009545000000000000PG01011363583        00000000000000000000000000000000000000000000000000000000000000000000000000000000000000000000986 +                                                                                                                  
21363583        79825279000000000743525052018203158515590******1138   0000000097350000000000000000000000000101000000009735250620180000322253POSC1363583        05311109986N+                                                                                                                                                                                                                                    
11363583        SMPOS797700140250520182506201803300435300130020216000000002000000000000000049990000000049015000000000000000000000975000000000000000000049015000000000000PG01011363583        00000000000000000000000000000000000000000000000000000000000000000000000000000000000000000000986 +                                                                                                                  
21363583        79770014000000000742925052018135235528860******1731   0000000288500000000000000000000000000101000000028850250620180000091308POSC1363583        05311109986N+                                                                                                                                                                                                                                    
21363583        79770014000000000742525052018133343514868******8985   0000000211400000000000000000000000000101000000021140250620180000055634POSC1363583        05311109986N+                                                                                                                                                                                                                                    
11363583        SMPOS797065117240520182506201803300435300130020216000000002000000000000000021805000000021380000000000000000000000425000000000000000000021380000000000000PG01011363583        00000000000000000000000000000000000000000000000000000000000000000000000000000000000000000000986 +                                                                                                                  
21363583        79706511700000000741924052018225902530994******6320   0000000100000000000000000000000000000101000000010000250620180000094986POSC1363583        05311109986N+                                                                                                                                                                                                                                    
21363583        79706511700000000742124052018225947526863******3574   0000000118050000000000000000000000000101000000011805250620180000066524POSC1363583        05311109986N+                                                                                                                                                                                                                                    
11363583        SVPOS796948978240520182506201803300435300130020216000000002000000000000000014055000000013781000000000000000000000274000000000000000000013781000000000000PG01011363583        00000000000000000000000000000000000000000000000000000000000000000000000000000000000000000000986 +                                                                                                                  
21363583        79694897800000000741124052018221822406655******3484   0000000042750000000000000000000000000101000000004275250620180000684783POSC1363583        05311109986N+                                                                                                                                                                                                                                    
21363583        79694897800000000741724052018222943490172******2925   0000000097800000000000000000000000000101000000009780250620180000040628POSC1363583        05311109986N+                                                                                                                                                                                                                                    
11363583        SMPOS796938014240520182506201803300435300130020216000000002000000000000000041095000000040293000000000000000000000802000000000000000000040293000000000000PG01011363583        00000000000000000000000000000000000000000000000000000000000000000000000000000000000000000000986 +                                                                                                                  
21363583        79693801400000000777724052018211832550209******9612   0000000152150000000000000000000000000101000000015215250620180000FAY31SPOSC1363583        05327598986N+                                                                                                                                                                                                                                    
21363583        79693801400000000778924052018213057553636******2755   0000000258800000000000000000000000000101000000025880250620180000058197POSC1363583        05327598986N+                                                                                                                                                                                                                                    
11363583        SMPOS796937998240520182506201803300435300130020216000000005000000000000000123980000000121563000000000000000000002417000000000000000000121563000000000000PG01011363583        00000000000000000000000000000000000000000000000000000000000000000000000000000000000000000000986 +                                                                                                                  
21363583        79693799800000000741524052018222608544731******4895   0000000365050000000000000000000000000101000000036505250620180000264478POSC1363583        05311109986N+                                                                                                                                                                                                                                    
21363583        79693799800000000739724052018215711523421******9439   0000000076300000000000000000000000000101000000007630250620180000G8M511POSC1363583        05311109986N+                                                                                                                                                                                                                                    
21363583        79693799800000000740724052018221604515590******3544   0000000226800000000000000000000000000101000000022680250620180000163870POSC1363583        05311109986N+                                                                                                                                                                                                                                    
21363583        79693799800000000740524052018220529544828******7649   0000000195600000000000000000000000000101000000019560250620180000082039POSC1363583        05311109986N+                                                                                                                                                                                                                                    
21363583        79693799800000000740324052018220032515590******9012   0000000376050000000000000000000000000101000000037605250620180000010360POSC1363583        05311109986N+                                                                                                                                                                                                                                    
11363583        SMPOS796369139240520182506201803300435300130020216000000003000000000000000066000000000064712000000000000000000001288000000000000000000064712000000000000PG01011363583        00000000000000000000000000000000000000000000000000000000000000000000000000000000000000000000986 +                                                                                                                  
21363583        79636913900000000777124052018201741549167******2590   0000000155200000000000000000000000000101000000015520250620180000080662POSC1363583        05327598986N+                                                                                                                                                                                                                                    
