01406201803255014062018CEADM1001363583        10440482000154GETNET S.A.         000000147GSSANT. V.8.0 400 BYTES                                                                                                                                                                                                                                                                                                
11363583        ACPOS833902140130620181307201803300435300130020216000000001000000000000000011180000000010842000000000000000000000338000000000000000000010842000000000000PF01011363583        00000000000000000000000000000000000000000000000000000000000000000000000000000000000000000000986 +                                                                                                                  
21363583        83390214000000000926713062018231654374768*****2611    0000000111800000000000000000000000000101000000011180130720180000671013POSC1363583        05327598986N+                                                                                                                                                                                                                                    
11363583        SVPOS833901686130620181307201803300435300130020216000000002000000000000000047200000000046279000000000000000000000921000000000000000000046279000000000000PF01011363583        00000000000000000000000000000000000000000000000000000000000000000000000000000000000000000000986 +                                                                                                                  
21363583        83390168600000000852713062018230514439013******9012   0000000082000000000000000000000000000101000000008200130720180000078344POSC1363583        05311109986N+                                                                                                                                                                                                                                    
21363583        83390168600000000852513062018230326498406******4824   0000000390000000000000000000000000000101000000039000130720180000883039POSC1363583        05311109986N+                                                                                                                                                                                                                                    
11363583        SMPOS833900941130620181307201803300435300130020216000000002000000000000000039920000000039141000000000000000000000779000000000000000000039141000000000000PF01011363583        00000000000000000000000000000000000000000000000000000000000000000000000000000000000000000000986 +                                                                                                                  
21363583        83390094100000000926313062018225335542820******4207   0000000193600000000000000000000000000101000000019360130720180000540959POSC1363583        05327598986N+                                                                                                                                                                                                                                    
21363583        83390094100000000926113062018225033514945******2835   0000000205600000000000000000000000000101000000020560130720180000084964POSC1363583        05327598986N+                                                                                                                                                                                                                                    
11363583        SMPOS833900938130620181307201803300435300130020216000000003000000000000000044600000000043730000000000000000000000870000000000000000000043730000000000000PF01011363583        00000000000000000000000000000000000000000000000000000000000000000000000000000000000000000000986 +                                                                                                                  
21363583        83390093800000000853113062018230628523421******9277   0000000082000000000000000000000000000101000000008200130720180000XGK2F4POSC1363583        05311109986N+                                                                                                                                                                                                                                    
21363583        83390093800000000852313062018225117552305******7593   0000000282000000000000000000000000000101000000028200130720180000620443POSC1363583        05311109986N+                                                                                                                                                                                                                                    
21363583        83390093800000000852913062018230554532930******7213   0000000082000000000000000000000000000101000000008200130720180000R62242POSC1363583        05311109986N+                                                                                                                                                                                                                                    
11363583        SVPOS833782529130620181307201803300435300130020216000000003000000000000000060285000000059110000000000000000000001175000000000000000000059110000000000000PF01011363583        00000000000000000000000000000000000000000000000000000000000000000000000000000000000000000000986 +                                                                                                                  
21363583        83378252900000000922713062018215114490172******3862   0000000220000000000000000000000000000101000000022000130720180000066988POSC1363583        05327598986N+                                                                                                                                                                                                                                    
21363583        83378252900000000922313062018212203432729******6260   0000000170450000000000000000000000000101000000017045130720180000780604POSC1363583        05327598986N+                                                                                                                                                                                                                                    
21363583        83378252900000000921913062018211107406655******4629   0000000212400000000000000000000000000101000000021240130720180000612300POSC1363583        05327598986N+                                                                                                                                                                                                                                    
11363583        SVPOS833782504130620181307201803300435300130020216000000002000000000000000029585000000029009000000000000000000000576000000000000000000029009000000000000PF01011363583        00000000000000000000000000000000000000000000000000000000000000000000000000000000000000000000986 +                                                                                                                  
21363583        83378250400000000851913062018224112412177******4139   0000000100250000000000000000000000000101000000010025130720180000043855POSC1363583        05311109986N+                                                                                                                                                                                                                                    
21363583        83378250400000000851113062018221516403225******8534   0000000195600000000000000000000000000101000000019560130720180000428012POSC1363583        05311109986N+                                                                                                                                                                                                                                    
11363583        SMPOS833767164130620181307201803300435300130020216000000005000000000000000081378000000079792000000000000000000001586000000000000000000079792000000000000PF01011363583        00000000000000000000000000000000000000000000000000000000000000000000000000000000000000000000986 +                                                                                                                  
21363583        83376716400000000925513062018224033532930******0111   0000000191320000000000000000000000000101000000019132130720180000R60432POSC1363583        05327598986N+                                                                                                                                                                                                                                    
21363583        83376716400000000921313062018210209529323******0406   0000000150650000000000000000000000000101000000015065130720180000004347POSC1363583        05327598986N+                                                                                                                                                                                                                                    
21363583        83376716400000000923513062018221802550209******4018   0000000101750000000000000000000000000101000000010175130720180000586O02POSC1363583        05327598986N+                                                                                                                                                                                                                                    
21363583        83376716400000000922113062018212052552937******5651   0000000286760000000000000000000000000101000000028676130720180000254932POSC1363583        05327598986N+                                                                                                                                                                                                                                    
21363583        83376716400000000924513062018222613515590******1869   0000000083300000000000000000000000000101000000008330130720180000263073POSC1363583        05327598986N+                                                                                                                                                                                                                                    
11363583        SMPOS833767110130620181307201803300435300130020216000000009000000000000000135865000000133215000000000000000000002650000000000000000000133215000000000000PF01011363583        00000000000000000000000000000000000000000000000000000000000000000000000000000000000000000000986 +                                                                                                                  
21363583        83376711000000000848313062018212151512215******1557   0000000158550000000000000000000000000101000000015855130720180000008449POSC1363583        05311109986N+                                                                                                                                                                                                                                    
21363583        83376711000000000849913062018215623549167******7045   0000000162450000000000000000000000000101000000016245130720180000018603POSC1363583        05311109986N+                                                                                                                                                                                                                                    
21363583        83376711000000000849713062018213916525718******2137   0000000195000000000000000000000000000101000000019500130720180000047170POSC1363583        05311109986N+                                                                                                                                                                                                                                    
21363583        83376711000000000851713062018224040544731******2723   0000000100250000000000000000000000000101000000010025130720180000410275POSC1363583        05311109986N+                                                                                                                                                                                                                                    
21363583        83376711000000000850313062018215952544300******0392   0000000213400000000000000000000000000101000000021340130720180000023971POSC1363583        05311109986N+                                                                                                                                                                                                                                    
21363583        83376711000000000850513062018220430514945******2057   0000000079270000000000000000000000000101000000007927130720180000090628POSC1363583        05311109986N+                                                                                                                                                                                                                                    
21363583        83376711000000000849113062018212815525663******9383   0000000104480000000000000000000000000101000000010448130720180000027869POSC1363583        05311109986N+                                                                                                                                                                                                                                    
21363583        83376711000000000848713062018212702514945******2367   0000000104480000000000000000000000000101000000010448130720180000025558POSC1363583        05311109986N+                                                                                                                                                                                                                                    
21363583        83376711000000000851313062018222713514868******6314   0000000240770000000000000000000000000101000000024077130720180000060646POSC1363583        05311109986N+                                                                                                                                                                                                                                    
11363583        SMPOS833152893130620181307201803300435300130020216000000001000000000000000006742000000006611000000000000000000000131000000000000000000006611000000000000PF01011363583        00000000000000000000000000000000000000000000000000000000000000000000000000000000000000000000986 +                                                                                                                  
21363583        83315289300000000920113062018194725511781******5533   0000000067420000000000000000000000000101000000006742130720180000820036POSC1363583        05327598986N+                                                                                                                                                                                                                                    
11363583        SMPOS833152867130620181307201803300435300130020216000000001000000000000000020350000000019953000000000000000000000397000000000000000000019953000000000000PF01011363583        00000000000000000000000000000000000000000000000000000000000000000000000000000000000000000000986 +                                                                                                                  
21363583        83315286700000000847713062018170034549167******2762   0000000203500000000000000000000000000101000000020350130720180000094553POSC1363583        05311109986N+                                                                                                                                                                                                                                    
11363583        SVPOS832741185130620181307201803300435300130020216000000004000000000000000044306000000043442000000000000000000000864000000000000000000043442000000000000PF01011363583        00000000000000000000000000000000000000000000000000000000000000000000000000000000000000000000986 +                                                                                                                  
21363583        83274118500000000919313062018152109415275******1113   0000000142750000000000000000000000000101000000014275130720180000090713POSC1363583        05327598986N+                                                                                                                                                                                                                                    
21363583        83274118500000000918513062018150658490172******6267   0000000151650000000000000000000000000101000000015165130720180000097799POSC1363583        05327598986N+                                                                                                                                                                                                                                    
21363583        83274118500000000917713062018140840441524******3280   0000000074330000000000000000000000000101000000007433130720180000090246POSC1363583        05327598986N+                                                                                                                                                                                                                                    
21363583        83274118500000000917913062018140910406669******7328   0000000074330000000000000000000000000101000000007433130720180000692272POSC1363583        05327598986N+                                                                                                                                                                                                                                    
11363583        SMPOS832526794130620181307201803300435300130020216000000001000000000000000005065000000004966000000000000000000000099000000000000000000004966000000000000PF01011363583        00000000000000000000000000000000000000000000000000000000000000000000000000000000000000000000986 +                                                                                                                  
21363583        83252679400000000918113062018141215523421******7835   00000000506500000000000000000000000001010000000050651307201800002UHM3HPOSC1363583        05327598986N+                                                                                                                                                                                                                                    
11363583        SEPOS833901983130620181406201803300435300130020216000000001000000000000000020650000000020371000000000000000000000279000000000000000000020371000000000000PG01011363583        00000000000000000000000000000000000000000000000000000000000000000000000000000000000000000000986 +                                                                                                                  
21363583        83390198300000000926913062018232554410390******8945   0000000206500000000000000000000000000101000000020650140620180000201644POSC1363583        05327598986N+                                                                                                                                                                                                                                    
11363583        SRPOS833901363130620181406201803300435300130020216000000002000000000000000015410000000015202000000000000000000000208000000000000000000015202000000000000PG01011363583        00000000000000000000000000000000000000000000000000000000000000000000000000000000000000000000986 +                                                                                                                  
21363583        83390136300000000926513062018231629589916******1446   0000000111800000000000000000000000000101000000011180140620180000605707POSC1363583        05327598986N+                                                                                                                                                                                                                                    
21363583        83390136300000000927113062018234425589916******9551   0000000042300000000000000000000000000101000000004230140620180000607319POSC1363583        05327598986N+                                                                                                                                                                                                                                    
11363583        EDPOS833795013130620181406201803300435300130020216000000001000000000000000028698000000028253000000000000000000000445000000000000000000028253000000000000PG01011363583        00000000000000000000000000000000000000000000000000000000000000000000000000000000000000000000986 +                                                                                                                  
21363583        83379501300000000925113062018223800506753******6322   0000000286980000000000000000000000000101000000028698140620180000341168POSC1363583        05327598986N+                                                                                                                                                                                                                                    
11363583        EDPOS833794997130620181406201803300435300130020216000000002000000000000000033690000000033168000000000000000000000522000000000000000000033168000000000000PG01011363583        00000000000000000000000000000000000000000000000000000000000000000000000000000000000000000000986 +                                                                                                                  
21363583        83379499700000000850913062018220707627780******0808   0000000113600000000000000000000000000101000000011360140620180000282165POSC1363583        05311109986N+                                                                                                                                                                                                                                    
21363583        83379499700000000852113062018224725509000******8134   0000000223300000000000000000000000000101000000022330140620180000201352POSC1363583        05311109986N+                                                                                                                                                                                                                                    
11363583        SEPOS833788496130620181406201803300435300130020216000000003000000000000000048124000000047475000000000000000000000649000000000000000000047475000000000000PG01011363583        00000000000000000000000000000000000000000000000000000000000000000000000000000000000000000000986 +                                                                                                                  
21363583        83378849600000000925313062018223839486323******3413   0000000286980000000000000000000000000101000000028698140620180000045567POSC1363583        05327598986N+                                                                                                                                                                                                                                    
21363583        83378849600000000925913062018224849498453******0710   0000000098600000000000000000000000000101000000009860140620180000282161POSC1363583        05327598986N+                                                                                                                                                                                                                                    
21363583        83378849600000000924913062018223724439267******9603   0000000095660000000000000000000000000101000000009566140620180000366089POSC1363583        05327598986N+                                                                                                                                                                                                                                    
11363583        SRPOS833774794130620181406201803300435300130020216000000007000000000000000109740000000108259000000000000000000001481000000000000000000108259000000000000PG01011363583        00000000000000000000000000000000000000000000000000000000000000000000000000000000000000000000986 +                                                                                                                  
21363583        83377479400000000923113062018220626525663******9813   0000000173100000000000000000000000000101000000017310140620180000591809POSC1363583        05327598986N+                                                                                                                                                                                                                                    
21363583        83377479400000000925713062018224818589916******1716   0000000100000000000000000000000000000101000000010000140620180000600351POSC1363583        05327598986N+                                                                                                                                                                                                                                    
21363583        83377479400000000923713062018221903523284******3382   0000000234400000000000000000000000000101000000023440140620180000594384POSC1363583        05327598986N+                                                                                                                                                                                                                                    
21363583        83377479400000000924713062018223537502121******7079   0000000200000000000000000000000000000101000000020000140620180000360952POSC1363583        05327598986N+                                                                                                                                                                                                                                    
21363583        83377479400000000924113062018222448502121******0251   0000000089900000000000000000000000000101000000008990140620180000250841POSC1363583        05327598986N+                                                                                                                                                                                                                                    
21363583        83377479400000000924313062018222528546479******5570   0000000100000000000000000000000000000101000000010000140620180000877708POSC1363583        05327598986N+                                                                                                                                                                                                                                    
21363583        83377479400000000923913062018222317514945******8199   0000000200000000000000000000000000000101000000020000140620180000594597POSC1363583        05327598986N+                                                                                                                                                                                                                                    
11363583        SRPOS833774753130620181406201803300435300130020216000000007000000000000000080595000000079507000000000000000000001088000000000000000000079507000000000000PG01011363583        00000000000000000000000000000000000000000000000000000000000000000000000000000000000000000000986 +                                                                                                                  
21363583        83377475300000000849513062018212937514945******3376   0000000106700000000000000000000000000101000000010670140620180000579047POSC1363583        05311109986N+                                                                                                                                                                                                                                    
21363583        83377475300000000848913062018212739502121******6977   0000000104480000000000000000000000000101000000010448140620180000280454POSC1363583        05311109986N+                                                                                                                                                                                                                                    
21363583        83377475300000000850713062018220502549167******4157   0000000079270000000000000000000000000101000000007927140620180000591439POSC1363583        05311109986N+                                                                                                                                                                                                                                    
21363583        83377475300000000848113062018212057544731******6702   0000000083500000000000000000000000000101000000008350140620180000212674POSC1363583        05311109986N+                                                                                                                                                                                                                                    
21363583        83377475300000000849313062018212910502121******1964   0000000106700000000000000000000000000101000000010670140620180000292953POSC1363583        05311109986N+                                                                                                                                                                                                                                    
21363583        83377475300000000850113062018215724589916******4634   0000000225300000000000000000000000000101000000022530140620180000588510POSC1363583        05311109986N+                                                                                                                                                                                                                                    
21363583        83377475300000000851513062018222827502121******6447   0000000100000000000000000000000000000101000000010000140620180000284557POSC1363583        05311109986N+                                                                                                                                                                                                                                    
11363583        EDPOS833624756130620181406201803300435300130020216000000001000000000000000010225000000010067000000000000000000000158000000000000000000010067000000000000PG01011363583        00000000000000000000000000000000000000000000000000000000000000000000000000000000000000000000986 +                                                                                                                  
21363583        83362475600000000920913062018203354627780******1201   0000000102250000000000000000000000000101000000010225140620180000747265POSC1363583        05327598986N+                                                                                                                                                                                                                                    
11363583        SRPOS833276072130620181406201803300435300130020216000000003000000000000000040891000000040339000000000000000000000552000000000000000000040339000000000000PG01011363583        00000000000000000000000000000000000000000000000000000000000000000000000000000000000000000000986 +                                                                                                                  
21363583        83327607200000000920313062018194754502121******2518   0000000067420000000000000000000000000101000000006742140620180000480848POSC1363583        05327598986N+                                                                                                                                                                                                                                    
21363583        83327607200000000920713062018203328502121******7689   0000000102250000000000000000000000000101000000010225140620180000334568POSC1363583        05327598986N+                                                                                                                                                                                                                                    
21363583        83327607200000000921113062018203815637529******8115   0000000239240000000000000000000000000101000000023924140620180000861236POSC1363583        05327598986N+                                                                                                                                                                                                                                    
11363583        SEPOS832813902130620181406201803300435300130020216000000002000000000000000007950000000007842000000000000000000000108000000000000000000007842000000000000PG01011363583        00000000000000000000000000000000000000000000000000000000000000000000000000000000000000000000986 +                                                                                                                  
21363583        83281390200000000918713062018151236482481******3103   0000000039750000000000000000000000000101000000003975140620180000065571POSC1363583        05327598986N+                                                                                                                                                                                                                                    
21363583        83281390200000000918913062018151305473200******4204   0000000039750000000000000000000000000101000000003975140620180000196550POSC1363583        05327598986N+                                                                                                                                                                                                                                    
11363583        SEPOS832813853130620181406201803300435300130020216000000001000000000000000020740000000020460000000000000000000000280000000000000000000020460000000000000PG01011363583        00000000000000000000000000000000000000000000000000000000000000000000000000000000000000000000986 +                                                                                                                  
21363583        83281385300000000847313062018154643476608******3204   0000000207400000000000000000000000000101000000020740140620180000197393POSC1363583        05311109986N+                                                                                                                                                                                                                                    
11363583        SRPOS832632938130620181406201803300435300130020216000000002000000000000000023433000000023116000000000000000000000317000000000000000000023116000000000000PG01011363583        00000000000000000000000000000000000000000000000000000000000000000000000000000000000000000000986 +                                                                                                                  
21363583        83263293800000000919113062018151407603689*********88550000000154550000000000000000000000000101000000015455140620180000275317POSC1363583        05327598986N+                                                                                                                                                                                                                                    
21363583        83263293800000000919513062018154431545719******7169   0000000079780000000000000000000000000101000000007978140620180000338384POSC1363583        05327598986N+                                                                                                                                                                                                                                    
11363583        SRPOS832217576130620181406201803300435300130020216000000001000000000000000005490000000005416000000000000000000000074000000000000000000005416000000000000PG01011363583        00000000000000000000000000000000000000000000000000000000000000000000000000000000000000000000986 +                                                                                                                  
21363583        83221757600000000917113062018000500544731******2583   0000000054900000000000000000000000000101000000005490140620180000052972POSC1363583        05327598986N+                                                                                                                                                                                                                                    
11363583        SVPOS779858849150520181406201803300435300130020216000000002000000000000000028578000000028021000000000000000000000557000000000000000000028021000000000000PG01011363583        00000000000000000000000000000000000000000000000000000000000000000000000000000000000000000000986 +                                                                                                                  
21363583        77985884900000000710515052018225246428267******0019   0000000200000000000000000000000000000101000000020000140620180000008099POSC1363583        05327598986N+                                                                                                                                                                                                                                    
21363583        77985884900000000709915052018225105498406******1645   0000000085780000000000000000000000000101000000008578140620180000774283POSC1363583        05327598986N+                                                                                                                                                                                                                                    
11363583        SVPOS779858847150520181406201803300435300130020216000000001000000000000000017210000000016874000000000000000000000336000000000000000000016874000000000000PG01011363583        00000000000000000000000000000000000000000000000000000000000000000000000000000000000000000000986 +                                                                                                                  
21363583        77985884700000000699315052018231708406669******8803   0000000172100000000000000000000000000101000000017210140620180000673335POSC1363583        05311109986N+                                                                                                                                                                                                                                    
11363583        SMPOS779858230150520181406201803300435300130020216000000003000000000000000026150000000025641000000000000000000000509000000000000000000025641000000000000PG01011363583        00000000000000000000000000000000000000000000000000000000000000000000000000000000000000000000986 +                                                                                                                  
21363583        77985823000000000710115052018225136544731******1506   0000000085780000000000000000000000000101000000008578140620180000515370POSC1363583        05327598986N+                                                                                                                                                                                                                                    
21363583        77985823000000000711315052018231236522840******1398   0000000100720000000000000000000000000101000000010072140620180000131567POSC1363583        05327598986N+                                                                                                                                                                                                                                    
21363583        77985823000000000710715052018225404542820******4236   0000000075000000000000000000000000000101000000007500140620180000542562POSC1363583        05327598986N+                                                                                                                                                                                                                                    
11363583        SMPOS779858228150520181406201803300435300130020216000000001000000000000000020000000000019610000000000000000000000390000000000000000000019610000000000000PG01011363583        00000000000000000000000000000000000000000000000000000000000000000000000000000000000000000000986 +                                                                                                                  
21363583        77985822800000000698115052018225232524820******0974   0000000200000000000000000000000000000101000000020000140620180000095922POSC1363583        05311109986N+                                                                                                                                                                                                                                    
11363583        HCPOS779762811150520181406201803300435300130020216000000001000000000000000016032000000015639000000000000000000000393000000000000000000015639000000000000PG01011363583        00000000000000000000000000000000000000000000000000000000000000000000000000000000000000000000986 +                                                                                                                  
21363583        77976281100000000694515052018213012606282******3654   0000000160320000000000000000000000000101000000016032140620180000039964POSC1363583        05311109986N+                                                                                                                                                                                                                                    
11363583        ECPOS779758422150520181406201803300435300130020216000000001000000000000000007655000000007515000000000000000000000140000000000000000000007515000000000000PG01011363583        00000000000000000000000000000000000000000000000000000000000000000000000000000000000000000000986 +                                                                                                                  
21363583        77975842200000000707915052018224039651653******9744   0000000076550000000000000000000000000101000000007655140620180000042399POSC1363583        05327598986N+                                                                                                                                                                                                                                    
11363583        SVPOS779749390150520181406201803300435300130020216000000001000000000000000026035000000025527000000000000000000000508000000000000000000025527000000000000PG01011363583        00000000000000000000000000000000000000000000000000000000000000000000000000000000000000000000986 +                                                                                                                  
21363583        77974939000000000706115052018213438490172******7661   0000000260350000000000000000000000000101000000026035140620180000015585POSC1363583        05327598986N+                                                                                                                                                                                                                                    
11363583        SVPOS779749363150520181406201803300435300130020216000000004000000000000000053495000000052452000000000000000000001043000000000000000000052452000000000000PG01011363583        00000000000000000000000000000000000000000000000000000000000000000000000000000000000000000000986 +                                                                                                                  
21363583        77974936300000000695115052018215821493100******6061   0000000095000000000000000000000000000101000000009500140620180000685117POSC1363583        05311109986N+                                                                                                                                                                                                                                    
21363583        77974936300000000696315052018220952406655******8908   0000000180450000000000000000000000000101000000018045140620180000601433POSC1363583        05311109986N+                                                                                                                                                                                                                                    
21363583        77974936300000000697515052018224123470598******2194   0000000183220000000000000000000000000101000000018322140620180000005038POSC1363583        05311109986N+                                                                                                                                                                                                                                    
21363583        77974936300000000697115052018223428403225******6819   0000000076280000000000000000000000000101000000007628140620180000673118POSC1363583        05311109986N+                                                                                                                                                                                                                                    
11363583        SMPOS779736867150520181406201803300435300130020216000000009000000000000000135643000000132998000000000000000000002645000000000000000000132998000000000000PG01011363583        00000000000000000000000000000000000000000000000000000000000000000000000000000000000000000000986 +                                                                                                                  
21363583        77973686700000000709715052018224845523421******6592   0000000159550000000000000000000000000101000000015955140620180000JP0YI1POSC1363583        05327598986N+                                                                                                                                                                                                                                    
21363583        77973686700000000705115052018211910541187******9541   0000000253150000000000000000000000000101000000025315140620180000093553POSC1363583        05327598986N+                                                                                                                                                                                                                                    
21363583        77973686700000000704915052018211405544731******1624   0000000073330000000000000000000000000101000000007333140620180000142267POSC1363583        05327598986N+                                                                                                                                                                                                                                    
21363583        77973686700000000708715052018224514552693******7728   0000000300000000000000000000000000000101000000030000140620180000453081POSC1363583        05327598986N+                                                                                                                                                                                                                                    
21363583        77973686700000000705915052018213020550209******0036   0000000048650000000000000000000000000101000000004865140620180000C8T3F0POSC1363583        05327598986N+                                                                                                                                                                                                                                    
21363583        77973686700000000706515052018221653529323******6216   0000000155550000000000000000000000000101000000015555140620180000075065POSC1363583        05327598986N+                                                                                                                                                                                                                                    
21363583        77973686700000000708315052018224330516220******1838   0000000100000000000000000000000000000101000000010000140620180000R1U7X8POSC1363583        05327598986N+                                                                                                                                                                                                                                    
21363583        77973686700000000706715052018221755523284******3022   0000000100650000000000000000000000000101000000010065140620180000058187POSC1363583        05327598986N+                                                                                                                                                                                                                                    
21363583        77973686700000000706915052018222445541555******3760   0000000165550000000000000000000000000101000000016555140620180000085389POSC1363583        05327598986N+                                                                                                                                                                                                                                    
11363583        SMPOS779736850150520181406201803300435300130020216000000003000000000000000036708000000035992000000000000000000000716000000000000000000035992000000000000PG01011363583        00000000000000000000000000000000000000000000000000000000000000000000000000000000000000000000986 +                                                                                                                  
21363583        77973685000000000695315052018215900539091******7668   0000000090350000000000000000000000000101000000009035140620180000079958POSC1363583        05311109986N+                                                                                                                                                                                                                                    
21363583        77973685000000000695515052018220339525664******8772   0000000142100000000000000000000000000101000000014210140620180000062722POSC1363583        05311109986N+                                                                                                                                                                                                                                    
21363583        77973685000000000694715052018214923525664******9732   0000000134630000000000000000000000000101000000013463140620180000041537POSC1363583        05311109986N+                                                                                                                                                                                                                                    
11363583        ECPOS779429179150520181406201803300435300130020216000000002000000000000000016755000000016448000000000000000000000307000000000000000000016448000000000000PG01011363583        00000000000000000000000000000000000000000000000000000000000000000000000000000000000000000000986 +                                                                                                                  
21363583        77942917900000000703715052018203925650485******6300   0000000016900000000000000000000000000101000000001690140620180000694549POSC1363583        05327598986N+                                                                                                                                                                                                                                    
21363583        77942917900000000702515052018191014655000******4591   0000000150650000000000000000000000000101000000015065140620180000603893POSC1363583        05327598986N+                                                                                                                                                                                                                                    
11363583        SVPOS779313114150520181406201803300435300130020216000000003000000000000000039202000000038437000000000000000000000765000000000000000000038437000000000000PG01011363583        00000000000000000000000000000000000000000000000000000000000000000000000000000000000000000000986 +                                                                                                                  
21363583        77931311400000000702915052018195417498530******0951   0000000166050000000000000000000000000101000000016605140620180000012548POSC1363583        05327598986N+                                                                                                                                                                                                                                    
21363583        77931311400000000703915052018204009453211******3416   0000000075320000000000000000000000000101000000007532140620180000602678POSC1363583        05327598986N+                                                                                                                                                                                                                                    
21363583        77931311400000000702715052018194732422005******6109   0000000150650000000000000000000000000101000000015065140620180000095214POSC1363583        05327598986N+                                                                                                                                                                                                                                    
11363583        SMPOS779127807150520181406201803300435300130020216000000004000000000000000053317000000052277000000000000000000001040000000000000000000052277000000000000PG01011363583        00000000000000000000000000000000000000000000000000000000000000000000000000000000000000000000986 +                                                                                                                  
21363583        77912780700000000704315052018204101550209******3234   0000000075320000000000000000000000000101000000007532140620180000BS6GQYPOSC1363583        05327598986N+                                                                                                                                                                                                                                    
21363583        77912780700000000703115052018202938552640******3413   0000000150650000000000000000000000000101000000015065140620180000092099POSC1363583        05327598986N+                                                                                                                                                                                                                                    
21363583        77912780700000000704115052018204037523421******8544   00000001506500000000000000000000000001010000000150651406201800001DUICAPOSC1363583        05327598986N+                                                                                                                                                                                                                                    
21363583        77912780700000000703515052018203051516292******4722   0000000156550000000000000000000000000101000000015655140620180000UJ8TSLPOSC1363583        05327598986N+                                                                                                                                                                                                                                    
11363583        SMPOS779127789150520181406201803300435300130020216000000001000000000000000016645000000016320000000000000000000000325000000000000000000016320000000000000PG01011363583        00000000000000000000000000000000000000000000000000000000000000000000000000000000000000000000986 +                                                                                                                  
21363583        77912778900000000693715052018202439552305******4599   0000000166450000000000000000000000000101000000016645140620180000651289POSC1363583        05311109986N+                                                                                                                                                                                                                                    
11363583        SVPOS778872531150520181406201803300435300130020216000000002000000000000000039330000000038563000000000000000000000767000000000000000000038563000000000000PG01011363583        00000000000000000000000000000000000000000000000000000000000000000000000000000000000000000000986 +                                                                                                                  
21363583        77887253100000000700315052018140725452407******9303   0000000082200000000000000000000000000101000000008220140620180000269654POSC1363583        05327598986N+                                                                                                                                                                                                                                    
21363583        77887253100000000701115052018142302419590******6748   0000000311100000000000000000000000000101000000031110140620180000675083POSC1363583        05327598986N+                                                                                                                                                                                                                                    
11363583        SMPOS778547546150520181406201803300435300130020216000000004000000000000000066755000000065453000000000000000000001302000000000000000000065453000000000000PG01011363583        00000000000000000000000000000000000000000000000000000000000000000000000000000000000000000000986 +                                                                                                                  
21363583        77854754600000000701315052018150425536805******0832   0000000168450000000000000000000000000101000000016845140620180000644185POSC1363583        05327598986N+                                                                                                                                                                                                                                    
21363583        77854754600000000699315052018135350515590******2592   0000000200000000000000000000000000000101000000020000140620180000542266POSC1363583        05327598986N+                                                                                                                                                                                                                                    
21363583        77854754600000000701715052018151019552640******9600   0000000201300000000000000000000000000101000000020130140620180000073272POSC1363583        05327598986N+                                                                                                                                                                                                                                    
21363583        77854754600000000700915052018141002523421******7108   0000000097800000000000000000000000000101000000009780140620180000MUXMYFPOSC1363583        05327598986N+                                                                                                                                                                                                                                    
9000000152                                                                                                                                                                                                                                                                                                                                                                                                      
