01906201803014919062018CEADM1001363583        10440482000154GETNET S.A.         000000152GSSANT. V.8.0 400 BYTES                                                                                                                                                                                                                                                                                                
11363583        SVPOS843385137180620181807201803300435300130020216000000001000000000000000031520000000030905000000000000000000000615000000000000000000030905000000000000PF01011363583        00000000000000000000000000000000000000000000000000000000000000000000000000000000000000000000986 +                                                                                                                  
21363583        84338513700000000952918062018233742425907******4855   0000000315200000000000000000000000000101000000031520180720180000026032POSC1363583        05327598986E+                                                                                                                                                                                                                                    
11363583        SVPOS843303011180620181807201803300435300130020216000000002000000000000000048320000000047378000000000000000000000942000000000000000000047378000000000000PF01011363583        00000000000000000000000000000000000000000000000000000000000000000000000000000000000000000000986 +                                                                                                                  
21363583        84330301100000000875318062018215646453211******7976   0000000315100000000000000000000000000101000000031510180720180000671482POSC1363583        05311109986N+                                                                                                                                                                                                                                    
21363583        84330301100000000876318062018222019412177******5125   0000000168100000000000000000000000000101000000016810180720180000016691POSC1363583        05311109986N+                                                                                                                                                                                                                                    
11363583        SVPOS843302999180620181807201803300435300130020216000000001000000000000000010350000000010148000000000000000000000202000000000000000000010148000000000000PF01011363583        00000000000000000000000000000000000000000000000000000000000000000000000000000000000000000000986 +                                                                                                                  
21363583        84330299900000000875718062018215929472225******3325   0000000103500000000000000000000000000101000000010350180720180000021519POSC1363583        05311109986E+                                                                                                                                                                                                                                    
11363583        SMPOS843292274180620181807201803300435300130020216000000001000000000000000032960000000032317000000000000000000000643000000000000000000032317000000000000PF01011363583        00000000000000000000000000000000000000000000000000000000000000000000000000000000000000000000986 +                                                                                                                  
21363583        84329227400000000952318062018223353542820******1982   0000000329600000000000000000000000000101000000032960180720180000341869POSC1363583        05327598986N+                                                                                                                                                                                                                                    
11363583        SMPOS843292257180620181807201803300435300130020216000000003000000000000000057326000000056208000000000000000000001118000000000000000000056208000000000000PF01011363583        00000000000000000000000000000000000000000000000000000000000000000000000000000000000000000000986 +                                                                                                                  
21363583        84329225700000000876918062018223704544731******4270   0000000234880000000000000000000000000101000000023488180720180000373461POSC1363583        05311109986N+                                                                                                                                                                                                                                    
21363583        84329225700000000876718062018223617549159******9910   0000000234880000000000000000000000000101000000023488180720180000665513POSC1363583        05311109986N+                                                                                                                                                                                                                                    
21363583        84329225700000000875518062018215825553096******2836   0000000103500000000000000000000000000101000000010350180720180000115692POSC1363583        05311109986N+                                                                                                                                                                                                                                    
11363583        SMPOS842731374180620181807201803300435300130020216000000001000000000000000019292000000018916000000000000000000000376000000000000000000018916000000000000PF01011363583        00000000000000000000000000000000000000000000000000000000000000000000000000000000000000000000986 +                                                                                                                  
21363583        84273137400000000873918062018203255552297******5982   0000000192920000000000000000000000000101000000019292180720180000094288POSC1363583        05311109986N+                                                                                                                                                                                                                                    
11363583        SVPOS842378855180620181807201803300435300130020216000000002000000000000000051460000000050457000000000000000000001003000000000000000000050457000000000000PF01011363583        00000000000000000000000000000000000000000000000000000000000000000000000000000000000000000000986 +                                                                                                                  
21363583        84237885500000000873318062018145422407409******5826   0000000319000000000000000000000000000101000000031900180720180000009878POSC1363583        05311109986N+                                                                                                                                                                                                                                    
21363583        84237885500000000872518062018134046419590******8939   0000000195600000000000000000000000000101000000019560180720180000905607POSC1363583        05311109986N+                                                                                                                                                                                                                                    
11363583        SMPOS842161434180620181807201803300435300130020216000000001000000000000000010580000000010374000000000000000000000206000000000000000000010374000000000000PF01011363583        00000000000000000000000000000000000000000000000000000000000000000000000000000000000000000000986 +                                                                                                                  
21363583        84216143400000000872918062018142322550209******0689   0000000105800000000000000000000000000101000000010580180720180000I8HQ2APOSC1363583        05311109986N+                                                                                                                                                                                                                                    
11363583        SRPOS843384950180620181906201803300435300130020216000000001000000000000000015050000000014847000000000000000000000203000000000000000000014847000000000000PG01011363583        00000000000000000000000000000000000000000000000000000000000000000000000000000000000000000000986 +                                                                                                                  
21363583        84338495000000000877118062018225237589916******6890   0000000150500000000000000000000000000101000000015050190620180000804612POSC1363583        05311109986N+                                                                                                                                                                                                                                    
11363583        EDPOS843311781180620181906201803300435300130020216000000001000000000000000017330000000017061000000000000000000000269000000000000000000017061000000000000PG01011363583        00000000000000000000000000000000000000000000000000000000000000000000000000000000000000000000986 +                                                                                                                  
21363583        84331178100000000875118062018214431627780******7012   0000000173300000000000000000000000000101000000017330190620180000553233POSC1363583        05311109986N+                                                                                                                                                                                                                                    
11363583        SEPOS843306977180620181906201803300435300130020216000000003000000000000000059810000000059002000000000000000000000808000000000000000000059002000000000000PG01011363583        00000000000000000000000000000000000000000000000000000000000000000000000000000000000000000000986 +                                                                                                                  
21363583        84330697700000000952518062018223524490172******0766   0000000219800000000000000000000000000101000000021980190620180000328664POSC1363583        05327598986N+                                                                                                                                                                                                                                    
21363583        84330697700000000951718062018222344422061******8243   0000000048800000000000000000000000000101000000004880190620180000241957POSC1363583        05327598986N+                                                                                                                                                                                                                                    
21363583        84330697700000000952118062018223316476608******8204   0000000329500000000000000000000000000101000000032950190620180000273707POSC1363583        05327598986N+                                                                                                                                                                                                                                    
11363583        SRPOS843297522180620181906201803300435300130020216000000005000000000000000067710000000066796000000000000000000000914000000000000000000066796000000000000PG01011363583        00000000000000000000000000000000000000000000000000000000000000000000000000000000000000000000986 +                                                                                                                  
21363583        84329752200000000876518062018222428502121******0107   0000000211400000000000000000000000000101000000021140190620180000244949POSC1363583        05311109986N+                                                                                                                                                                                                                                    
21363583        84329752200000000874918062018214206603689*********94920000000100000000000000000000000000000101000000010000190620180000300520POSC1363583        05311109986N+                                                                                                                                                                                                                                    
21363583        84329752200000000874318062018205837525664******2567   0000000212400000000000000000000000000101000000021240190620180000776162POSC1363583        05311109986N+                                                                                                                                                                                                                                    
21363583        84329752200000000875918062018220008520132******7120   0000000103500000000000000000000000000101000000010350190620180000003051POSC1363583        05311109986N+                                                                                                                                                                                                                                    
21363583        84329752200000000874518062018213324544731******8204   0000000049800000000000000000000000000101000000004980190620180000335477POSC1363583        05311109986N+                                                                                                                                                                                                                                    
11363583        EDPOS843171924180620181906201803300435300130020216000000001000000000000000021000000000020674000000000000000000000326000000000000000000020674000000000000PG01011363583        00000000000000000000000000000000000000000000000000000000000000000000000000000000000000000000986 +                                                                                                                  
21363583        84317192400000000873518062018200949650494******1200   0000000210000000000000000000000000000101000000021000190620180000271737POSC1363583        05311109986N+                                                                                                                                                                                                                                    
11363583        SEPOS843097289180620181906201803300435300130020216000000001000000000000000019950000000019681000000000000000000000269000000000000000000019681000000000000PG01011363583        00000000000000000000000000000000000000000000000000000000000000000000000000000000000000000000986 +                                                                                                                  
21363583        84309728900000000873718062018202445473200******5105   0000000199500000000000000000000000000101000000019950190620180000272158POSC1363583        05311109986N+                                                                                                                                                                                                                                    
11363583        SRPOS842862032180620181906201803300435300130020216000000001000000000000000009646000000009516000000000000000000000130000000000000000000009516000000000000PG01011363583        00000000000000000000000000000000000000000000000000000000000000000000000000000000000000000000986 +                                                                                                                  
21363583        84286203200000000874118062018203334589916******6707   0000000096460000000000000000000000000101000000009646190620180000765038POSC1363583        05311109986N+                                                                                                                                                                                                                                    
11363583        SEPOS842466366180620181906201803300435300130020216000000001000000000000000014440000000014245000000000000000000000195000000000000000000014245000000000000PG01011363583        00000000000000000000000000000000000000000000000000000000000000000000000000000000000000000000986 +                                                                                                                  
21363583        84246636600000000873118062018143725419148******3017   0000000144400000000000000000000000000101000000014440190620180000374564POSC1363583        05311109986N+                                                                                                                                                                                                                                    
11363583        SVPOS789403013200520181906201803300435300130020216000000001000000000000000032991000000032348000000000000000000000643000000000000000000032348000000000000PG01011363583        00000000000000000000000000000000000000000000000000000000000000000000000000000000000000000000986 +                                                                                                                  
21363583        78940301300000000757920052018213731498407******9550   0000000329910000000000000000000000000101000000032991190620180000965526POSC1363583        05327598986N+                                                                                                                                                                                                                                    
11363583        SVPOS789403003200520181906201803300435300130020216000000001000000000000000013850000000013580000000000000000000000270000000000000000000013580000000000000PG01011363583        00000000000000000000000000000000000000000000000000000000000000000000000000000000000000000000986 +                                                                                                                  
21363583        78940300300000000726320052018205119453211******8754   0000000138500000000000000000000000000101000000013850190620180000614146POSC1363583        05311109986N+                                                                                                                                                                                                                                    
11363583        SVPOS789182441200520181906201803300435300130020216000000002000000000000000088641000000086912000000000000000000001729000000000000000000086912000000000000PG01011363583        00000000000000000000000000000000000000000000000000000000000000000000000000000000000000000000986 +                                                                                                                  
21363583        78918244100000000752920052018155727498408******1502   0000000666110000000000000000000000000101000000066611190620180000096836POSC1363583        05327598986N+                                                                                                                                                                                                                                    
21363583        78918244100000000753920052018161138422061******3150   0000000220300000000000000000000000000101000000022030190620180000115755POSC1363583        05327598986N+                                                                                                                                                                                                                                    
11363583        SVPOS789182315200520181906201803300435300130020216000000003000000000000000041166000000040363000000000000000000000803000000000000000000040363000000000000PG01011363583        00000000000000000000000000000000000000000000000000000000000000000000000000000000000000000000986 +                                                                                                                  
21363583        78918231500000000724520052018164211480632******2383   0000000108650000000000000000000000000101000000010865190620180000624212POSC1363583        05311109986N+                                                                                                                                                                                                                                    
21363583        78918231500000000724320052018163520470598******3754   0000000197600000000000000000000000000101000000019760190620180000085377POSC1363583        05311109986N+                                                                                                                                                                                                                                    
21363583        78918231500000000723720052018155920453211******3194   0000000105410000000000000000000000000101000000010541190620180000694602POSC1363583        05311109986N+                                                                                                                                                                                                                                    
11363583        SMPOS789081874200520181906201803300435300130020216000000007000000000000000131767000000129198000000000000000000002569000000000000000000129198000000000000PG01011363583        00000000000000000000000000000000000000000000000000000000000000000000000000000000000000000000986 +                                                                                                                  
21363583        78908187400000000753720052018160536514895******2946   0000000103510000000000000000000000000101000000010351190620180000041368POSC1363583        05327598986N+                                                                                                                                                                                                                                    
21363583        78908187400000000755520052018195842534540******3018   0000000213400000000000000000000000000101000000021340190620180000057081POSC1363583        05327598986N+                                                                                                                                                                                                                                    
21363583        78908187400000000753320052018160430544828******3906   0000000207280000000000000000000000000101000000020728190620180000634244POSC1363583        05327598986N+                                                                                                                                                                                                                                    
21363583        78908187400000000753520052018160502552236******3102   0000000207280000000000000000000000000101000000020728190620180000024411POSC1363583        05327598986N+                                                                                                                                                                                                                                    
21363583        78908187400000000755720052018195946553636******0648   0000000094600000000000000000000000000101000000009460190620180000007126POSC1363583        05327598986N+                                                                                                                                                                                                                                    
21363583        78908187400000000754720052018192858516220******8590   0000000040000000000000000000000000000101000000004000190620180000KG13HAPOSC1363583        05327598986N+                                                                                                                                                                                                                                    
21363583        78908187400000000754120052018163547523421******4797   0000000451600000000000000000000000000101000000045160190620180000Q3YVRSPOSC1363583        05327598986N+                                                                                                                                                                                                                                    
11363583        SMPOS789081841200520181906201803300435300130020216000000002000000000000000044300000000043436000000000000000000000864000000000000000000043436000000000000PG01011363583        00000000000000000000000000000000000000000000000000000000000000000000000000000000000000000000986 +                                                                                                                  
21363583        78908184100000000724120052018161535522840******0242   0000000241500000000000000000000000000101000000024150190620180000160153POSC1363583        05311109986N+                                                                                                                                                                                                                                    
21363583        78908184100000000723920052018160424516292******9682   0000000201500000000000000000000000000101000000020150190620180000SLVE8NPOSC1363583        05311109986N+                                                                                                                                                                                                                                    
11363583        SMPOS789081816200520181906201803300435300130020216000000001000000000000000018870000000018502000000000000000000000368000000000000000000018502000000000000PG01011363583        00000000000000000000000000000000000000000000000000000000000000000000000000000000000000000000986 +                                                                                                                  
21363583        78908181600000000725120052018165255529205******3030   0000000188700000000000000000000000000101000000018870190620180000376357POSC1363583        05311109986N+                                                                                                                                                                                                                                    
11363583        ACPOS788908554200520181906201803300435300130020216000000001000000000000000027290000000026466000000000000000000000824000000000000000000026466000000000000PG01011363583        00000000000000000000000000000000000000000000000000000000000000000000000000000000000000000000986 +                                                                                                                  
21363583        78890855400000000752520052018153348374768*****6752    0000000272900000000000000000000000000101000000027290190620180000641840POSC1363583        05327598986N+                                                                                                                                                                                                                                    
11363583        ACPOS788908513200520181906201803300435300130020216000000001000000000000000022825000000022136000000000000000000000689000000000000000000022136000000000000PG01011363583        00000000000000000000000000000000000000000000000000000000000000000000000000000000000000000000986 +                                                                                                                  
21363583        78890851300000000721520052018152833374768*****9913    0000000228250000000000000000000000000101000000022825190620180000685667POSC1363583        05311109986N+                                                                                                                                                                                                                                    
11363583        SVPOS788821781200520181906201803300435300130020216000000003000000000000000065785000000064502000000000000000000001283000000000000000000064502000000000000PG01011363583        00000000000000000000000000000000000000000000000000000000000000000000000000000000000000000000986 +                                                                                                                  
21363583        78882178100000000721720052018152911415275******3114   0000000200000000000000000000000000000101000000020000190620180000046090POSC1363583        05311109986N+                                                                                                                                                                                                                                    
21363583        78882178100000000720920052018151725453211******9004   0000000245450000000000000000000000000101000000024545190620180000675526POSC1363583        05311109986N+                                                                                                                                                                                                                                    
21363583        78882178100000000720120052018145836406655******5502   0000000212400000000000000000000000000101000000021240190620180000685822POSC1363583        05311109986N+                                                                                                                                                                                                                                    
11363583        SMPOS788692397200520181906201803300435300130020216000000003000000000000000053275000000052236000000000000000000001039000000000000000000052236000000000000PG01011363583        00000000000000000000000000000000000000000000000000000000000000000000000000000000000000000000986 +                                                                                                                  
21363583        78869239700000000719520052018135125552289******6584   0000000104500000000000000000000000000101000000010450190620180000058052POSC1363583        05311109986N+                                                                                                                                                                                                                                    
21363583        78869239700000000721320052018152744532930******0121   0000000224750000000000000000000000000101000000022475190620180000F80825POSC1363583        05311109986N+                                                                                                                                                                                                                                    
21363583        78869239700000000720520052018150700554906******7715   0000000203500000000000000000000000000101000000020350190620180000006718POSC1363583        05311109986N+                                                                                                                                                                                                                                    
9000000080                                                                                                                                                                                                                                                                                                                                                                                                      
