01306201803415113062018CEADM1001363583        10440482000154GETNET S.A.         000000146GSSANT. V.8.0 400 BYTES                                                                                                                                                                                                                                                                                                
11363583        ACPOS831892473120620181207201803300435300130020216000000001000000000000000021160000000020521000000000000000000000639000000000000000000020521000000000000PF01011363583        00000000000000000000000000000000000000000000000000000000000000000000000000000000000000000000986 +                                                                                                                  
21363583        83189247300000000914912062018232620376442*****5004    0000000211600000000000000000000000000101000000021160120720180000663842POSC1363583        05327598986N+                                                                                                                                                                                                                                    
11363583        SVPOS831890259120620181207201803300435300130020216000000001000000000000000020960000000020551000000000000000000000409000000000000000000020551000000000000PF01011363583        00000000000000000000000000000000000000000000000000000000000000000000000000000000000000000000986 +                                                                                                                  
21363583        83189025900000000915912062018233735441524******9512   0000000209600000000000000000000000000101000000020960120720180000375263POSC1363583        05327598986N+                                                                                                                                                                                                                                    
11363583        SMPOS831886803120620181207201803300435300130020216000000002000000000000000043630000000042780000000000000000000000850000000000000000000042780000000000000PF01011363583        00000000000000000000000000000000000000000000000000000000000000000000000000000000000000000000986 +                                                                                                                  
21363583        83188680300000000915712062018233641542820******4887   0000000195600000000000000000000000000101000000019560120720180000370477POSC1363583        05327598986N+                                                                                                                                                                                                                                    
21363583        83188680300000000913712062018225938514945******6777   0000000240700000000000000000000000000101000000024070120720180000090383POSC1363583        05327598986N+                                                                                                                                                                                                                                    
11363583        SMPOS831886794120620181207201803300435300130020216000000006000000000000000125480000000123034000000000000000000002446000000000000000000123034000000000000PF01011363583        00000000000000000000000000000000000000000000000000000000000000000000000000000000000000000000986 +                                                                                                                  
21363583        83188679400000000845112062018232244552305******8153   0000000223500000000000000000000000000101000000022350120720180000631981POSC1363583        05311109986N+                                                                                                                                                                                                                                    
21363583        83188679400000000846312062018235352550209******1187   0000000310900000000000000000000000000101000000031090120720180000LJ6VC6POSC1363583        05311109986N+                                                                                                                                                                                                                                    
21363583        83188679400000000845512062018232746515590******5462   0000000137600000000000000000000000000101000000013760120720180000281556POSC1363583        05311109986N+                                                                                                                                                                                                                                    
21363583        83188679400000000845312062018232449520132******8084   0000000251800000000000000000000000000101000000025180120720180000251357POSC1363583        05311109986N+                                                                                                                                                                                                                                    
21363583        83188679400000000845912062018233816515590******1871   0000000116600000000000000000000000000101000000011660120720180000384360POSC1363583        05311109986N+                                                                                                                                                                                                                                    
21363583        83188679400000000843712062018225149515590******0972   0000000214400000000000000000000000000101000000021440120720180000521271POSC1363583        05311109986N+                                                                                                                                                                                                                                    
11363583        SVPOS831716645120620181207201803300435300130020216000000006000000000000000127960000000125464000000000000000000002496000000000000000000125464000000000000PF01011363583        00000000000000000000000000000000000000000000000000000000000000000000000000000000000000000000986 +                                                                                                                  
21363583        83171664500000000913312062018224911490172******7776   0000000203600000000000000000000000000101000000020360120720180000076280POSC1363583        05327598986N+                                                                                                                                                                                                                                    
21363583        83171664500000000913112062018224621498406******3825   0000000103500000000000000000000000000101000000010350120720180000662745POSC1363583        05327598986N+                                                                                                                                                                                                                                    
21363583        83171664500000000910312062018221017489391******6423   0000000263400000000000000000000000000101000000026340120720180000014417POSC1363583        05327598986N+                                                                                                                                                                                                                                    
21363583        83171664500000000907512062018210103489391******8688   0000000215400000000000000000000000000101000000021540120720180000065931POSC1363583        05327598986N+                                                                                                                                                                                                                                    
21363583        83171664500000000912712062018224400489391******8179   0000000263350000000000000000000000000101000000026335120720180000068277POSC1363583        05327598986N+                                                                                                                                                                                                                                    
21363583        83171664500000000906912062018205711406669******8803   0000000230350000000000000000000000000101000000023035120720180000672827POSC1363583        05327598986N+                                                                                                                                                                                                                                    
11363583        SVPOS831716603120620181207201803300435300130020216000000004000000000000000081981000000080383000000000000000000001598000000000000000000080383000000000000PF01011363583        00000000000000000000000000000000000000000000000000000000000000000000000000000000000000000000986 +                                                                                                                  
21363583        83171660300000000842912062018220142439027******0737   0000000102750000000000000000000000000101000000010275120720180000620116POSC1363583        05311109986N+                                                                                                                                                                                                                                    
21363583        83171660300000000843112062018221823453211******9603   0000000281160000000000000000000000000101000000028116120720180000684603POSC1363583        05311109986N+                                                                                                                                                                                                                                    
21363583        83171660300000000841912062018215633490172******6144   0000000196600000000000000000000000000101000000019660120720180000088370POSC1363583        05311109986N+                                                                                                                                                                                                                                    
21363583        83171660300000000841512062018214630406655******1999   0000000239300000000000000000000000000101000000023930120720180000665502POSC1363583        05311109986N+                                                                                                                                                                                                                                    
11363583        SMPOS831688136120620181207201803300435300130020216000000008000000000000000137489000000134809000000000000000000002680000000000000000000134809000000000000PF01011363583        00000000000000000000000000000000000000000000000000000000000000000000000000000000000000000000986 +                                                                                                                  
21363583        83168813600000000912112062018223204550209******1689   0000000197600000000000000000000000000101000000019760120720180000XPRWTPPOSC1363583        05327598986N+                                                                                                                                                                                                                                    
21363583        83168813600000000908712062018214600549167******5228   0000000167500000000000000000000000000101000000016750120720180000069594POSC1363583        05327598986N+                                                                                                                                                                                                                                    
21363583        83168813600000000910112062018220709530551******0161   0000000056400000000000000000000000000101000000005640120720180000542128POSC1363583        05327598986N+                                                                                                                                                                                                                                    
21363583        83168813600000000911112062018222628523421******7874   0000000112250000000000000000000000000101000000011225120720180000BCYGT4POSC1363583        05327598986N+                                                                                                                                                                                                                                    
21363583        83168813600000000909912062018220631536380******9111   0000000178000000000000000000000000000101000000017800120720180000R00456POSC1363583        05327598986N+                                                                                                                                                                                                                                    
21363583        83168813600000000909712062018220034549167******0277   0000000206400000000000000000000000000101000000020640120720180000097578POSC1363583        05327598986N+                                                                                                                                                                                                                                    
21363583        83168813600000000907312062018205843514945******5875   0000000227400000000000000000000000000101000000022740120720180000058761POSC1363583        05327598986N+                                                                                                                                                                                                                                    
21363583        83168813600000000910912062018221501526863******0886   0000000229340000000000000000000000000101000000022934120720180000023828POSC1363583        05327598986N+                                                                                                                                                                                                                                    
11363583        SMPOS831688104120620181207201803300435300130020216000000005000000000000000115895000000113636000000000000000000002259000000000000000000113636000000000000PF01011363583        00000000000000000000000000000000000000000000000000000000000000000000000000000000000000000000986 +                                                                                                                  
21363583        83168810400000000841712062018215456520977******0691   0000000204500000000000000000000000000101000000020450120720180000085934POSC1363583        05311109986N+                                                                                                                                                                                                                                    
21363583        83168810400000000838912062018212055512682******7729   0000000211400000000000000000000000000101000000021140120720180000633725POSC1363583        05311109986N+                                                                                                                                                                                                                                    
21363583        83168810400000000842512062018215946541759******1319   0000000237150000000000000000000000000101000000023715120720180000095211POSC1363583        05311109986N+                                                                                                                                                                                                                                    
21363583        83168810400000000842112062018215803549167******9500   0000000248450000000000000000000000000101000000024845120720180000092548POSC1363583        05311109986N+                                                                                                                                                                                                                                    
21363583        83168810400000000840712062018213937532930******5113   0000000257450000000000000000000000000101000000025745120720180000R95856POSC1363583        05311109986N+                                                                                                                                                                                                                                    
11363583        SVPOS831266278120620181207201803300435300130020216000000007000000000000000157780000000154705000000000000000000003075000000000000000000154705000000000000PF01011363583        00000000000000000000000000000000000000000000000000000000000000000000000000000000000000000000986 +                                                                                                                  
21363583        83126627800000000906512062018204915421965******5569   0000000206400000000000000000000000000101000000020640120720180000029204POSC1363583        05327598986N+                                                                                                                                                                                                                                    
21363583        83126627800000000905512062018204313482425******2244   0000000197600000000000000000000000000101000000019760120720180000736685POSC1363583        05327598986N+                                                                                                                                                                                                                                    
21363583        83126627800000000904112062018200956453211******9004   0000000260100000000000000000000000000101000000026010120720180000601679POSC1363583        05327598986N+                                                                                                                                                                                                                                    
21363583        83126627800000000904312062018201355406655******6926   0000000197500000000000000000000000000101000000019750120720180000641201POSC1363583        05327598986N+                                                                                                                                                                                                                                    
21363583        83126627800000000902912062018193427422061******4378   0000000293400000000000000000000000000101000000029340120720180000344553POSC1363583        05327598986N+                                                                                                                                                                                                                                    
21363583        83126627800000000902312062018182154410863******0695   0000000207300000000000000000000000000101000000020730120720180000221972POSC1363583        05327598986N+                                                                                                                                                                                                                                    
21363583        83126627800000000905112062018203826455184******3710   0000000215500000000000000000000000000101000000021550120720180000684195POSC1363583        05327598986N+                                                                                                                                                                                                                                    
11363583        SVPOS831266268120620181207201803300435300130020216000000001000000000000000008960000000008785000000000000000000000175000000000000000000008785000000000000PF01011363583        00000000000000000000000000000000000000000000000000000000000000000000000000000000000000000000986 +                                                                                                                  
21363583        83126626800000000836312062018200114406655******7967   0000000089600000000000000000000000000101000000008960120720180000613162POSC1363583        05311109986N+                                                                                                                                                                                                                                    
11363583        SMPOS830970028120620181207201803300435300130020216000000002000000000000000044090000000043230000000000000000000000860000000000000000000043230000000000000PF01011363583        00000000000000000000000000000000000000000000000000000000000000000000000000000000000000000000986 +                                                                                                                  
21363583        83097002800000000903312062018194016544540******4295   0000000228300000000000000000000000000101000000022830120720180000044471POSC1363583        05327598986N+                                                                                                                                                                                                                                    
21363583        83097002800000000904912062018203014558763******4927   0000000212600000000000000000000000000101000000021260120720180000398956POSC1363583        05327598986N+                                                                                                                                                                                                                                    
11363583        SMPOS830969959120620181207201803300435300130020216000000003000000000000000064420000000063164000000000000000000001256000000000000000000063164000000000000PF01011363583        00000000000000000000000000000000000000000000000000000000000000000000000000000000000000000000986 +                                                                                                                  
21363583        83096995900000000836112062018195411544731******8514   0000000215400000000000000000000000000101000000021540120720180000543367POSC1363583        05311109986N+                                                                                                                                                                                                                                    
21363583        83096995900000000837512062018203825548293******7223   0000000231300000000000000000000000000101000000023130120720180000684847POSC1363583        05311109986N+                                                                                                                                                                                                                                    
21363583        83096995900000000835912062018193449521180******6815   0000000197500000000000000000000000000101000000019750120720180000351664POSC1363583        05311109986N+                                                                                                                                                                                                                                    
11363583        SVPOS830587614120620181207201803300435300130020216000000002000000000000000057265000000056149000000000000000000001116000000000000000000056149000000000000PF01011363583        00000000000000000000000000000000000000000000000000000000000000000000000000000000000000000000986 +                                                                                                                  
21363583        83058761400000000900712062018143746406669******5407   0000000323200000000000000000000000000101000000032320120720180000681928POSC1363583        05327598986N+                                                                                                                                                                                                                                    
21363583        83058761400000000900512062018143642406655******4458   0000000249450000000000000000000000000101000000024945120720180000670276POSC1363583        05327598986N+                                                                                                                                                                                                                                    
11363583        SVPOS830587592120620181207201803300435300130020216000000001000000000000000020450000000020051000000000000000000000399000000000000000000020051000000000000PF01011363583        00000000000000000000000000000000000000000000000000000000000000000000000000000000000000000000986 +                                                                                                                  
21363583        83058759200000000834912062018152048453211******5945   0000000204500000000000000000000000000101000000020450120720180000611476POSC1363583        05311109986N+                                                                                                                                                                                                                                    
11363583        SMPOS830338361120620181207201803300435300130020216000000001000000000000000019360000000018982000000000000000000000378000000000000000000018982000000000000PF01011363583        00000000000000000000000000000000000000000000000000000000000000000000000000000000000000000000986 +                                                                                                                  
21363583        83033836100000000901512062018150909544731******0970   0000000193600000000000000000000000000101000000019360120720180000093868POSC1363583        05327598986N+                                                                                                                                                                                                                                    
11363583        SMPOS830338296120620181207201803300435300130020216000000002000000000000000034294000000033625000000000000000000000669000000000000000000033625000000000000PF01011363583        00000000000000000000000000000000000000000000000000000000000000000000000000000000000000000000986 +                                                                                                                  
21363583        83033829600000000834712062018151946546479******3718   0000000192940000000000000000000000000101000000019294120720180000057428POSC1363583        05311109986N+                                                                                                                                                                                                                                    
21363583        83033829600000000835312062018153824523421******4471   0000000150000000000000000000000000000101000000015000120720180000ESLPQRPOSC1363583        05311109986N+                                                                                                                                                                                                                                    
11363583        EDPOS831892703120620181306201803300435300130020216000000001000000000000000020960000000020635000000000000000000000325000000000000000000020635000000000000PG01011363583        00000000000000000000000000000000000000000000000000000000000000000000000000000000000000000000986 +                                                                                                                  
21363583        83189270300000000914712062018232324627780******9158   0000000209600000000000000000000000000101000000020960130620180000090829POSC1363583        05327598986N+                                                                                                                                                                                                                                    
11363583        EDPOS831892696120620181306201803300435300130020216000000001000000000000000019560000000019257000000000000000000000303000000000000000000019257000000000000PG01011363583        00000000000000000000000000000000000000000000000000000000000000000000000000000000000000000000986 +                                                                                                                  
21363583        83189269600000000844512062018230838509073******3106   0000000195600000000000000000000000000101000000019560130620180000187050POSC1363583        05311109986N+                                                                                                                                                                                                                                    
11363583        SEPOS831891283120620181306201803300435300130020216000000002000000000000000053770000000053044000000000000000000000726000000000000000000053044000000000000PG01011363583        00000000000000000000000000000000000000000000000000000000000000000000000000000000000000000000986 +                                                                                                                  
21363583        83189128300000000916512062018235725410392******8582   0000000298300000000000000000000000000101000000029830130620180000187442POSC1363583        05327598986N+                                                                                                                                                                                                                                    
21363583        83189128300000000915512062018233545476608******8102   0000000239400000000000000000000000000101000000023940130620180000187923POSC1363583        05327598986N+                                                                                                                                                                                                                                    
11363583        SEPOS831891279120620181306201803300435300130020216000000001000000000000000020540000000020263000000000000000000000277000000000000000000020263000000000000PG01011363583        00000000000000000000000000000000000000000000000000000000000000000000000000000000000000000000986 +                                                                                                                  
21363583        83189127900000000844912062018231533423808******5332   0000000205400000000000000000000000000101000000020540130620180000155366POSC1363583        05311109986N+                                                                                                                                                                                                                                    
11363583        SRPOS831888353120620181306201803300435300130020216000000006000000000000000109200000000107726000000000000000000001474000000000000000000107726000000000000PG01011363583        00000000000000000000000000000000000000000000000000000000000000000000000000000000000000000000986 +                                                                                                                  
21363583        83188835300000000913512062018225008589916******8772   0000000238300000000000000000000000000101000000023830130620180000679397POSC1363583        05327598986N+                                                                                                                                                                                                                                    
21363583        83188835300000000914312062018230244589916******0251   0000000057600000000000000000000000000101000000005760130620180000680416POSC1363583        05327598986N+                                                                                                                                                                                                                                    
21363583        83188835300000000915312062018233206515590******2265   0000000223600000000000000000000000000101000000022360130620180000322970POSC1363583        05327598986N+                                                                                                                                                                                                                                    
21363583        83188835300000000914512062018232136589916******9813   0000000239400000000000000000000000000101000000023940130620180000687761POSC1363583        05327598986N+                                                                                                                                                                                                                                    
21363583        83188835300000000913912062018230047549167******8422   0000000090700000000000000000000000000101000000009070130620180000683091POSC1363583        05327598986N+                                                                                                                                                                                                                                    
21363583        83188835300000000915112062018232910514945******0938   0000000242400000000000000000000000000101000000024240130620180000689816POSC1363583        05327598986N+                                                                                                                                                                                                                                    
11363583        SRPOS831888339120620181306201803300435300130020216000000005000000000000000110000000000108515000000000000000000001485000000000000000000108515000000000000PG01011363583        00000000000000000000000000000000000000000000000000000000000000000000000000000000000000000000986 +                                                                                                                  
21363583        83188833900000000844712062018231105544731******2085   0000000239000000000000000000000000000101000000023900130620180000112674POSC1363583        05311109986N+                                                                                                                                                                                                                                    
21363583        83188833900000000843912062018225349589916******4997   0000000194600000000000000000000000000101000000019460130620180000680551POSC1363583        05311109986N+                                                                                                                                                                                                                                    
21363583        83188833900000000844312062018230745523284******0245   0000000196600000000000000000000000000101000000019660130620180000684442POSC1363583        05311109986N+                                                                                                                                                                                                                                    
21363583        83188833900000000846112062018233920544731******1802   0000000213400000000000000000000000000101000000021340130620180000394764POSC1363583        05311109986N+                                                                                                                                                                                                                                    
21363583        83188833900000000844112062018230151502121******0362   0000000256400000000000000000000000000101000000025640130620180000021047POSC1363583        05311109986N+                                                                                                                                                                                                                                    
11363583        EDPOS831744460120620181306201803300435300130020216000000003000000000000000062970000000061994000000000000000000000976000000000000000000061994000000000000PG01011363583        00000000000000000000000000000000000000000000000000000000000000000000000000000000000000000000986 +                                                                                                                  
21363583        83174446000000000908112062018213821627780******6081   0000000195600000000000000000000000000101000000019560130620180000637191POSC1363583        05327598986N+                                                                                                                                                                                                                                    
21363583        83174446000000000908912062018214802509069******2203   0000000223600000000000000000000000000101000000022360130620180000191632POSC1363583        05327598986N+                                                                                                                                                                                                                                    
21363583        83174446000000000912512062018224211506775******9958   0000000210500000000000000000000000000101000000021050130620180000231263POSC1363583        05327598986N+                                                                                                                                                                                                                                    
11363583        SEPOS831729212120620181306201803300435300130020216000000004000000000000000063865000000063002000000000000000000000863000000000000000000063002000000000000PG01011363583        00000000000000000000000000000000000000000000000000000000000000000000000000000000000000000000986 +                                                                                                                  
21363583        83172921200000000911312062018222653439267******1196   0000000112250000000000000000000000000101000000011225130620180000892858POSC1363583        05327598986N+                                                                                                                                                                                                                                    
21363583        83172921200000000908312062018214228438001******4943   0000000217000000000000000000000000000101000000021700130620180000186319POSC1363583        05327598986N+                                                                                                                                                                                                                                    
21363583        83172921200000000906712062018205109482481******2485   0000000209400000000000000000000000000101000000020940130620180000117225POSC1363583        05327598986N+                                                                                                                                                                                                                                    
21363583        83172921200000000912912062018224553498406******3825   0000000100000000000000000000000000000101000000010000130620180000681973POSC1363583        05327598986N+                                                                                                                                                                                                                                    
11363583        SEPOS831729194120620181306201803300435300130020216000000002000000000000000033820000000033364000000000000000000000456000000000000000000033364000000000000PG01011363583        00000000000000000000000000000000000000000000000000000000000000000000000000000000000000000000986 +                                                                                                                  
21363583        83172919400000000838112062018205447462070******3946   0000000112650000000000000000000000000101000000011265130620180000551864POSC1363583        05311109986N+                                                                                                                                                                                                                                    
21363583        83172919400000000840112062018213614409602******4121   0000000225550000000000000000000000000101000000022555130620180000186326POSC1363583        05311109986N+                                                                                                                                                                                                                                    
11363583        SRPOS831701430120620181306201803300435300130020216000000010000000000000000142272000000140352000000000000000000001920000000000000000000140352000000000000PG01011363583        00000000000000000000000000000000000000000000000000000000000000000000000000000000000000000000986 +                                                                                                                  
21363583        83170143000000000909512062018215220542820******9490   0000000102250000000000000000000000000101000000010225130620180000524280POSC1363583        05327598986N+                                                                                                                                                                                                                                    
21363583        83170143000000000909112062018215014502121******0906   0000000100000000000000000000000000000101000000010000130620180000505951POSC1363583        05327598986N+                                                                                                                                                                                                                                    
21363583        83170143000000000907712062018211528525718******7802   0000000196600000000000000000000000000101000000019660130620180000637692POSC1363583        05327598986N+                                                                                                                                                                                                                                    
21363583        83170143000000000910512062018221340544731******9933   0000000187700000000000000000000000000101000000018770130620180000135670POSC1363583        05327598986N+                                                                                                                                                                                                                                    
21363583        83170143000000000907912062018213530546479******4085   0000000073300000000000000000000000000101000000007330130620180000212691POSC1363583        05327598986N+                                                                                                                                                                                                                                    
21363583        83170143000000000912312062018223530603689*********00330000000195600000000000000000000000000101000000019560130620180000614899POSC1363583        05327598986N+                                                                                                                                                                                                                                    
21363583        83170143000000000909312062018215129525662******4005   0000000102250000000000000000000000000101000000010225130620180000657259POSC1363583        05327598986N+                                                                                                                                                                                                                                    
21363583        83170143000000000910712062018221418502121******8818   0000000114670000000000000000000000000101000000011467130620180000143460POSC1363583        05327598986N+                                                                                                                                                                                                                                    
21363583        83170143000000000907112062018205740514945******9506   0000000230350000000000000000000000000101000000023035130620180000627903POSC1363583        05327598986N+                                                                                                                                                                                                                                    
21363583        83170143000000000911712062018223050589916******5337   0000000120000000000000000000000000000101000000012000130620180000673135POSC1363583        05327598986N+                                                                                                                                                                                                                                    
11363583        SRPOS831701342120620181306201803300435300130020216000000013000000000000000261060000000257536000000000000000000003524000000000000000000257536000000000000PG01011363583        00000000000000000000000000000000000000000000000000000000000000000000000000000000000000000000986 +                                                                                                                  
21363583        83170134200000000839912062018213531542974******4736   0000000230000000000000000000000000000101000000023000130620180000649117POSC1363583        05311109986N+                                                                                                                                                                                                                                    
21363583        83170134200000000840312062018213716523284******0070   0000000225550000000000000000000000000101000000022555130620180000649442POSC1363583        05311109986N+                                                                                                                                                                                                                                    
21363583        83170134200000000839312062018212908589916******6176   0000000190000000000000000000000000000101000000019000130620180000645594POSC1363583        05311109986N+                                                                                                                                                                                                                                    
21363583        83170134200000000839112062018212809603689*********13740000000223600000000000000000000000000101000000022360130620180000518124POSC1363583        05311109986N+                                                                                                                                                                                                                                    
21363583        83170134200000000841112062018214254529323******8679   0000000193600000000000000000000000000101000000019360130620180000650009POSC1363583        05311109986N+                                                                                                                                                                                                                                    
21363583        83170134200000000838512062018210501589916******1481   0000000208500000000000000000000000000101000000020850130620180000632450POSC1363583        05311109986N+                                                                                                                                                                                                                                    
21363583        83170134200000000843512062018222319589916******7901   0000000241200000000000000000000000000101000000024120130620180000670477POSC1363583        05311109986N+                                                                                                                                                                                                                                    
21363583        83170134200000000838712062018211534526863******4841   0000000208500000000000000000000000000101000000020850130620180000638409POSC1363583        05311109986N+                                                                                                                                                                                                                                    
21363583        83170134200000000839712062018213338529323******2942   0000000097800000000000000000000000000101000000009780130620180000647582POSC1363583        05311109986N+                                                                                                                                                                                                                                    
21363583        83170134200000000839512062018213248523284******2310   0000000047800000000000000000000000000101000000004780130620180000647848POSC1363583        05311109986N+                                                                                                                                                                                                                                    
21363583        83170134200000000840912062018214030603689*********88540000000195600000000000000000000000000101000000019560130620180000542373POSC1363583        05311109986N+                                                                                                                                                                                                                                    
21363583        83170134200000000842312062018215902520977******3886   0000000237150000000000000000000000000101000000023715130620180000660864POSC1363583        05311109986N+                                                                                                                                                                                                                                    
21363583        83170134200000000843312062018222145589916******3957   0000000311300000000000000000000000000101000000031130130620180000668466POSC1363583        05311109986N+                                                                                                                                                                                                                                    
11363583        EDPOS831523159120620181306201803300435300130020216000000001000000000000000019160000000018863000000000000000000000297000000000000000000018863000000000000PG01011363583        00000000000000000000000000000000000000000000000000000000000000000000000000000000000000000000986 +                                                                                                                  
21363583        83152315900000000903112062018193710509000******9107   0000000191600000000000000000000000000101000000019160130620180000184671POSC1363583        05327598986N+                                                                                                                                                                                                                                    
11363583        SEPOS831405901120620181306201803300435300130020216000000001000000000000000010470000000010329000000000000000000000141000000000000000000010329000000000000PG01011363583        00000000000000000000000000000000000000000000000000000000000000000000000000000000000000000000986 +                                                                                                                  
21363583        83140590100000000903512062018194218439267******3258   0000000104700000000000000000000000000101000000010470130620180000505468POSC1363583        05327598986N+                                                                                                                                                                                                                                    
11363583        SEPOS831405765120620181306201803300435300130020216000000004000000000000000110355000000108864000000000000000000001491000000000000000000108864000000000000PG01011363583        00000000000000000000000000000000000000000000000000000000000000000000000000000000000000000000986 +                                                                                                                  
21363583        83140576500000000836712062018200818410863******5934   0000000206500000000000000000000000000101000000020650130620180000084270POSC1363583        05311109986N+                                                                                                                                                                                                                                    
21363583        83140576500000000836512062018200532476608******9106   0000000232500000000000000000000000000101000000023250130620180000185124POSC1363583        05311109986N+                                                                                                                                                                                                                                    
21363583        83140576500000000835712062018184305457938******7869   0000000321200000000000000000000000000101000000032120130620180000433983POSC1363583        05311109986N+                                                                                                                                                                                                                                    
21363583        83140576500000000837712062018204910498431******0059   0000000343350000000000000000000000000101000000034335130620180000174976POSC1363583        05311109986N+                                                                                                                                                                                                                                    
11363583        SRPOS831116770120620181306201803300435300130020216000000009000000000000000182805000000180339000000000000000000002466000000000000000000180339000000000000PG01011363583        00000000000000000000000000000000000000000000000000000000000000000000000000000000000000000000986 +                                                                                                                  
21363583        83111677000000000905912062018204553549167******7332   0000000195600000000000000000000000000101000000019560130620180000620370POSC1363583        05327598986N+                                                                                                                                                                                                                                    
21363583        83111677000000000906112062018204719589916******4078   0000000246400000000000000000000000000101000000024640130620180000621170POSC1363583        05327598986N+                                                                                                                                                                                                                                    
21363583        83111677000000000902712062018192408552693******7671   0000000346250000000000000000000000000101000000034625130620180000244077POSC1363583        05327598986N+                                                                                                                                                                                                                                    
21363583        83111677000000000901912062018161636603689*********90980000000200000000000000000000000000000101000000020000130620180000660910POSC1363583        05327598986N+                                                                                                                                                                                                                                    
21363583        83111677000000000904512062018202149589916******4083   0000000113700000000000000000000000000101000000011370130620180000601640POSC1363583        05327598986N+                                                                                                                                                                                                                                    
21363583        83111677000000000904712062018202210589916******2392   0000000113700000000000000000000000000101000000011370130620180000604493POSC1363583        05327598986N+                                                                                                                                                                                                                                    
21363583        83111677000000000905712062018204454523284******1974   0000000195600000000000000000000000000101000000019560130620180000619021POSC1363583        05327598986N+                                                                                                                                                                                                                                    
21363583        83111677000000000905312062018204006544731******1137   0000000211400000000000000000000000000101000000021140130620180000402259POSC1363583        05327598986N+                                                                                                                                                                                                                                    
21363583        83111677000000000902512062018191554523284******7357   0000000205400000000000000000000000000101000000020540130620180000552062POSC1363583        05327598986N+                                                                                                                                                                                                                                    
11363583        SRPOS831116685120620181306201803300435300130020216000000003000000000000000059260000000058460000000000000000000000800000000000000000000058460000000000000PG01011363583        00000000000000000000000000000000000000000000000000000000000000000000000000000000000000000000986 +                                                                                                                  
21363583        83111668500000000837312062018203121502121******7057   0000000203400000000000000000000000000101000000020340130620180000314354POSC1363583        05311109986N+                                                                                                                                                                                                                                    
21363583        83111668500000000836912062018200909502121******2211   0000000193600000000000000000000000000101000000019360130620180000093143POSC1363583        05311109986N+                                                                                                                                                                                                                                    
21363583        83111668500000000837112062018201023589916******7766   0000000195600000000000000000000000000101000000019560130620180000595991POSC1363583        05311109986N+                                                                                                                                                                                                                                    
11363583        SEPOS830671167120620181306201803300435300130020216000000001000000000000000020350000000020075000000000000000000000275000000000000000000020075000000000000PG01011363583        00000000000000000000000000000000000000000000000000000000000000000000000000000000000000000000986 +                                                                                                                  
21363583        83067116700000000900312062018134641457938******2526   0000000203500000000000000000000000000101000000020350130620180000465766POSC1363583        05327598986N+                                                                                                                                                                                                                                    
11363583        SRPOS830494465120620181306201803300435300130020216000000003000000000000000041780000000041216000000000000000000000564000000000000000000041216000000000000PG01011363583        00000000000000000000000000000000000000000000000000000000000000000000000000000000000000000000986 +                                                                                                                  
21363583        83049446500000000899912062018131349589916******0229   0000000195600000000000000000000000000101000000019560130620180000233430POSC1363583        05327598986N+                                                                                                                                                                                                                                    
21363583        83049446500000000901712062018154159589916******2377   0000000009800000000000000000000000000101000000000980130620180000358854POSC1363583        05327598986N+                                                                                                                                                                                                                                    
21363583        83049446500000000901312062018145841603689*********50480000000212400000000000000000000000000101000000021240130620180000918852POSC1363583        05327598986N+                                                                                                                                                                                                                                    
11363583        SRPOS830494439120620181306201803300435300130020216000000002000000000000000025900000000025551000000000000000000000349000000000000000000025551000000000000PG01011363583        00000000000000000000000000000000000000000000000000000000000000000000000000000000000000000000986 +                                                                                                                  
21363583        83049443900000000835112062018153742603689*********59810000000062400000000000000000000000000101000000006240130620180000293515POSC1363583        05311109986N+                                                                                                                                                                                                                                    
21363583        83049443900000000834112062018130525514945******1007   0000000196600000000000000000000000000101000000019660130620180000224440POSC1363583        05311109986N+                                                                                                                                                                                                                                    
9000000161                                                                                                                                                                                                                                                                                                                                                                                                      
