01606201803103116062018CEADM1001363583        10440482000154GETNET S.A.         000000149GSSANT. V.8.0 400 BYTES                                                                                                                                                                                                                                                                                                
11363583        EDPOS838149361150620181806201803300435300130020216000000001000000000000000044580000000043889000000000000000000000691000000000000000000043889000000000000PF01011363583        00000000000000000000000000000000000000000000000000000000000000000000000000000000000000000000986 +                                                                                                                  
21363583        83814936100000000861715062018232909627780******9287   0000000445800000000000000000000000000101000000044580180620180000284509POSC1363583        05311109986N+                                                                                                                                                                                                                                    
11363583        SVPOS838147732150620181607201803300435300130020216000000005000000000000000114450000000112219000000000000000000002231000000000000000000112219000000000000PF01011363583        00000000000000000000000000000000000000000000000000000000000000000000000000000000000000000000986 +                                                                                                                  
21363583        83814773200000000861115062018231346490172******6352   0000000104800000000000000000000000000101000000010480160720180000096593POSC1363583        05311109986N+                                                                                                                                                                                                                                    
21363583        83814773200000000860515062018230853415274******4238   0000000232500000000000000000000000000101000000023250160720180000040051POSC1363583        05311109986N+                                                                                                                                                                                                                                    
21363583        83814773200000000861315062018231457453211******3697   0000000292400000000000000000000000000101000000029240160720180000652008POSC1363583        05311109986N+                                                                                                                                                                                                                                    
21363583        83814773200000000861515062018232757498453******9096   0000000410000000000000000000000000000101000000041000160720180000633918POSC1363583        05311109986N+                                                                                                                                                                                                                                    
21363583        83814773200000000860915062018231234498407******4185   0000000104800000000000000000000000000101000000010480160720180000620487POSC1363583        05311109986N+                                                                                                                                                                                                                                    
11363583        EDPOS837998168150620181806201803300435300130020216000000001000000000000000023430000000023067000000000000000000000363000000000000000000023067000000000000PF01011363583        00000000000000000000000000000000000000000000000000000000000000000000000000000000000000000000986 +                                                                                                                  
21363583        83799816800000000935115062018215350650494******9108   0000000234300000000000000000000000000101000000023430180620180000229584POSC1363583        05327598986N+                                                                                                                                                                                                                                    
11363583        EDPOS837998149150620181806201803300435300130020216000000001000000000000000010000000000009845000000000000000000000155000000000000000000009845000000000000PF01011363583        00000000000000000000000000000000000000000000000000000000000000000000000000000000000000000000986 +                                                                                                                  
21363583        83799814900000000856915062018205114627780******2618   0000000100000000000000000000000000000101000000010000180620180000471398POSC1363583        05311109986N+                                                                                                                                                                                                                                    
11363583        ECPOS837994771150620181607201803300435300130020216000000001000000000000000021340000000020949000000000000000000000391000000000000000000020949000000000000PF01011363583        00000000000000000000000000000000000000000000000000000000000000000000000000000000000000000000986 +                                                                                                                  
21363583        83799477100000000936115062018222808650485******1816   0000000213400000000000000000000000000101000000021340160720180000683367POSC1363583        05327598986N+                                                                                                                                                                                                                                    
11363583        SEPOS837983893150620181806201803300435300130020216000000001000000000000000020950000000020667000000000000000000000283000000000000000000020667000000000000PF01011363583        00000000000000000000000000000000000000000000000000000000000000000000000000000000000000000000986 +                                                                                                                  
21363583        83798389300000000934715062018213832409602******5853   0000000209500000000000000000000000000101000000020950180620180000229425POSC1363583        05327598986N+                                                                                                                                                                                                                                    
11363583        SEPOS837983879150620181806201803300435300130020216000000001000000000000000010175000000010038000000000000000000000137000000000000000000010038000000000000PF01011363583        00000000000000000000000000000000000000000000000000000000000000000000000000000000000000000000986 +                                                                                                                  
21363583        83798387900000000858915062018220119498406******7776   0000000101750000000000000000000000000101000000010175180620180000179298POSC1363583        05311109986N+                                                                                                                                                                                                                                    
11363583        SVPOS837973523150620181607201803300435300130020216000000002000000000000000029560000000028984000000000000000000000576000000000000000000028984000000000000PF01011363583        00000000000000000000000000000000000000000000000000000000000000000000000000000000000000000000986 +                                                                                                                  
21363583        83797352300000000936715062018224326415274******0172   0000000195600000000000000000000000000101000000019560160720180000032942POSC1363583        05327598986N+                                                                                                                                                                                                                                    
21363583        83797352300000000936315062018224102400689******8127   0000000100000000000000000000000000000101000000010000160720180000037711POSC1363583        05327598986N+                                                                                                                                                                                                                                    
11363583        SVPOS837973502150620181607201803300435300130020216000000002000000000000000032680000000032043000000000000000000000637000000000000000000032043000000000000PF01011363583        00000000000000000000000000000000000000000000000000000000000000000000000000000000000000000000986 +                                                                                                                  
21363583        83797350200000000859915062018223100406655******4694   0000000101500000000000000000000000000101000000010150160720180000613505POSC1363583        05311109986N+                                                                                                                                                                                                                                    
21363583        83797350200000000859715062018222807474525******5856   0000000225300000000000000000000000000101000000022530160720180000819104POSC1363583        05311109986N+                                                                                                                                                                                                                                    
11363583        SRPOS837959257150620181806201803300435300130020216000000004000000000000000094670000000093392000000000000000000001278000000000000000000093392000000000000PF01011363583        00000000000000000000000000000000000000000000000000000000000000000000000000000000000000000000986 +                                                                                                                  
21363583        83795925700000000936915062018224616542974******5800   0000000191600000000000000000000000000101000000019160180620180000726954POSC1363583        05327598986N+                                                                                                                                                                                                                                    
21363583        83795925700000000935915062018222615589916******0918   0000000212400000000000000000000000000101000000021240180620180000722010POSC1363583        05327598986N+                                                                                                                                                                                                                                    
21363583        83795925700000000934515062018213748546479******1787   0000000237400000000000000000000000000101000000023740180620180000431251POSC1363583        05327598986N+                                                                                                                                                                                                                                    
21363583        83795925700000000934315062018213647603689*********45770000000305300000000000000000000000000101000000030530180620180000491271POSC1363583        05327598986N+                                                                                                                                                                                                                                    
11363583        SRPOS837959198150620181806201803300435300130020216000000009000000000000000137005000000135156000000000000000000001849000000000000000000135156000000000000PF01011363583        00000000000000000000000000000000000000000000000000000000000000000000000000000000000000000000986 +                                                                                                                  
21363583        83795919800000000860115062018223141545719******2521   0000000100000000000000000000000000000101000000010000180620180000724796POSC1363583        05311109986N+                                                                                                                                                                                                                                    
21363583        83795919800000000860315062018224022589916******3512   0000000205900000000000000000000000000101000000020590180620180000724901POSC1363583        05311109986N+                                                                                                                                                                                                                                    
21363583        83795919800000000859315062018221500514945******9535   0000000109700000000000000000000000000101000000010970180620180000716336POSC1363583        05311109986N+                                                                                                                                                                                                                                    
21363583        83795919800000000859115062018221429589916******8748   0000000109700000000000000000000000000101000000010970180620180000715907POSC1363583        05311109986N+                                                                                                                                                                                                                                    
21363583        83795919800000000857115062018205144521180******2427   0000000097600000000000000000000000000101000000009760180620180000520763POSC1363583        05311109986N+                                                                                                                                                                                                                                    
21363583        83795919800000000858115062018215208515590******3244   0000000195600000000000000000000000000101000000019560180620180000522661POSC1363583        05311109986N+                                                                                                                                                                                                                                    
21363583        83795919800000000857915062018214324544731******7684   0000000195600000000000000000000000000101000000019560180620180000434687POSC1363583        05311109986N+                                                                                                                                                                                                                                    
21363583        83795919800000000857515062018211937549167******7055   0000000254200000000000000000000000000101000000025420180620180000686778POSC1363583        05311109986N+                                                                                                                                                                                                                                    
21363583        83795919800000000858715062018220048589916******8173   0000000101750000000000000000000000000101000000010175180620180000709582POSC1363583        05311109986N+                                                                                                                                                                                                                                    
11363583        SMPOS837946250150620181607201803300435300130020216000000004000000000000000079165000000077621000000000000000000001544000000000000000000077621000000000000PF01011363583        00000000000000000000000000000000000000000000000000000000000000000000000000000000000000000000986 +                                                                                                                  
21363583        83794625000000000935515062018222301544731******9179   0000000215400000000000000000000000000101000000021540160720180000232277POSC1363583        05327598986N+                                                                                                                                                                                                                                    
21363583        83794625000000000936515062018224128542820******4230   0000000104500000000000000000000000000101000000010450160720180000414964POSC1363583        05327598986N+                                                                                                                                                                                                                                    
21363583        83794625000000000934915062018214223522840******7973   0000000232650000000000000000000000000101000000023265160720180000425673POSC1363583        05327598986N+                                                                                                                                                                                                                                    
21363583        83794625000000000935315062018220543522840******0275   0000000239100000000000000000000000000101000000023910160720180000060067POSC1363583        05327598986N+                                                                                                                                                                                                                                    
11363583        SMPOS837946228150620181607201803300435300130020216000000003000000000000000077005000000075504000000000000000000001501000000000000000000075504000000000000PF01011363583        00000000000000000000000000000000000000000000000000000000000000000000000000000000000000000000986 +                                                                                                                  
21363583        83794622800000000857715062018213850512427******9903   0000000225500000000000000000000000000101000000022550160720180000691452POSC1363583        05311109986N+                                                                                                                                                                                                                                    
21363583        83794622800000000859515062018222025515590******2181   0000000443800000000000000000000000000101000000044380160720180000231556POSC1363583        05311109986N+                                                                                                                                                                                                                                    
21363583        83794622800000000858315062018215602514945******6270   0000000100750000000000000000000000000101000000010075160720180000065641POSC1363583        05311109986N+                                                                                                                                                                                                                                    
11363583        EDPOS837658041150620181806201803300435300130020216000000001000000000000000024055000000023682000000000000000000000373000000000000000000023682000000000000PF01011363583        00000000000000000000000000000000000000000000000000000000000000000000000000000000000000000000986 +                                                                                                                  
21363583        83765804100000000856315062018203350650494******9103   0000000240550000000000000000000000000101000000024055180620180000228577POSC1363583        05311109986N+                                                                                                                                                                                                                                    
11363583        SEPOS837562277150620181806201803300435300130020216000000001000000000000000008140000000008030000000000000000000000110000000000000000000008030000000000000PF01011363583        00000000000000000000000000000000000000000000000000000000000000000000000000000000000000000000986 +                                                                                                                  
21363583        83756227700000000933915062018164532493100******4282   0000000081400000000000000000000000000101000000008140180620180000226232POSC1363583        05327598986N+                                                                                                                                                                                                                                    
11363583        SEPOS837562269150620181806201803300435300130020216000000001000000000000000017100000000016869000000000000000000000231000000000000000000016869000000000000PF01011363583        00000000000000000000000000000000000000000000000000000000000000000000000000000000000000000000986 +                                                                                                                  
21363583        83756226900000000855915062018202100476608******5104   0000000171000000000000000000000000000101000000017100180620180000229109POSC1363583        05311109986N+                                                                                                                                                                                                                                    
11363583        SRPOS837360206150620181806201803300435300130020216000000001000000000000000019750000000019483000000000000000000000267000000000000000000019483000000000000PF01011363583        00000000000000000000000000000000000000000000000000000000000000000000000000000000000000000000986 +                                                                                                                  
21363583        83736020600000000856115062018203057589916******9628   0000000197500000000000000000000000000101000000019750180620180000654278POSC1363583        05311109986N+                                                                                                                                                                                                                                    
11363583        SMPOS837239324150620181607201803300435300130020216000000003000000000000000064665000000063404000000000000000000001261000000000000000000063404000000000000PF01011363583        00000000000000000000000000000000000000000000000000000000000000000000000000000000000000000000986 +                                                                                                                  
21363583        83723932400000000855715062018194056516292******4579   0000000206500000000000000000000000000101000000020650160720180000VV0ANFPOSC1363583        05311109986N+                                                                                                                                                                                                                                    
21363583        83723932400000000856515062018204411525663******9808   0000000189700000000000000000000000000101000000018970160720180000083805POSC1363583        05311109986N+                                                                                                                                                                                                                                    
21363583        83723932400000000856715062018204606553636******4968   0000000250450000000000000000000000000101000000025045160720180000073440POSC1363583        05311109986N+                                                                                                                                                                                                                                    
11363583        EDPOS837049483150620181806201803300435300130020216000000001000000000000000015915000000015668000000000000000000000247000000000000000000015668000000000000PF01011363583        00000000000000000000000000000000000000000000000000000000000000000000000000000000000000000000986 +                                                                                                                  
21363583        83704948300000000854715062018133243509000******3404   0000000159150000000000000000000000000101000000015915180620180000224284POSC1363583        05311109986N+                                                                                                                                                                                                                                    
11363583        SVPOS836812156150620181607201803300435300130020216000000002000000000000000033940000000033278000000000000000000000662000000000000000000033278000000000000PF01011363583        00000000000000000000000000000000000000000000000000000000000000000000000000000000000000000000986 +                                                                                                                  
21363583        83681215600000000855315062018152004406655******8215   0000000305600000000000000000000000000101000000030560160720180000602838POSC1363583        05311109986N+                                                                                                                                                                                                                                    
21363583        83681215600000000854315062018132825498408******1257   0000000033800000000000000000000000000101000000003380160720180000028357POSC1363583        05311109986N+                                                                                                                                                                                                                                    
11363583        SMPOS836522798150620181607201803300435300130020216000000001000000000000000003970000000003893000000000000000000000077000000000000000000003893000000000000PF01011363583        00000000000000000000000000000000000000000000000000000000000000000000000000000000000000000000986 +                                                                                                                  
21363583        83652279800000000933515062018153134546056******5866   0000000039700000000000000000000000000101000000003970160720180000066222POSC1363583        05327598986N+                                                                                                                                                                                                                                    
11363583        SMPOS836522732150620181607201803300435300130020216000000002000000000000000038100000000037357000000000000000000000743000000000000000000037357000000000000PF01011363583        00000000000000000000000000000000000000000000000000000000000000000000000000000000000000000000986 +                                                                                                                  
21363583        83652273200000000855115062018141431522840******6715   0000000231500000000000000000000000000101000000023150160720180000145564POSC1363583        05311109986N+                                                                                                                                                                                                                                    
21363583        83652273200000000854915062018134704539090******3827   0000000149500000000000000000000000000101000000014950160720180000075771POSC1363583        05311109986N+                                                                                                                                                                                                                                    
9000000072                                                                                                                                                                                                                                                                                                                                                                                                      
